:100000000C945D000C9485000C9485000C94850084
:100010000C9485000C9485000C9485000C9485004C
:100020000C9485000C9485000C9485000C9485003C
:100030000C9485000C9485000C9485000C9485002C
:100040000C9403030C9485000C94D1020C94AB0225
:100050000C9485000C9485000C9485000C9485000C
:100060000C9485000C94850000000008000201003B
:100070000003040700000000000000000000000072
:10008000250028002B0000000000240027002A0083
:10009000010204081020408001020408102001021F
:1000A00004081020040404040404040402020202EC
:1000B00002020303030303034D0311241FBECFEF0A
:1000C000D8E0DEBFCDBF11E0A0E0B1E0E2E7FCE0A8
:1000D00002C005900D92A832B107D9F722E0A8E23C
:1000E000B1E001C01D92A831B207E1F710E0CDE503
:1000F000D0E004C02197FE010E943106CC35D10723
:10010000C9F70E9413040C9437060C940000CF9298
:10011000DF92EF92FF920F931F932FB7F894C09046
:100120002E01D0902F01E0903001F09031012FBFCF
:100130006C0D7D1D8E1D9F1D4FB7F89400912E01F3
:1001400010912F0120913001309131014FBF0C15DA
:100150001D052E053F0528F06017710782079307DC
:1001600058F71F910F91FF90EF90DF90CF90089577
:1001700090E0FC01E057FF4F24918C559F4FFC010C
:100180008491882399F090E0880F991FFC01EA5729
:10019000FF4FA591B491FC01E458FF4F85919491D4
:1001A0008FB7F894EC91E22BEC938FBF0895AF9248
:1001B000BF92CF92DF92EF92FF920F931F93CF9354
:1001C000DF936C017B018B01040F151FEB015E01B6
:1001D000AE18BF08C017D10759F06991D601ED914B
:1001E000FC910190F081E02DC6010995892B79F7EA
:1001F000C501DF91CF911F910F91FF90EF90DF909C
:10020000CF90BF90AF900895FC01538D448D252F62
:1002100030E0842F90E0821B930B541710F0CF96A0
:10022000089501970895FC01918D828D981761F0D2
:10023000A28DAE0FBF2FB11D5D968C91928D9F5FE9
:100240009F73928F90E008958FEF9FEF0895FC01C8
:10025000918D828D981731F0828DE80FF11D858D7B
:1002600090E008958FEF9FEF0895FC01918D228D0E
:10027000892F90E0805C9F4F821B91098F73992793
:10028000089582E391E00E94350121E0892B09F471
:1002900020E0822F089580E090E0892B29F00E94D1
:1002A000410181110C9400000895FC01A48DA80F58
:1002B000B92FB11DA35ABF4F2C91848D90E00196A8
:1002C0008F739927848FA689B7892C93A089B189C8
:1002D0008C91837080648C93938D848D981306C069
:1002E0000288F389E02D80818F7D80830895EF92CD
:1002F000FF920F931F93CF93DF93EC0181E0888FE0
:100300009B8D8C8D98131AC0E889F989808185FFAF
:1003100015C09FB7F894EE89FF896083E889F98951
:1003200080818370806480839FBF81E090E0DF9153
:10033000CF911F910F91FF90EF900895F62E0B8DA6
:1003400010E00F5F1F4F0F731127E02E8C8D8E1161
:100350000CC00FB607FCFACFE889F989808185FFC8
:10036000F5CFCE010E945501F1CFEB8DEC0FFD2FA3
:10037000F11DE35AFF4FF0829FB7F8940B8FEA8983
:10038000FB8980818062CFCFCF93DF93EC01888D92
:100390008823B9F0AA89BB89E889F9898C9185FD00
:1003A00003C0808186FD0DC00FB607FCF7CF8C918E
:1003B00085FFF2CF808185FFEDCFCE010E945501F0
:1003C000E9CFDF91CF91089590E0FC01E859FF4F0C
:1003D0002491FC01E057FF4F3491FC01EC55FF4F95
:1003E000E491EE23C9F0222339F0233001F1A8F47F
:1003F000213019F1223029F1F0E0EE0FFF1FE4580F
:10040000FF4FA591B4918FB7F894EC91611126C07C
:1004100030953E233C938FBF08952730A9F02830B4
:10042000C9F0243049F7809180008F7D03C080910E
:1004300080008F7780938000DFCF84B58F7784BD75
:10044000DBCF84B58F7DFBCF8091B0008F77809319
:10045000B000D2CF8091B0008F7DF9CF3E2BDACFA4
:100460001F93CF93DF93C82F162F60E08091160261
:100470000E94E401CEBD00000DB407FEFDCFCEB555
:10048000D0E0DC2FCC271EBD00000DB407FEFDCF51
:100490008EB5C82B61E0809116020E94E401CE0166
:1004A000DF91CF911F9108953FB7F8948091290172
:1004B00090912A01A0912B01B0912C0126B5A89B07
:1004C00005C02F3F19F00196A11DB11D3FBFBA2FE6
:1004D000A92F982F8827BC01CD01620F711D811DA6
:1004E000911D42E0660F771F881F991F4A95D1F72B
:1004F00008958F929F92AF92BF92CF92DF92EF9228
:10050000FF924B015C010E9454026B017C010E942E
:1005100054026C197D098E099F09683E734081055C
:100520009105A8F321E0821A9108A108B10888EE8C
:10053000C80E83E0D81EE11CF11C81149104A104B3
:10054000B10429F7FF90EF90DF90CF90BF90AF906C
:100550009F908F9008951F920F920FB60F921124C3
:100560002F933F934F935F936F937F938F939F93BB
:10057000AF93BF93EF93FF9382E391E00E94550105
:10058000FF91EF91BF91AF919F918F917F916F916B
:100590005F914F913F912F910F900FBE0F901F9041
:1005A00018951F920F920FB60F9211242F938F93CD
:1005B0009F93EF93FF93E0914201F091430180817B
:1005C000E0914801F091490182FD1BC0908180912A
:1005D0004B018F5F8F7320914C01821741F0E091A6
:1005E0004B01F0E0EE5CFE4F958F80934B01FF9145
:1005F000EF919F918F912F910F900FBE0F901F90B1
:1006000018958081F4CF1F920F920FB60F9211248C
:100610002F933F938F939F93AF93BF9380912E011E
:1006200090912F01A0913001B091310130912801BA
:1006300023E0230F2D3758F50196A11DB11D2093FE
:10064000280180932E0190932F01A0933001B09345
:1006500031018091290190912A01A0912B01B09143
:100660002C010196A11DB11D8093290190932A01AF
:10067000A0932B01B0932C01BF91AF919F918F91CB
:100680003F912F910F900FBE0F901F90189526E865
:10069000230F0296A11DB11DD2CFCF931092350129
:1006A0001092340188EE93E0A0E0B0E08093360130
:1006B00090933701A0933801B093390188E091E01D
:1006C000909333018093320185EC90E090933F0149
:1006D00080933E0184EC90E090934101809340012F
:1006E00080EC90E0909343018093420181EC90E094
:1006F000909345018093440182EC90E090934701F0
:100700008093460186EC90E09093490180934801E4
:1007100010924B0110924C0110924D0110924E011B
:100720001092D5011092D6011092D7011092D801E3
:100730001092D9011092DA011092DB011092DC01C3
:100740001092DD011092DE011092DF011092E001A3
:100750001092E1011092E2011092E3011092E40183
:100760008AE090E090931702809316020E94B800EE
:1007700061E0809116020E94E401CFB7F894809165
:100780001502811124C0EEEAF0E08491EAE9F0E07C
:100790009491E82FF0E0EE0FFF1FEA57FF4FA5916D
:1007A000B491EC91E92321F461E08AE00E94E40134
:1007B0008AE00E94B8008CB580618CBD8CB58064E5
:1007C0008CBD8DE00E94B8008BE00E94B800809143
:1007D00015028F5F80931502CFBF80E58CBD81E04D
:1007E0008DBD60E08CE00E94300267E08AE00E94EC
:1007F000300267E08BE00E94300260E089E00E94F6
:10080000300260E08FE00E94300261E08CE00E94E4
:100810003002C1E060E08C2F0E943002CF5FC9300F
:10082000C9F7CF910895CF93DF9300D000D0CDB713
:10083000DEB7789484B5826084BD84B5816084BD60
:1008400085B5826085BD85B5816085BD80916E006E
:10085000816080936E00109281008091810082609F
:1008600080938100809181008160809381008091DC
:1008700080008160809380008091B10084608093CB
:10088000B1008091B00081608093B00080917A00C7
:10089000846080937A0080917A00826080937A00ED
:1008A00080917A00816080937A0080917A008068DC
:1008B00080937A001092C1001092110210921202DD
:1008C00010921302109214021092D1011092D201D0
:1008D0001092D3011092D40168EB7BE080E090E0AD
:1008E0000E94870068EE73E080E090E00E94790249
:1008F000E0914201F091430182E08083E0913E016A
:10090000F0913F011082E0914001F091410180E1BE
:10091000808310924A01E0914601F091470186E000
:100920008083E0914401F091450180818061808362
:10093000E0914401F0914501808188608083E091DD
:100940004401F0914501808180688083E0914401F9
:10095000F091450180818F7D80832FB7F89480913D
:100960002E0190912F01A0913001B09131012FBF44
:100970008093D1019093D201A093D301B093D4017D
:1009800040E150E066E171E082E391E00E94D7002F
:100990006AE070E080E090E00E94870081E0809350
:1009A000E50185E480937C0080917A0080648093E7
:1009B0007A0080917A0086FDFCCF8091780060916A
:1009C0007900762F682F072E000C880B990B611584
:1009D00071058105910511F00E94C50588E0C82EBA
:1009E000D12CE12CF12C812C912C540193940E9458
:1009F00076052B013C010E947605A70196010E9415
:100A0000F00569837A838B839C8389819A81089717
:100A100050F4C301B201A50194010E94F00589813F
:100A20008F5F0E94300280912D018F5F87708093CD
:100A30002D0168EC70E080E090E00E94790280E097
:100A400090E0892BA1F20E944101882381F20E944B
:100A50000000CDCF8F929F92AF92BF92CF92DF9244
:100A6000EF92FF92CF93DF93EC01688179818A81C5
:100A70009B81611571058105910521F464E279ED91
:100A80008BE597E02DE133EF41E050E00E94F00567
:100A900049015A019B01AC01A7EAB1E40E940F068B
:100AA0006B017C01ACEEB4EFA50194010E941D0620
:100AB000C60ED71EE81EF91EF7FE06C081E0C81A52
:100AC000D108E10880E8F80AC882D982EA82FB826C
:100AD000C701B6019F77DF91CF91FF90EF90DF9034
:100AE000CF90BF90AF909F908F9008958F929F92DC
:100AF000AF92BF92CF92DF92EF92FF92609100018E
:100B000070910101809102019091030161157105BD
:100B10008105910521F464E279ED8BE597E02DE103
:100B200033EF41E050E00E94F00549015A019B017A
:100B3000AC01A7EAB1E40E940F066B017C01ACEEA8
:100B4000B4EFA50194010E941D06C60ED71EE81E33
:100B5000F91EF7FE06C081E0C81AD108E10880E856
:100B6000F80AC0920001D0920101E0920201F092D5
:100B70000301C701B6019F77FF90EF90DF90CF9000
:100B8000BF90AF909F908F900895609300017093F5
:100B9000010180930201909303010895A1E21A2EAE
:100BA000AA1BBB1BFD010DC0AA1FBB1FEE1FFF1F11
:100BB000A217B307E407F50720F0A21BB30BE40B61
:100BC000F50B661F771F881F991F1A9469F76095A8
:100BD0007095809590959B01AC01BD01CF01089562
:100BE000052E97FB1EF400940E94070657FD07D0C0
:100BF0000E94CE0507FC03D04EF40C9407065095D6
:100C00004095309521953F4F4F4F5F4F08959095F8
:100C10008095709561957F4F8F4F9F4F08950E94EB
:100C20002206A59F900DB49F900DA49F800D911D4D
:100C300011240895B7FF0C940F060E940F06821B23
:100C4000930B0895A29FB001B39FC001A39F700DA5
:100C5000811D1124911DB29F700D811D1124911DC4
:100C60000895EE0FFF1F0590F491E02D0994F8947C
:020C7000FFCFB4
:100C720001000000000000007701D7000401C40158
:100C8200350113012701564D4450565F317C315FC7
:080C9200564D4450560A0000C3
:00000001FF
