:100000000C9462000C948A000C948A000C948A0070
:100010000C948A000C948A000C948A000C948A0038
:100020000C948A000C948A000C948A000C948A0028
:100030000C948A000C948A000C948A000C948A0018
:100040000C94AC030C948A000C947A030C94540323
:100050000C948A000C948A000C948A000C948A00F8
:100060000C948A000C948A000000000025002800EF
:100070002B000000000023002600290000000008DB
:10008000000201000003040700000000000000005F
:1000900000000000240027002A00010204081020AC
:1000A000408001020408102001020408102004040A
:1000B0000404040404040202020202020303030310
:1000C0000303F60311241FBECFEFD8E0DEBFCDBF80
:1000D00011E0A0E0B1E0E4E3F7E102C005900D9289
:1000E000A03EB107D9F722E0A0EEB1E001C01D9219
:1000F000AB3FB207E1F710E0C2E6D0E004C02197C1
:10010000FE010E94A009C136D107C9F70E94160559
:100110000C94980B0C940000E82F880FFF0BE0560E
:10012000FE4FCB010896DB012D91BD0121938A176B
:100130009B07C9F70895AF92BF92CF92DF92EF92DB
:10014000FF920F931F93CF93DF936C017B018B0181
:10015000040F151FEB015E01AE18BF08C017D107D1
:1001600059F06991D601ED91FC910190F081E02D5B
:10017000C6010995892B79F7C501DF91CF911F91B0
:100180000F91FF90EF90DF90CF90BF90AF900895C8
:10019000FC01538D448D252F30E0842F90E0821B8D
:1001A000930B541710F0CF96089501970895FC0112
:1001B000918D828D981761F0A28DAE0FBF2FB11D6A
:1001C0005D968C91928D9F5F9F73928F90E00895C2
:1001D0008FEF9FEF0895FC01918D828D981731F07C
:1001E000828DE80FF11D858D90E008958FEF9FEFD0
:1001F0000895FC01918D228D892F90E0805C9F4FA6
:10020000821B91098F739927089582E092E00E94E2
:10021000F90021E0892B09F420E0822F089580E085
:1002200090E0892B29F00E94050181110C940000B7
:100230000895FC01A48DA80FB92FB11DA35ABF4F7B
:100240002C91848D90E001968F739927848FA689D5
:10025000B7892C93A089B1898C91837080648C9329
:10026000938D848D981306C00288F389E02D8081D8
:100270008F7D80830895EF92FF920F931F93CF930A
:10028000DF93EC0181E0888F9B8D8C8D98131AC0D1
:10029000E889F989808185FF15C09FB7F894EE89B8
:1002A000FF896083E889F989808183708064808315
:1002B0009FBF81E090E0DF91CF911F910F91FF9060
:1002C000EF900895F62E0B8D10E00F5F1F4F0F7308
:1002D0001127E02E8C8D8E110CC00FB607FCFACFC3
:1002E000E889F989808185FFF5CFCE010E94190147
:1002F000F1CFEB8DEC0FFD2FF11DE35AFF4FF08294
:100300009FB7F8940B8FEA89FB8980818062CFCFF9
:10031000CF93DF93EC01888D8823B9F0AA89BB893C
:10032000E889F9898C9185FD03C0808186FD0DC027
:100330000FB607FCF7CF8C9185FFF2CF808185FF48
:10034000EDCFCE010E941901E9CFDF91CF91089541
:10035000833081F028F4813099F08230A9F008953B
:100360008730A9F08830C9F08430B1F480918000E2
:100370008F7D03C0809180008F77809380000895E7
:1003800084B58F7784BD089584B58F7DFBCF809130
:10039000B0008F778093B00008958091B0008F7D7A
:1003A000F9CFCF93DF93282F30E0F901E458FF4FC6
:1003B0008491F901E656FF4FD491F901E255FF4FC0
:1003C000C491CC23A1F081110E94A801EC2FF0E090
:1003D000EE0FFF1FEE58FF4FA591B491EC91ED2366
:1003E00081E090E009F480E0DF91CF91089580E012
:1003F00090E0FACF1F93CF93DF93282F30E0F901DD
:10040000E458FF4F8491F901E656FF4FD491F9016A
:10041000E255FF4FC491CC23A9F0162F81110E9401
:10042000A801EC2FF0E0EE0FFF1FE859FF4FA59158
:10043000B4918FB7F894EC91111108C0D095DE23D8
:10044000DC938FBFDF91CF911F910895DE2BF8CF02
:100450007F928F929F92AF92BF92CF92DF92EF9254
:10046000FF920F931F93CF93DF938C0160E08091F5
:10047000EF020E94FA018091F3029091F4026C0164
:1004800021E0C21AD108080F191F87E0A82EB12C4D
:10049000D7FC33C0F801E2908F017090F102909088
:1004A000ED028090EB02D0E0C0E0F12C71101BC097
:1004B000B7010C2E02C0759567950A94E2F761703A
:1004C000882D0E94FA0161E0892D0E94FA0160E006
:1004D000892D0E94FA012196C830D10539F721E013
:1004E000C21AD108D5CFC5018C1B9D0BB70102C024
:1004F000759567958A95E2F7E2CF61E08091EF020A
:10050000DF91CF911F910F91FF90EF90DF90CF90EF
:10051000BF90AF909F908F907F900C94FA011F93A3
:10052000CF93DF93C82F162F60E08091F5020E94D1
:10053000FA01CEBD00000DB407FEFDCFCEB5D0E070
:10054000DC2FCC271EBD00000DB407FEFDCF8EB5FD
:10055000C82B61E08091F5020E94FA01CE01DF9183
:10056000CF911F910895CF93DF9390E0FC01E65661
:10057000FF4F249182559F4FFC0184918823D1F035
:1005800090E0880F991FFC01E057FF4FA591B491AF
:10059000FC01E859FF4FC591D491623071F49FB7C7
:1005A000F8943C91822F809583238C93E8812E2BA5
:1005B00028839FBFDF91CF9108958FB7F894EC9176
:1005C0002E2B2C938FBFF6CF3FB7F8948091E50187
:1005D0009091E601A091E701B091E80126B5A89BB2
:1005E00005C02F3F19F00196A11DB11D3FBFBA2FC5
:1005F000A92F982F8827BC01CD01620F711D811D85
:10060000911D42E0660F771F881F991F4A95D1F709
:1006100008952FB7F8946091E1017091E201809103
:10062000E3019091E4012FBF0895EF92FF920F93A1
:100630001F93CF93DF93EC017B018A01888199811D
:10064000009729F02A813B812417350788F4B801E7
:100650006F5F7F4F0E94CB0A009791F09983888348
:100660001B830A832C813D81232B11F4FC01108212
:100670001D830C83B701888199810E94910B0CC066
:1006800088819981009711F00E94420A198218828C
:100690001D821C821B821A82CE01DF91CF911F9195
:1006A0000F91FF90EF9008951F920F920FB60F9247
:1006B00011242F933F934F935F936F937F938F9367
:1006C0009F93AF93BF93EF93FF9382E092E00E94DA
:1006D0001901FF91EF91BF91AF919F918F917F9100
:1006E0006F915F914F913F912F910F900FBE0F909F
:1006F0001F9018951F920F920FB60F9211242F93EF
:100700008F939F93EF93FF93E0911202F091130266
:100710008081E0911802F091190282FD1BC0908146
:1007200080911B028F5F8F7320911C02821741F012
:10073000E0911B02F0E0EE5FFD4F958F80931B026E
:10074000FF91EF919F918F912F910F900FBE0F907E
:100750001F9018958081F4CF1F920F920FB60F92C1
:1007600011242F933F938F939F93AF93BF938091C7
:10077000E1019091E201A091E301B091E401309197
:10078000E00123E0230F2D3758F50196A11DB11D7F
:100790002093E0018093E1019093E201A093E301B3
:1007A000B093E4018091E5019091E601A091E70109
:1007B000B091E8010196A11DB11D8093E5019093D0
:1007C000E601A093E701B093E801BF91AF919F913B
:1007D0008F913F912F910F900FBE0F901F90189502
:1007E00026E8230F0296A11DB11DD2CF0F931F93B0
:1007F000CF93DF93109205021092040288EE93E0EB
:10080000A0E0B0E08093060290930702A093080254
:10081000B09309028EEB91E0909303028093020261
:1008200085EC90E090930F0280930E0284EC90E0B0
:10083000909311028093100280EC90E09093130249
:100840008093120281EC90E0909315028093140241
:1008500082EC90E0909317028093160286EC90E071
:10086000909319028093180210921B0210921C029E
:1008700010921D0210921E021092A5021092A60262
:100880001092A7021092A8021092A9021092AA0236
:100890001092AB021092AC021092AD021092AE0216
:1008A0001092AF021092B0021092B1021092B202F6
:1008B0001092B3021092B4028AE090E09093F60294
:1008C0008093F50261E00E94B30261E08091F5023D
:1008D0000E94FA01CFB7F8948091E502811127C0F8
:1008E000E8EBF0E08491E4EAF0E09491E82FF0E0A6
:1008F000EE0FFF1FE057FF4FA591B491EC91E92354
:1009000021F461E08AE00E94FA0161E08AE00E943D
:10091000B3028CB580618CBD8CB580648CBD61E008
:100920008DE00E94B30261E08BE00E94B3028091EF
:10093000E5028F5F8093E502CFBF80E58CBD81E04B
:100940008DBD60E08CE00E948F0267E08AE00E942B
:100950008F0267E08BE00E948F0260E089E00E94D6
:100960008F0260E08FE00E948F0261E08CE00E94C5
:100970008F02C1E060E08C2F0E948F02CF5FC930F0
:10098000C9F787E090E09093EC028093EB0286E059
:1009900090E09093EE028093ED0285E090E09093DA
:1009A000F0028093EF021092F2021092F10282E0C4
:1009B00090E09093F4028093F30261E087E00E945C
:1009C000B30261E08091ED020E94B30261E0809188
:1009D000EF020E94B3020091F3021091F402C801E9
:1009E0000E94A609EC01FC01CF018C1B9D0B801716
:1009F000910714F41192F8CF0330110518F4CE01C9
:100A00000E942802209719F0CE010E94420A1092FB
:100A1000E6021092E7021092E8021092E9021092A8
:100A2000EA02DF91CF911F910F910895CF93DF9349
:100A3000CDB7DEB72F970FB6F894DEBF0FBECDBF90
:100A4000789484B5826084BD84B5816084BD85B5A9
:100A5000826085BD85B5816085BD80916E008160B5
:100A600080936E001092810080918100826080935B
:100A7000810080918100816080938100809180005D
:100A80008160809380008091B10084608093B10088
:100A90008091B00081608093B00080917A00846082
:100AA00080937A0080917A00826080937A008091AE
:100AB0007A00816080937A0080917A0080688093C8
:100AC0007A001092C1001092E1021092E20210929C
:100AD000E3021092E4021092A1021092A20210927C
:100AE000A3021092A4020E9409036B017C014B0136
:100AF0005C0128EB820E2BE0921EA11CB11C0E940F
:100B000009036C157D058E059F0528F0861697064E
:100B1000A806B906A0F70E94E4024B015C0158EE5A
:100B2000C52E53E0D52EE12CF12C0E94E402681969
:100B300079098A099B09683E734081059105A8F3EC
:100B400081E0C81AD108E108F10898EE890E93E017
:100B5000991EA11CB11CC114D104E104F10429F7B0
:100B6000E0911202F091130282E08083E0910E0284
:100B7000F0910F021082E0911002F091110280E1D9
:100B8000808310921A02E0911602F091170286E01B
:100B90008083E0911402F09115028081806180834E
:100BA000E0911402F0911502808188608083E091C9
:100BB0001402F0911502808180688083E091140214
:100BC000F091150280818F7D80830E9409036093DC
:100BD000A1027093A2028093A3029093A40240E129
:100BE00050E06CEC71E082E092E00E949B000E9479
:100BF00009036B017C014B015C01BAE08B0E911C77
:100C0000A11CB11C0E9409036C157D058E059F0572
:100C100028F086169706A806B906A0F781E080930B
:100C2000B50280E480937C0080917A008064809398
:100C30007A0080917A0086FDFCCF809178006091E7
:100C40007900762F682F072E000C880B990B611501
:100C500071058105910511F00E94D30862E082E0E0
:100C60000E94B30262E083E00E94B30262E084E08B
:100C70000E94B30262E088E00E94B302E0EAF1E081
:100C800080E1DF011D928A95E9F766246394712C57
:100C90003FE0832E912CCE0101967C0140E0A42EF2
:100CA00040E0B42E552453949DE0492EC090EB01B2
:100CB0000C2D10E0C3010C2C01C0880F0A94EAF738
:100CC00080958093E901F801E056FE4F8081809382
:100CD000EA018091F3029091F402039720F489EEE7
:100CE00091E00E942802DD24D394DC0C97E09C154F
:100CF00048F0F401E01BF10BE056FE4F60818D2DB2
:100D00000E948F028D2D87708093EB0180910102EC
:100D1000883008F453C0109201023090FF013092E5
:100D2000FE018091ED018093EE012090F901209267
:100D3000EF0184E00E94D1018C0181E001151105D1
:100D400009F080E08093FF0182E00E94D10121E060
:100D5000892B09F020E02093ED0183E00E94D1016E
:100D60006C0181E0C114D10409F080E08093F901A5
:100D7000E0910002E73010F5F0E0EF53F94F0C94EA
:100D8000A009C806EF0615075A079807B8073108E3
:100D90001092A001012B71F431100CC00E940903C4
:100DA0006093FA017093FB018093FC019093FD0125
:100DB00050920002CD2811F41092A10180910102FD
:100DC0008F5F80930102A114B10409F46FCF0E94D8
:100DD0000501882309F468CF0E94000065CF509276
:100DE000A0010E9409032091FA013091FB0140917A
:100DF000FC015091FD01621B730B840B950B683B4A
:100E00007B408105910550F01092FA011092FB0190
:100E10001092FC011092FD0182E038C0012B71F2AA
:100E20003110CCCF10920002C9CF8091F101811115
:100E300004C04092F0015092F1010E940903009118
:100E4000FA011091FB012091FC013091FD01601B22
:100E5000710B820B930B683E73408105910530F155
:100E60000E9409036093FA017093FB018093FC01D7
:100E70009093FD011091F001612F012E000C770B72
:100E80006B30710534F44092F00183E080930002EE
:100E900095CF83E0660F771F8A95E1F760507F4F0B
:100EA00085E00E948C0011501093F00182E0809345
:100EB000A00184CF83E08093A0010E9409032091C8
:100EC000E7023091E8024091E9025091EA02621B88
:100ED000730B840B950B683E73408105910578F088
:100EE0000E9409036093E7027093E8028093E9028D
:100EF0009093EA028091E6028F5F8093E602012BD5
:100F000081F431100EC084E0809300020E94090336
:100F10006093FA017093FB018093FC019093FD01B3
:100F20004DCFCD2809F04ACF211048CF86E0AECF73
:100F300084E08093A001012B31F0311004C095E0D2
:100F4000909300023BCF0E9409030091FA01109197
:100F5000FB012091FC013091FD01601B710B820BA4
:100F6000930B683B7B408105910508F05BCF26CF52
:100F7000B5E0B093A001D090E6021B861A861D86CC
:100F80001C861F861E860D2D10E04AE0B701C801A1
:100F90000E94DC08F70101900020E9F73197AF01CA
:100FA0004E195F09B701CE010A960E94150328E089
:100FB0002D1578F0B80163527E4FFB01019000209F
:100FC000E9F73197AF01461B570BCE010A960E94F5
:100FD00015038E859F859C012250310928173907FA
:100FE00020F4EA85FB853097B1F51092EC01ECEE28
:100FF000F1E0608166529C012150310928173907C0
:1010000020F4EA85FB85309749F51092EC01ECEE6F
:10101000F1E01081165288E0689FB0011124605001
:101020007F4F80E00E948C0098E0199FB00111244E
:1010300060507F4F88E00E948C008A859B850E94CB
:10104000420A8091FF01882309F4B8CE8091FE0105
:101050008111B4CEE1CEE20FF31FCBCFE20FF31F2D
:10106000D8CFA6E0A093A001012B09F4D9CEA6CE3B
:101070008F929F92AF92BF92CF92DF92EF92FF92A8
:10108000CF93DF93EC01688179818A819B8161151F
:1010900071058105910521F464E279ED8BE597E016
:1010A0002DE133EF41E050E00E94280949015A0147
:1010B0009B01AC01A7EAB1E40E9447096B017C01E6
:1010C000ACEEB4EFA50194010E945509C60ED71EDF
:1010D000E81EF91EF7FE06C081E0C81AD108E10833
:1010E00080E8F80AC882D982EA82FB82C701B60189
:1010F0009F77DF91CF91FF90EF90DF90CF90BF90DF
:10110000AF909F908F9008958F929F92AF92BF92D1
:10111000CF92DF92EF92FF926091B0017091B10196
:101120008091B2019091B30161157105810591051E
:1011300021F464E279ED8BE597E02DE133EF41E0B6
:1011400050E00E94280949015A019B01AC01A7EA1D
:10115000B1E40E9447096B017C01ACEEB4EFA5013C
:1011600094010E945509C60ED71EE81EF91EF7FE0F
:1011700006C081E0C81AD108E10880E8F80AC092E8
:10118000B001D092B101E092B201F092B301C70177
:10119000B6019F77FF90EF90DF90CF90BF90AF9018
:1011A0009F908F9008956093B0017093B1018093E8
:1011B000B2019093B3010895BB27FB015527AA27DD
:1011C000880F991FAA1FA41710F0A41B83955051D4
:1011D000B9F7A05DAA3308F0A95DA193009779F74C
:1011E000B111B1931192CB010C94F608DC01FC0112
:1011F000672F71917723E1F7329704C07C916D934B
:1012000070836291AE17BF07C8F30895A1E21A2E4A
:10121000AA1BBB1BFD010DC0AA1FBB1FEE1FFF1F9A
:10122000A217B307E407F50720F0A21BB30BE40BEA
:10123000F50B661F771F881F991F1A9469F7609531
:101240007095809590959B01AC01BD01CF010895EB
:10125000052E97FB1EF400940E943F0957FD07D00E
:101260000E94060907FC03D04EF40C943F095095E8
:101270004095309521953F4F4F4F5F4F0895909582
:101280008095709561957F4F8F4F9F4F08950E9475
:101290009109A59F900DB49F900DA49F800D911D65
:1012A00011240895B7FF0C9447090E944709821B37
:1012B000930B08952F923F924F925F926F927F927D
:1012C0008F929F92AF92BF92CF92DF92EF92FF9256
:1012D0000F931F93CF93DF93CDB7DEB7CA1BDB0B02
:1012E0000FB6F894DEBF0FBECDBF09942A883988A7
:1012F00048885F846E847D848C849B84AA84B984AE
:10130000C884DF80EE80FD800C811B81AA81B981B9
:10131000CE0FD11D0FB6F894DEBF0FBECDBFED01CD
:101320000895A29FB001B39FC001A39F700D811DBE
:101330001124911DB29F700D811D1124911D0895DE
:10134000EE0FFF1F0590F491E02D09940F931F936A
:10135000CF93DF938230910510F482E090E0E0912A
:10136000F902F091FA0230E020E0B0E0A0E030971E
:1013700099F42115310509F44AC0281B390B243092
:101380003105D8F58A819B816115710589F1FB01D1
:1013900093838283FE0111C04081518102811381B8
:1013A00048175907E0F04817590799F4109761F06A
:1013B00012960C93129713961C933296CF01DF91DD
:1013C000CF911F910F9108950093F9021093FA02A3
:1013D000F4CF2115310551F04217530738F0A90118
:1013E000DB019A01BD01DF01F801C1CFEF01F9CFA7
:1013F0009093FA028093F902CDCFFE01E20FF31F22
:10140000819391932250310939832883D7CF20913A
:10141000F7023091F802232B41F42091B60130916C
:10142000B7013093F8022093F7022091B401309174
:10143000B5012115310541F42DB73EB74091B801F2
:101440005091B901241B350BE091F702F091F8029D
:10145000E217F307A0F42E1B3F0B2817390778F08B
:10146000AC014E5F5F4F2417350748F04E0F5F1FEA
:101470005093F8024093F702819391939FCFF0E04D
:10148000E0E09CCFCF93DF930097E9F0FC01329727
:1014900013821282A091F902B091FA02ED0130E0BC
:1014A00020E01097A1F420813181820F931F2091B9
:1014B000F7023091F8022817390709F061C0F0935C
:1014C000F802E093F702DF91CF910895EA01CE1779
:1014D000DF07E8F54A815B819E0141155105B1F7AF
:1014E000E901FB83EA8349915991C40FD51FEC1799
:1014F000FD0761F4808191810296840F951FE901B7
:1015000099838883828193819B838A83F0E0E0E0E2
:1015100012968D919C9113970097B9F52D913C915E
:101520001197CD010296820F931F2091F7023091FF
:10153000F8022817390739F6309751F51092FA0258
:101540001092F902B093F802A093F702BCCFD383B4
:10155000C28340815181840F951FC817D90761F458
:101560004E5F5F4F88819981480F591F5183408397
:101570008A819B81938382832115310509F0B0CF45
:10158000F093FA02E093F9029ECFFD01DC01C0CF97
:1015900013821282D7CFB0E0A0E0E1EDFAE00C9424
:1015A0005C098C01009751F4CB010E94A6098C01C3
:1015B000C801CDB7DEB7E0E10C947809FC01E60F75
:1015C000F71F9C0122503109E217F30708F49DC070
:1015D000D901CD91DC911197C617D70798F0C53086
:1015E000D10530F3CE0104978617970708F3C61B81
:1015F000D70B2297C193D1936D937C93CF010E9417
:10160000420AD6CF5B01AC1ABD0A4C018C0E9D1E5E
:10161000A091F902B091FA02512C412CF12CE12C4D
:10162000109731F58091F7029091F802881599058D
:1016300009F05CC04616570608F058C08091B40106
:101640009091B501009741F48DB79EB74091B801D4
:101650005091B901841B950BE817F90708F055C0A4
:10166000F093F802E093F702F90171836083A0CF51
:101670008D919C91119712966C90129713967C9075
:101680001397A815B90559F56C0142E0C40ED11C99
:10169000CA14DB0420F1AC014A195B09DA01129685
:1016A000159780F06282738251834083D9016D93D4
:1016B0007C93E114F10471F0D7011396FC93EE933F
:1016C000129776CF22968C0F9D1FF901918380830C
:1016D000F301EFCFF093FA02E093F90269CF4816D5
:1016E000590608F42C017D01D3019ACFCB010E9449
:1016F000A6097C01009749F0AE01B8010E94880B51
:10170000C8010E94420A870153CF10E000E050CF89
:10171000FB01DC0102C001900D9241505040D8F70E
:101720000895FB01DC0101900D920020E1F708957E
:04173000F894FFCF5B
:101734000066FFFF7E3C1800007E40404E427E0063
:10174400000000007E000000007E40407E027E001B
:10175400007E40407E407E00003E404040403E00CF
:10176400007C101010107C00003C424242423C00BD
:10177400004262524A464200003C42427E424200DB
:10178400007E424242427E000008182808083C00BD
:10179400003C020204083E00007E027E02027E003B
:1017A400004242427E020200007E40407E027E00F1
:1017B400007E407E42427E00007C043E040404001D
:1017C400007E423C42427E00007E427E02020200D3
:1017D4000102030405060708090A0B0C0D0E0F107D
:1017E400010000000000FB028000000000003B013B
:1017F4009B00C8008801F900D700EB00564D445007
:10180400565F317C315F564D4450560A003000001B
:00000001FF
