:1000000002C1000030C100002EC100002CC1000060
:100010002AC1000028C1000026C1000024C1000040
:1000200022C1000020C100001EC100001CC1000050
:100030001AC1000018C1000016C1000014C1000060
:1000400012C1000010C100000EC100000CC1000070
:100050000AC1000008C1000006C1000064C600001B
:1000600002C100002AC60000FFC50000FCC000005D
:10007000FAC00000F8C00000F6C00000F4C00000A4
:10008000F2C00000F0C00000EEC00000ECC00000B4
:10009000EAC00000E8C00000E6C00000E4C00000C4
:1000A000E2C00000E0C00000DEC00000DCC00000D4
:1000B000DAC00000D8C00000D6C00000D4C00000E4
:1000C000D2C00000D0C00000CEC00000CCC00000F4
:1000D000CAC00000C8C00000C6C00000C4C0000004
:1000E000C2C0000000002200250028002B002E00C6
:1000F0003100340002010000050108010B0100007D
:1001000020002300260029002C002F0032000001CF
:10011000000003010601090100000A0B02090C0D91
:100120000E080703040100000000000000000000AA
:1001300000000000000000000000000000000000BF
:10014000000000001211100000000000000000007C
:10015000000000000000000000000000000000009F
:100160002100240027002A002D0030003300010167
:100170000000040107010A010102102020080810F4
:100180002040102040800201020108040201010207
:1001900004081020408080402010080402018004E0
:1001A000020180402010080402010804020101023B
:1001B000040810204080010204081020408005053A
:1001C0000505070508080808020202020A0A0808CD
:1001D00004040404010101010101010103030303FB
:1001E00003030303040707070C0C0C0C0C0C0C0C8A
:1001F0000202020206060606060606060B0B0B0B9B
:100200000B0B0B0BDD0611241FBECFEFD1E2DEBFBF
:10021000CDBF00E00CBF12E0A0E0B2E0EEE0FDE1F7
:1002200000E00BBF02C007900D92A63DB107D9F7C1
:1002300023E0A6EDB2E001C01D92AA3BB207E1F7B0
:1002400011E0C3E0D1E000E006C021970109802F52
:10025000FE010E946C0CC230D10780E00807A9F7AC
:100260000FD70C94850ECCCECF93DF9392E0960FF0
:10027000FA01462F062E000C550B4E1B5F0B282F44
:10028000332721950CF43095E9019A012E0F3F1F79
:1002900021313105CCF467FD13C0208130E087FFA8
:1002A00016C00C2E01C0220F0A94EAF7A62F062EC4
:1002B000000CBB0BAA55BD4F20953C9123232C93DA
:1002C0006F5F31966913E1CFDF91CF910895082ECA
:1002D00002C0359527950A94E2F7E8CF90E0FB013C
:1002E0002191BF01E82FE90FF0E0EA55FD4F20838F
:1002F0009F5F9830A1F70895CF93DF9372E0760F58
:10030000FA01462F062E000C550B4E1B5F0B282FB3
:10031000332721950CF43095E9019A012E0F3F1FE8
:1003200021313105C4F467FD12C0208130E087FF20
:1003300015C00C2E01C0220F0A94EAF7A62F062E34
:10034000000CBB0BAA55BD4F9C91292B2C936F5FC2
:1003500031966713E2CFDF91CF910895082E02C046
:10036000359527950A94E2F7E9CF80919B03883071
:100370003CF460919C0361311CF442E052E0BCCF3C
:100380000895CF92DF92EF92FF920F931F93DA01BD
:1003900090E0062E000C770B7B01E41AF50AE0E1F1
:1003A000F0E0E81BF10987FDF39597012A0F3B1F49
:1003B00037FD34C0A92FB0E06A0F7B1FFB01EA555F
:1003C000FD4FA40FB51F60E170E0681B710987FD48
:1003D00073959F01265A3240213131059CF1FA0173
:1003E000E90FF11D20E130E0281B310987FD33952D
:1003F000923009F44BC0419150E070E060E0022E71
:1004000004C0440F551F661F771F0A94D2F7452B6F
:10041000462B472B09F042C09F5FEACF923051F242
:100420000D9110E030E020E00E2E04C0000F111FEF
:10043000221F331F0A94D2F7012B022B032B71F5D5
:100440009F5FB3CF923011F1C190D12CF12CE12CF0
:100450007601DD24CC242D91022F10E030E020E045
:10046000062E04C0000F111F221F331F0A94D2F75B
:10047000CC24CA94DC2CFD2C0C211D212E213F21E3
:10048000012B022B032B51F49F5FA3CF80E01F9120
:100490000F91FF90EF90DF90CF90089581E0F7CF1C
:1004A000CF93C82F80919B0388303CF460919C03CC
:1004B00061311CF442E052E0D7DE80919B03C80F0B
:1004C000C63020F052DF81E0CF91089542E052E043
:1004D00060919C038C2F55DF811103C0C0939B0357
:1004E000F1CF80E0F1CFAF92BF92CF92DF92EF9247
:1004F000FF920F931F93CF93DF936C017B018B01CE
:10050000040F151FEB015E01AE18BF08C017D1071D
:1005100059F06991D601ED91FC910190F081E02DA7
:10052000C6011995892B79F7C501DF91CF911F91EC
:100530000F91FF90EF90DF90CF90BF90AF90089514
:10054000FC01538D448D252F30E0842F90E0821BD9
:10055000930B541710F0CF96089501970895FC015E
:10056000918D828D981761F0A28DAE0FBF2FB11DB6
:100570005D968C91928D9F5F9F73928F90E008950E
:100580008FEF9FEF0895FC01918D828D981731F0C8
:10059000828DE80FF11D858D90E008958FEF9FEF1C
:1005A0000895FC01918D228D892F90E0805C9F4FF2
:1005B000821B91098F739927089588EF92E0F1DFEC
:1005C00021E0892B09F420E0822F0895FC01A48DFD
:1005D000A80FB92FB11DA35ABF4F2C91848D90E065
:1005E00001968F739927848FA689B7892C93A08948
:1005F000B1898C91837080648C93938D848D9813D2
:1006000006C00288F389E02D80818F7D8083089564
:10061000EF92FF920F931F93CF93DF93EC0181E052
:10062000888F9B8D8C8D98131AC0E889F9898081F9
:1006300085FF15C09FB7F894EE89FF896083E8892C
:10064000F98980818370806480839FBF81E090E01E
:10065000DF91CF911F910F91FF90EF900895F62EAB
:100660000B8D10E00F5F1F4F0F731127E02E8C8D45
:100670008E110BC00FB607FCFACFE889F98980818B
:1006800085FFF5CFCE01A2DFF2CFEB8DEC0FFD2F72
:10069000F11DE35AFF4FF0829FB7F8940B8FEA8960
:1006A000FB8980818062D0CFCF93DF93EC01888D6E
:1006B0008823B1F0AA89BB89E889F9898C9185FDE5
:1006C00003C0808186FD0CC00FB607FCF7CF8C916C
:1006D00085FFF2CF808185FFEDCFCE0177DFEACFB6
:1006E000DF91CF91089580E090E0892B21F065DFC4
:1006F00081110E94000080E090E0892B49F080E0A9
:1007000090E0892B29F00E94000081110E940000D6
:1007100080E090E0892B49F080E090E0892B29F07F
:100720000E94000081110E94000080E090E0892B6F
:1007300049F080E090E0892B29F00E9400008111AF
:100740000C94000008958150823108F05AC0E82FBF
:10075000F0E08827E155FC4F8F4F0C946C0CCF03D1
:10076000D303C103C703CB030104D603DC03E003B7
:10077000E603EA03EE03F403F8030104FC030204B6
:100780000604809180008F77809380000895809187
:1007900080008F7DF9CF80918000877FF5CF84B571
:1007A0008F7784BD089584B58F7DFBCF8091B00095
:1007B0008F778093B00008958091B0008F7DF9CF3E
:1007C000809190008F7780939000089580919000A1
:1007D0008F7DF9CF80919000877FF5CF8091A00029
:1007E0008F778093A00008958091A0008F7DF9CF2E
:1007F0008091A000877FF5CF809120018F77809333
:1008000020010895809120018F7DF9CF80912001F2
:10081000877FF5CFCF93DF93282F30E0F901E85E93
:10082000FE4F8491F901E858FE4FD491F901E2544A
:10083000FE4FC491CC2399F0811185DFEC2FF0E0BD
:10084000EE0FFF1FE250FF4FA591B491EC91ED2305
:1008500081E090E009F480E0DF91CF91089580E09D
:1008600090E0FACF1F93CF93DF93282F30E0F90168
:10087000E85EFE4F8491F901E858FE4FD491F901EA
:10088000E254FE4FC491CC23A1F0162F81115BDFFF
:10089000EC2FF0E0EE0FFF1FEC51FF4FA591B4914C
:1008A0008FB7F894EC91111108C0D095DE23DC933A
:1008B0008FBFDF91CF911F910895DE2BF8CF1F934B
:1008C000CF93DF93C82F162F60E08091B403CADF67
:1008D000CEBD00000DB407FEFDCFCEB5D0E0DC2FBD
:1008E000CC271EBD00000DB407FEFDCF8EB5C82B72
:1008F00061E08091B403B6DFCE01DF91CF911F910B
:100900000895CF93DF9390E0FC01E858FE4F2491C7
:1009100082549E4FFC0184918823D1F090E0880F8F
:10092000991FFC01E25AFE4FA591B491FC01EC51D4
:10093000FF4FC591D491623071F49FB7F8943C9108
:10094000822F809583238C93E8812E2B28839FBF51
:10095000DF91CF9108958FB7F894EC912E2B2C93C3
:100960008FBFF6CF2FB7F8946091DB027091DC0255
:100970008091DD029091DE022FBF0895FC018081FD
:10098000883034F4618161311CF440E052E06CCC79
:1009900008951F93CF93DF93E5DFC6E9D3E0698322
:1009A0007A838B839C831092F7021092F60288EC74
:1009B00090E09093A5028093A4028DE993E0DEDF9E
:1009C00011E0198780EA93E0D9DF1C8783EA93E07E
:1009D000D5DF1F8786EA93E0D1DF1A8B188283E088
:1009E0008D83DF91CF911F910895FC018081883024
:1009F00034F4618161311CF440E052E07DCC089513
:100A0000CF93DF93EC0188819981009711F00E94C8
:100A1000100D198218821D821C821B821A82DF919E
:100A2000CF910895E6EAF2E081E1DF011D928A9517
:100A3000E9F708950F931F93CF93DF93EC0188811B
:100A40009981009759F02A813B812617370730F0AA
:100A500081E0DF91CF911F910F9108958B016F5F1E
:100A60007F4F0E94990D009759F0998388831B83CB
:100A70000A832C813D81232B59F7FC011082E8CF9A
:100A800080E0E7CFEF92FF920F931F93CF93DF9316
:100A9000EC017B018A01BA01CDDF81110AC0CE01D0
:100AA000AFDFCE01DF91CF911F910F91FF90EF90BB
:100AB00008951D830C83B701888199810E947E0E61
:100AC000F0CFEF92FF920F931F93CF93DF93CDB7A9
:100AD000DEB765970FB6F894DEBF0FBECDBF80912D
:100AE000A903882309F4A5C0F0909603198A188AEF
:100AF0001B8A1A8A1D8A1C8A4AE08E010F5F1F4FCB
:100B0000B8018F2D90E056D6F80101900020E9F74A
:100B10003197AF01401B510BB801CE014096B2DFB7
:100B200088E08F1508F44EC01A8219821C821B823D
:100B30001E821D8241E050E063ED72E0C801A2DF39
:100B40001B861A861D861C861F861E8669817A81F1
:100B50006115710529F04D815E81CE010A9692DF03
:100B6000E888F988E114F10409F470C00C891D8942
:100B700001151105B1F08E859F85080F191FB80169
:100B8000CE010A9657DF882309F460C02A853B8589
:100B90008E859F85B701820F931F0E947E0E1F874F
:100BA0000E876A857B856115710509F453C04E85F2
:100BB0005F85CE01409666DF8A859B8531D7898126
:100BC0009A812ED72C893D89C901029782179307F4
:100BD00028F4E889F989309709F040C01092F502AD
:100BE000E5EFF2E080818652A90141505109421798
:100BF000530720F4E889F989309799F51092F502A6
:100C0000E5EFF2E01081165298E0899FB0011124BF
:100C10006C5F7D4F80E062DB88E0189FB00111249B
:100C20006C5F7D4F88E05ADB88899989F9D61092EC
:100C3000A90365960FB6F894DEBF0FBECDBFDF9156
:100C4000CF911F910F91FF90EF900895CE010A96DA
:100C5000D7DEA7CFCE014096D3DEAECFE80FF91F87
:100C6000C1CFE40FF51FCECF1F920F920FB60F9298
:100C700011240BB60F922F933F934F935F936F9373
:100C80007F938F939F93AF93BF93EF93FF9388EFDF
:100C900092E09CDCFF91EF91BF91AF919F918F917A
:100CA0007F916F915F914F913F912F910F900BBE6C
:100CB0000F900FBE0F901F9018951F920F920FB6B6
:100CC0000F9211240BB60F922F938F939F93EF9354
:100CD000FF93E0910803F09109038081E0910E03F6
:100CE000F0910F0382FD1DC09081809111038F5FF1
:100CF0008F7320911203821741F0E0911103F0E00D
:100D0000E850FD4F958F80931103FF91EF919F91D4
:100D10008F912F910F900BBE0F900FBE0F901F90D1
:100D200018958081F2CF1F920F920FB60F92112467
:100D30002F933F938F939F93AF93BF938091DB0249
:100D40009091DC02A091DD02B091DE023091DA02D6
:100D500023E0230F2D3758F50196A11DB11D2093D7
:100D6000DA028093DB029093DC02A093DD02B09361
:100D7000DE028091D6029091D702A091D802B09164
:100D8000D9020196A11DB11D8093D6029093D7027E
:100D9000A093D802B093D902BF91AF919F918F9148
:100DA0003F912F910F900FBE0F901F90189526E83E
:100DB000230F0296A11DB11DD2CF5F926F927F9239
:100DC0008F929F92AF92BF92CF92DF92EF92FF925B
:100DD0000F931F93CF93DF931092FB021092FA02AE
:100DE00088EE93E0A0E0B0E08093FC029093FD02D7
:100DF000A093FE02B093FF0285EC92E09093F9027B
:100E00008093F80285EC90E09093050380930403AF
:100E100084EC90E0909307038093060380EC90E0CD
:100E2000909309038093080381EC90E090930B0367
:100E300080930A0382EC90E090930D0380930C035F
:100E400086EC90E090930F0380930E0310921103B1
:100E500010921203109213031092140385E390E092
:100E60009093B5038093B40361E04BDD61E083E3CD
:100E700048DD61E084E345DD61E08091B403F2DCAC
:100E8000CFB7F89480919503811123C0E3EFF1E08F
:100E90008491EDEAF1E09491E82FF0E0EE0FFF1F6E
:100EA000E25AFE4FA591B491EC91E92319F461E067
:100EB00085E3D8DC61E085E324DD8CB580618CBD01
:100EC0008CB580648CBD61E084E31BDD61E083E36D
:100ED00018DD809195038F5F80939503CFBF80E5E8
:100EE0008CBD81E08DBD60E08CE0E9DC67E08AE0EC
:100EF000E6DC67E08BE0E3DC60E089E0E0DC60E01A
:100F00008FE0DDDC61E08CE0DADCC1E060E08C2FBA
:100F1000D6DCCF5FC930D1F787E090E09093AB0388
:100F20008093AA0386E090E09093AD038093AC0396
:100F300085E090E09093AF038093AE031092B103ED
:100F40001092B00382E090E09093B3038093B203D9
:100F500061E087E0D6DC61E08091AC03D2DC61E047
:100F60008091AE03CEDC0091B2031091B303C801AF
:100F7000BBD4EC01FC01CF018C1B9D0B80179107AA
:100F800014F41192F8CF0330110508F04AC060E064
:100F90008091AE0367DC0091B2031091B303580156
:100FA00081E0A81AB1080C0F1D1F87E0882E912C34
:100FB000B7FC33C0F801C2908F015090B00370901D
:100FC000AC036090AA03F12CE12CD12C51101BC072
:100FD000B6010E2C02C0759567950A94E2F7617010
:100FE000862D40DC61E0872D3DDC60E0872D3ADC1A
:100FF000FFEFEF1AFF0A88E0E816F10439F7E1E0A5
:10100000AE1AB108D5CFC4018E199F09B60102C02E
:10101000759567958A95E2F7E2CF61E08091AE031E
:1010200021DC209711F0CE01FBD410929603109290
:101030009703109298031092990310929A038EE0EE
:1010400080939C0383E080939B0381E08093A903BA
:1010500080939F038093A2038093A5038093A803AA
:10106000DF91CF911F910F91FF90EF90DF90CF9084
:10107000BF90AF909F908F907F906F905F900895FA
:10108000789484B5826084BD84B5816084BD85B563
:10109000826085BD85B5816085BD80916E0081606F
:1010A00080936E0010928100809181008260809315
:1010B0008100809181008160809381008091800017
:1010C0008160809380008091B10084608093B10042
:1010D0008091B00081608093B00080919100826027
:1010E0008093910080919100816080939100809124
:1010F00090008160809390008091A1008260809335
:10110000A1008091A10081608093A1008091A00046
:1011100081608093A00080912101826080932101F1
:101120008091210181608093210180912001816063
:101130008093200180917A00846080937A0080916E
:101140007A00826080937A0080917A008160809337
:101150007A0080917A00806880937A001092C100B2
:1011600080917B00877F80937B0080E480937C006C
:1011700080917A00806480937A0080917A0086FD65
:10118000FCCF8091780060917900762F682F072E30
:10119000000C880B990B611571058105910509F00B
:1011A00000D362E082E0ADDB62E083E0AADB62E0D4
:1011B00084E0A7DB62E088E0A4DB8FEF87B981B928
:1011C00031DCE0910803F091090382E08083E09133
:1011D0000403F09105031082E0910603F0910703E8
:1011E0008FEC808310921003E0910C03F0910D03BB
:1011F00086E08083E0910A03F0910B038081806197
:101200008083E0910A03F0910B03808188608083E2
:10121000E0910A03F0910B03808180688083E09164
:101220000A03F0910B0380818F7D8083FF24F39468
:1012300096E0692E25E0222E8091DF0221E030E049
:1012400002C0220F331F8A95E2F7C901809582B947
:10125000E091DF02F0E0EA55FD4F808188B980918E
:10126000DF02C1E0C80F883048F4EFE0F0E0E81B8F
:10127000F109EA55FD4F60818C2F21DBC770C093C7
:10128000DF0283EB9BE00197F1F78091F402883055
:1012900008F451C01092F4021091F2021093F1027E
:1012A000E090E002E092E1027090EC027092E202C3
:1012B00084E0B0DAEC0181E0209709F080E08093CF
:1012C000F20282E0A7DA2C0181E04114510409F016
:1012D00080E08093E00283E09DDA5C0181E0A1146C
:1012E000B10409F080E08093EC02E091F302E73072
:1012F00010F5F0E08827E158F64F8F4FEDC28609D0
:10130000A209C8092D0AF80A1D0B2A0B1092A60281
:10131000CD2B69F411110BC025DB6093ED027093A6
:10132000EE028093EF029093F002F092F302AB286A
:1013300011F41092A7028091F4028F5F8093F4025F
:10134000D2D97ACFF092A6020DDB8090ED02909078
:10135000EE02A090EF02B090F002681979098A09B4
:101360009B09683B7B408105910558F01092ED0286
:101370001092EE021092EF021092F00253DB82E024
:1013800058C0CD2BC1F21111D6CF1092F302D3CF9A
:101390008091E402811105C08DE08093E302F09218
:1013A000E402E0DA0091ED021091EE022091EF02EA
:1013B0003091F002601B710B820B930B683E7340FF
:1013C0008105910508F445C0CDDA6093ED02709374
:1013D000EE028093EF029093F002C091E3026C2F33
:1013E0000C2E000C770B6B30710534F5FDE0F0939B
:1013F000E30218DB80919F03811103C08DE993E024
:10140000F4DA8091A203811103C080EA93E0EDDA5F
:101410008091A503811103C083EA93E0E6DA80910D
:10142000A803811103C086EA93E0DFDA0E94B501C8
:1014300083E08093F3027FCF83E0660F771F8A9566
:10144000E1F76C5F7D4F85E00E946E01C150C09353
:10145000E30282E08093A6026ECFCD2B81F41111BE
:101460000EC080DA6093ED027093EE028093EF027B
:101470009093F002D7DAF092A90384E0DACF72DA1F
:1014800000919703109198032091990330919A034A
:10149000601B710B820B930B683E734081059105B5
:1014A000F0F060DA60939703709398038093990348
:1014B00090939A03809196038F5F809396036AE0DE
:1014C000FFD191110CC08091A4029091A5028A31A4
:1014D00091052CF049979093A5028093A40215D111
:1014E00022E030E040E050E08ED16C5F06E913E08E
:1014F000F801CFEF80E09185911137C09085961764
:10150000ACF5C091F602D091F7022196D093F70284
:10151000C093F6028090A4029090A502F801818504
:10152000811142C0C815D9050CF43EC06801F7E02E
:10153000CF0ED11CC60122DAF80130843394FFE0CB
:10154000F3150CF494C02CE0231554F540E052E060
:10155000632DF80187810E94C101882309F162DAB5
:10156000F092A9036092F302E6CEC82F33968F5F04
:10157000843009F0C0CFCF3F21F2C7D033E0C3029F
:10158000E0011124C356DC4F25E030E040E050E09C
:101590003AD168838FEF89831A82CE0126DAB1CFE0
:1015A000F8013086C60121DA0D5F1F4F22EA33E0D1
:1015B0002017310709F0AECFC815D90524F01092D5
:1015C000F7021092F602452859F0AB2809F0B3CE85
:1015D0007110B1CE81E00E9450028111ACCEBFCF1C
:1015E000E110F3CF8FEF0E9450028111EECFB7CF01
:1015F00084E08093A60265DA8091F202811107C02F
:101600008091F102811103C02092F30294CEAAD9F5
:101610000091ED021091EE022091EF023091F00264
:10162000601B710B820B930B683B7B40810591051E
:1016300008F481CEF7D9ADD9A8CE2092A60241DA1E
:101640008091F202882309F476CE8091F102811113
:1016500072CE94CE6092A60234DA8091F202882390
:1016600009F469CE8091F102811165CEE3CFC60104
:1016700085D9F801F18698CF8F929F92AF92BF9251
:10168000CF92DF92EF92FF92CF93DF93EC016881CC
:1016900079818A819B81611571058105910521F40C
:1016A00064E279ED8BE597E02DE133EF41E050E026
:1016B000AAD049015A019B01AC01A7EAB1E4BFD00D
:1016C0006B017C01ACEEB4EFA5019401C4D0C60E51
:1016D000D71EE81EF91EF7FE06C081E0C81AD10821
:1016E000E10880E8F80AC882D982EA82FB82C70151
:1016F000B6019F77DF91CF91FF90EF90DF90CF9071
:10170000BF90AF909F908F9008958F929F92AF92CD
:10171000BF92CF92DF92EF92FF926091B7027091E9
:10172000B8028091B9029091BA02611571058105E4
:10173000910521F464E279ED8BE597E02DE133EF3B
:1017400041E050E060D049015A019B01AC01A7EA99
:10175000B1E475D06B017C01ACEEB4EFA50194014E
:101760007AD0C60ED71EE81EF91EF7FE06C081E02D
:10177000C81AD108E10880E8F80AC092B702D092EE
:10178000B802E092B902F092BA02C701B6019F779F
:10179000FF90EF90DF90CF90BF90AF909F908F9091
:1017A00008956093B7027093B8028093B902909342
:1017B000BA020895BB27FB015527AA27880F991F56
:1017C000AA1FA41710F0A41B83955051B9F7A05D70
:1017D000AA3308F0A95DA193009779F7B111B193ED
:1017E0001192CB0100C0DC01FC01672F71917723BE
:1017F000E1F7329704C07C916D9370836291AE17CC
:10180000BF07C8F30895052E97FB16F400940FD078
:1018100057FD05D024D007FC02D046F408C05095EF
:101820004095309521953F4F4F4F5F4F08959095CC
:101830008095709561957F4F8F4F9F4F089531D060
:10184000A59F900DB49F900DA49F800D911D112414
:101850000895B7FFF4CFF3DF821B930B0895A1E245
:101860001A2EAA1BBB1BFD010DC0AA1FBB1FEE1F1A
:10187000FF1FA217B307E407F50720F0A21BB30B65
:10188000E40BF50B661F771F881F991F1A9469F7E1
:1018900060957095809590959B01AC01BD01CF013D
:1018A0000895A29FB001B39FC001A39F700D811D39
:1018B0001124911DB29F700D811D1124911D089559
:1018C000991B79E004C0991F961708F0961B881F92
:1018D0007A95C9F780950895EE0FFF1F881F8BBF7B
:1018E0000790F691E02D19940F931F93CF93DF93F8
:1018F0008230910510F482E090E0E091B803F0911D
:10190000B90330E020E0B0E0A0E0309799F4211571
:10191000310509F44AC0281B390B24303105D8F5AC
:101920008A819B816115710589F1FB019383828313
:10193000FE0111C04081518102811381481759076E
:10194000E0F04817590799F4109761F012960C933C
:10195000129713961C933296CF01DF91CF911F916E
:101960000F9108950093B8031093B903F4CF211594
:10197000310551F04217530738F0A901DB019A01F4
:10198000BD01DF01F801C1CFEF01F9CF9093B90399
:101990008093B803CDCFFE01E20FF31F81939193A3
:1019A0002250310939832883D7CF2091B603309153
:1019B000B703232B41F42091BD023091BE02309336
:1019C000B7032093B6032091BB023091BC022115CE
:1019D000310541F42DB73EB74091BF025091C0028E
:1019E000241B350BE091B603F091B703E217F30720
:1019F000A0F42E1B3F0B2817390778F0AC014E5F7F
:101A00005F4F2417350748F04E0F5F1F5093B70301
:101A10004093B603819391939FCFF0E0E0E09CCF99
:101A2000CF93DF930097E9F0FC0132971382128283
:101A3000A091B803B091B903ED0130E020E0109718
:101A4000A1F420813181820F931F2091B603309140
:101A5000B7032817390709F061C0F093B703E09383
:101A6000B603DF91CF910895EA01CE17DF07E8F5BD
:101A70004A815B819E0141155105B1F7E901FB8364
:101A8000EA8349915991C40FD51FEC17FD0761F402
:101A9000808191810296840F951FE9019983888343
:101AA000828193819B838A83F0E0E0E012968D919E
:101AB0009C9113970097B9F52D913C911197CD0109
:101AC0000296820F931F2091B6033091B703281717
:101AD000390739F6309751F51092B9031092B803CF
:101AE000B093B703A093B603BCCFD383C283408126
:101AF0005181840F951FC817D90761F44E5F5F4F5E
:101B000088819981480F591F518340838A819B8125
:101B1000938382832115310509F0B0CFF093B90387
:101B2000E093B8039ECFFD01DC01C0CF1382128287
:101B3000D7CF4F925F926F927F928F929F92AF9288
:101B4000BF92CF92DF92EF92FF920F931F93CF93AA
:101B5000DF938C01009791F4CB01DF91CF911F911E
:101B60000F91FF90EF90DF90CF90BF90AF909F903C
:101B70008F907F906F905F904F90B6CEFC01E60FF4
:101B8000F71F9C0122503109E217F30708F4AAC09D
:101B9000D901CD91DC911197C617D70718F1C5303F
:101BA000D10570F0CE0104978617970748F0C61B41
:101BB000D70B2297C193D1936D937C93CF0130DFE4
:101BC000C801DF91CF911F910F91FF90EF90DF90AF
:101BD000CF90BF90AF909F908F907F906F905F90CD
:101BE0004F9008955B01AC1ABD0A4C018C0E9D1EEE
:101BF000A091B803B091B903512C412CF12CE12CE8
:101C0000109731F58091B6039091B7038815990527
:101C100009F05CC04616570608F058C08091BB0218
:101C20009091BC02009741F48DB79EB74091BF02DE
:101C30005091C002841B950BE817F90708F052C0B9
:101C4000F093B703E093B603F90171836083B8CFD3
:101C50008D919C91119712966C90129713967C908F
:101C60001397A815B90559F56C0142E0C40ED11CB3
:101C7000CA14DB0420F1AC014A195B09DA0112969F
:101C8000159780F06282738251834083D9016D93EE
:101C90007C93E114F10471F0D7011396FC93EE9359
:101CA00012978ECF22968C0F9D1FF901918380830E
:101CB000F301EFCFF093B903E093B80381CF481657
:101CC000590608F42C017D01D3019ACFCB010CDE1B
:101CD0007C01009739F0AE01B80107D0C801A0DE41
:101CE00087016ECF10E000E06BCFFB01DC0102C08A
:101CF00001900D9241505040D8F70895FB01DC014E
:0E1D000001900D920020E1F70895F894FFCFB6
:101D0E00E04040E00066FFFF7E3C1800007E404051
:101D1E004E427E00000000007E000000007E40402B
:101D2E007E027E00007E40407E407E00003E4040AF
:101D3E0040403E00007C101010107C00003C4242DF
:101D4E0042423C00004262524A464200003C42423D
:101D5E007E424200007E424242427E000008182827
:101D6E0008083C00003C020204083E00007E027E91
:101D7E0002027E00004242427E020200007E40408D
:101D8E007E027E00007E407E42427E00007C043E4B
:101D9E0004040400007E423C42427E00007E427EED
:101DAE0002020200C800FFFEFDFCFBFAF9F8F7F68E
:101DBE00F5F4F3F2F1F0EF010000000000BA038039
:101DCE00000000000008037302A0025403D102AF0A
:061DDE0002C30230000008
:00000001FF
