:100000000C9469000C9491000C9491000C94910054
:100010000C9491000C9491000C9491000C9491001C
:100020000C9491000C9491000C9491000C9491000C
:100030000C9491000C9491000C9491000C949100FC
:100040000C9437020C9491000C9491000C94910044
:100050000C9491000C9491000C9491000C949100DC
:100060000C9491000C94910082039A03C20307043C
:1000700049046B04010500000000240027002A0049
:1000800000000000250028002B00000000002300D5
:1000900026002900040404040404040402020202E9
:1000A000020203030303030301020408102040803B
:1000B00001020408102001020408102000000008BA
:1000C000000201000003040700000000000000001F
:1000D000130511241FBECFEFD8E0DEBFCDBF11E066
:1000E000A0E0B1E0ECE6F2E102C005900D92AC3B7D
:1000F000B107D9F721E0ACEBB1E001C01D92A43FFC
:10010000B207E1F710E0C9E6D0E004C02197FE0194
:100110000E943707C836D107C9F70E9481020C94A4
:1001200034090C94000090E0282F082E000C330BAB
:10013000261B370BA901460F571F4031510564F4A8
:10014000FB014191BF01E82FE90FF0E0E056FE4FBF
:1001500040839F5F983071F70895833081F028F4D1
:10016000813099F08230A1F008958730A9F088306D
:10017000B9F08430D1F4809180008F7D03C08091EC
:1001800080008F7780938000089584B58F7702C0B8
:1001900084B58F7D84BD08958091B0008F7703C0B2
:1001A0008091B0008F7D8093B0000895CF93DF934E
:1001B000282F30E0F901E454FF4F8491F901E8550C
:1001C000FF4FD491F901EC56FF4FC491CC2391F02D
:1001D00081110E94AD00EC2FF0E0EE0FFF1FE657FB
:1001E000FF4FA591B491EC91ED2381E090E021F4D3
:1001F00080E002C080E090E0DF91CF9108951F93EE
:10020000CF93DF93282F30E0F901E454FF4F84911E
:10021000F901E855FF4FD491F901EC56FF4FC49115
:10022000CC23C1F0162F81110E94AD00EC2FF0E01D
:10023000EE0FFF1FE058FF4FA591B4919FB7F894C0
:10024000111104C08C91D095D82302C0EC91DE2B03
:10025000DC939FBFDF91CF911F9108957F928F9282
:100260009F92AF92BF92CF92DF92EF92FF920F9345
:100270001F93CF93DF93EC0160E08091EA010E942D
:10028000FF008091EE019091EF016C0121E0C21A14
:10029000D108C80FD91F87E0A82EB12CD7FC30C0D9
:1002A000EA907090EC019090E8018090E60107E000
:1002B00010E0F12C71100AC0C501801B910BB70131
:1002C00002C0759567958A95E2F707C0B701002EC1
:1002D00002C0759567950A94E2F76170882D0E94B7
:1002E000FF0061E0892D0E94FF0060E0892D0E94DF
:1002F000FF0001501109F0F621E0C21AD108CECF5B
:1003000061E08091EA01DF91CF911F910F91FF9001
:10031000EF90DF90CF90BF90AF909F908F907F90A5
:100320000C94FF001F93CF93DF93C82F162F60E02C
:100330008091E4010E94FF00CEBD00000DB407FED5
:10034000FDCFCEB5D0E0DC2FCC271EBD00000DB414
:1003500007FEFDCF8EB5C82B61E08091E4010E94BD
:10036000FF00CE01DF91CF911F910895CF93DF93CE
:1003700090E0FC01E855FF4F2491FC01EC56FF4F43
:100380008491882361F190E0880F991FFC01EA585D
:10039000FF4FC591D491FC01E058FF4FA591B49156
:1003A000611109C09FB7F8948881209582238883C2
:1003B000EC912E230BC0623061F49FB7F8948881D2
:1003C000322F309583238883EC912E2B2C939FBF63
:1003D00006C08FB7F894E8812E2B28838FBFDF915A
:1003E000CF9108952FB7F8946091C2017091C30125
:1003F0008091C4019091C5012FBF08950F931F9361
:10040000CF93DF93EC0188819981009729F02A81AD
:100410003B812617370788F48B016F5F7F4F0E945F
:100420005E08009761F0998388831B830A832C817F
:100430003D81232B11F4FC01108281E001C080E09A
:10044000DF91CF911F910F910895CF93DF93EC012E
:1004500088819981009711F00E94D507198218822E
:100460001D821C821B821A82DF91CF9108951F92F8
:100470000F920FB60F9211242F933F938F939F9358
:10048000AF93BF938091C2019091C301A091C40129
:10049000B091C5013091C10123E0230F2D3720F425
:1004A0000196A11DB11D05C026E8230F0296A11DCE
:1004B000B11D2093C1018093C2019093C301A09309
:1004C000C401B093C5018091BD019091BE01A0917E
:1004D000BF01B091C0010196A11DB11D8093BD0166
:1004E0009093BE01A093BF01B093C001BF91AF91A3
:1004F0009F918F913F912F910F900FBE0F901F9062
:100500001895CF93DF93CDB7DEB72F970FB6F8943A
:10051000DEBF0FBECDBF789484B5826084BD84B544
:10052000816084BD85B5826085BD85B5816085BDEE
:1005300080916E00816080936E00109281008091A6
:10054000810082608093810080918100816080932E
:100550008100809180008160809380008091B10053
:1005600084608093B1008091B00081608093B0007E
:1005700080917A00846080937A0080917A00826012
:1005800080937A0080917A00816080937A008091D4
:100590007A00806880937A001092C10080E4809392
:1005A0007C0080917A00806480937A0080917A0048
:1005B00086FDFCCF609178008091790070E0782B07
:1005C000072E000C880B990B6115710581059105AB
:1005D00011F00E946A0662E082E00E94B60162E0C9
:1005E00083E00E94B60162E084E00E94B60162E00E
:1005F00082E00E94B60180E1E0EAF1E0DF011D92B5
:100600008A95E9F744244394512C3FE0C32ED12C22
:1006100077247394CE0101967C0140E0A42E40E043
:10062000B42E9DE0692E8090C801082D10E0C20113
:10063000082C01C0880F0A94EAF780958093C601C0
:10064000F801E056FE4F80818093C7018091EE0152
:100650009091EF01039720F486EC91E00E942E0127
:1006600099249394980C97E0981548F0F601E01BB4
:10067000F10BE056FE4F6081892D0E949201892D79
:1006800087708093C8018091E301883008F4BFC16E
:100690001092E3013090E1013092E0018091CF01AE
:1006A0008093D0012090DB012092D10184E00E9450
:1006B000D6008C0181E00115110509F080E08093DE
:1006C000E10182E00E94D60021E0892B09F020E0C0
:1006D0002093CF0183E00E94D6004C0181E0811479
:1006E000910409F080E08093DB01E091E2018E2F1C
:1006F00090E08730910508F08AC1FC01EC5CFF4F67
:100700000C9437071092A001012B71F431100CC02A
:100710000E94F2016093DC017093DD018093DE01A1
:100720009093DF017092E201892809F070C1109264
:10073000A1016DC17092A0010E94F2012091DC0123
:100740003091DD014091DE015091DF01DC01CB01F0
:10075000821B930BA40BB50B883B9B40A105B105F5
:1007600048F01092DC011092DD011092DE0110922F
:10077000DF0145C1012B09F44AC1311048C1109273
:10078000E20145C18091D301811104C06092D20180
:100790007092D3010E94F2010091DC011091DD0101
:1007A0002091DE013091DF01DC01CB01801B910B38
:1007B000A20BB30B883E9340A105B10520F10E9426
:1007C000F2016093DC017093DD018093DE01909370
:1007D000DF011091D201612F012E000C770B6B30DD
:1007E000710524F46092D20183E050C083E0660F6B
:1007F000771F8A95E1F760507F4F85E00E94930054
:1008000011501093D20182E08093A00100C183E0D7
:100810008093A0010E94F2012091CB013091CC0184
:100820004091CD015091CE01DC01CB01821B930B95
:10083000A40BB50B883E9340A105B10578F00E944A
:10084000F2016093CB017093CC018093CD01909322
:10085000CE018091CA018F5F8093CA01012B81F480
:1008600031100EC084E08093E2010E94F201609397
:10087000DC017093DD018093DE019093DF01C7C03E
:10088000892809F0C4C02110C2C086E08093E2012B
:10089000BEC084E08093A001012B31F0311004C070
:1008A00095E09093E201B3C00E94F2010091DC0157
:1008B0001091DD012091DE013091DF01DC01CB01DF
:1008C000801B910BA20BB30B883B9B40A105B1058C
:1008D00008F055CF9CC085E08093A0013090CA01FC
:1008E0001B861A861D861C861F861E86032D10E019
:1008F0004AE0B701C8010E947306F7010190002089
:10090000E9F731974F018E189F08B401CE010A967E
:100910000E94FE01811105C0CE010A960E942502A7
:1009200007C09F868E86B7018A859B850E942D0908
:1009300098E0931500F106541E4F0115110579F04A
:10094000F80101900020E9F731974F01801A910AD0
:10095000B401CE010A960E94FE01811105C0CE01AC
:100960000A960E94250207C09F868E86B8018A8556
:100970009B850E942D092E853F85C901029782170C
:10098000930720F4EA85FB85309729F41092C9017A
:10099000E9ECF1E002C0E80FF91F60816652C9017D
:1009A00001978217930720F4EA85FB85309729F495
:1009B0001092C901E9ECF1E002C0E80FF91F1081C3
:1009C0001652A8E06A9FB001112460507F4F80E06A
:1009D0000E949300B8E01B9FB001112460507F4F2C
:1009E00088E00E9493008A859B850E94D5078091AC
:1009F000E101882361F08091E001811108C082E06B
:100A000045CF26E02093A001012B09F4B6CE8091BA
:100A1000E3018F5F8093E301A114B10409F403CED5
:100A20000E940000FECD0F931F93CF93DF938AE0C7
:100A300090E09093E5018093E40161E00E94B601AB
:100A400061E08091E4010E94FF00CFB7F8948091AB
:100A5000BC01811127C0EEE9F0E08491E2EBF0E007
:100A60009491E82FF0E0EE0FFF1FEA58FF4FA59199
:100A7000B491EC91E92321F461E08AE00E94FF0047
:100A800061E08AE00E94B6018CB580618CBD8CB5B6
:100A900080648CBD61E08DE00E94B60161E08BE076
:100AA0000E94B6018091BC018F5F8093BC01CFBFD3
:100AB00080E58CBD81E08DBD60E08CE00E949201FC
:100AC00067E08AE00E94920167E08BE00E94920159
:100AD00060E089E00E94920160E08FE00E94920154
:100AE00061E08CE00E949201C1E060E08C2F0E94E6
:100AF0009201CF5FC930C9F787E090E09093E7019A
:100B00008093E60186E090E09093E9018093E8010C
:100B100085E090E09093EB018093EA011092ED0163
:100B20001092EC0182E090E09093EF018093EE014F
:100B300061E087E00E94B60161E08091E8010E94D7
:100B4000B60161E08091EA010E94B6010091EE01D8
:100B50001091EF01C8010E943D07EC01FC01CF019B
:100B60008C1B9D0B8017910714F41192F8CF033062
:100B7000110518F4CE010E942E01209719F0CE0124
:100B80000E94D5071092CA011092CB011092CC019D
:100B90001092CD011092CE01DF91CF911F910F9154
:100BA00008958F929F92AF92BF92CF92DF92EF9271
:100BB000FF92CF93DF93EC01688179818A819B81D9
:100BC000611571058105910521F464E279ED8BE5EC
:100BD00097E02DE133EF41E050E00E949D0649018E
:100BE0005A019B01AC01A7EAB1E40E94BC066B016B
:100BF0007C01ACEEB4EFA50194010E94CA06DC01B1
:100C0000CB018C0D9D1DAE1DBF1DB7FF03C001970D
:100C1000A109B04888839983AA83BB83BC01CD0115
:100C20009F77DF91CF91FF90EF90DF90CF90BF90B3
:100C3000AF909F908F9008958F929F92AF92BF92A6
:100C4000CF92DF92EF92FF926091B0017091B1016B
:100C50008091B2019091B3016115710581059105F3
:100C600021F464E279ED8BE597E02DE133EF41E08B
:100C700050E00E949D0649015A019B01AC01A7EA80
:100C8000B1E40E94BC066B017C01ACEEB4EFA5019F
:100C900094010E94CA06DC01CB018C0D9D1DAE1D86
:100CA000BF1DB7FF03C00197A109B0488093B001F1
:100CB0009093B101A093B201B093B301BC01CD01F7
:100CC0009F77FF90EF90DF90CF90BF90AF909F9075
:100CD0008F9008956093B0017093B1018093B20139
:100CE0009093B3010895BB27FB015527AA27880FCE
:100CF000991FAA1FA41710F0A41B83955051B9F790
:100D0000A05DAA3308F0A95DA193009779F7B1110E
:100D1000B1931192CB010C948D06DC01FC01672F7D
:100D200071917723E1F7329704C07C916D937083C2
:100D30006291AE17BF07C8F30895052E97FB1EF406
:100D400000940E94B40657FD07D00E94060707FCD6
:100D500003D04EF40C94B4065095409530952195EF
:100D60003F4F4F4F5F4F08959095809570956195D7
:100D70007F4F8F4F9F4F08950E942807A59F900D8A
:100D8000B49F900DA49F800D911D11240895B7FF6D
:100D90000C94BC060E94BC06821B930B08952F92F4
:100DA0003F924F925F926F927F928F929F92AF92FB
:100DB000BF92CF92DF92EF92FF920F931F93CF9348
:100DC000DF93CDB7DEB7CA1BDB0B0FB6F894DEBFDF
:100DD0000FBECDBF09942A88398848885F846E8405
:100DE0007D848C849B84AA84B984C884DF80EE804F
:100DF000FD800C811B81AA81B981CE0FD11D0FB658
:100E0000F894DEBF0FBECDBFED010895A1E21A2E0A
:100E1000AA1BBB1BFD010DC0AA1FBB1FEE1FFF1F9E
:100E2000A217B307E407F50720F0A21BB30BE40BEE
:100E3000F50B661F771F881F991F1A9469F7609535
:100E40007095809590959B01AC01BD01CF010895EF
:100E5000A29FB001B39FC001A39F700D811D1124FB
:100E6000911DB29F700D811D1124911D0895EE0FEB
:100E7000FF1F0590F491E02D09940F931F93CF93DA
:100E8000DF938230910510F482E090E0E091F2016E
:100E9000F091F30120E030E0A0E0B0E0309719F1EC
:100EA000408151810281138148175907C8F0841786
:100EB000950769F4109731F012960C9312971396D8
:100EC0001C9327C00093F2011093F30122C0211557
:100ED000310519F04217530718F49A01BD01EF01CB
:100EE000DF01F801DBCF21153105F9F0281B390BA3
:100EF0002430310580F48A819B816115710521F0D0
:100F0000FB019383828304C09093F3018093F201E9
:100F1000FE01329644C0FE01E20FF31F81939193CC
:100F200022503109398328833AC02091F001309151
:100F3000F101232B41F42091B6013091B701309398
:100F4000F1012093F0012091B4013091B5012115F8
:100F5000310541F42DB73EB74091B8015091B90128
:100F6000241B350BE091F001F091F101E217F3073A
:100F7000A0F42E1B3F0B2817390778F0AC014E5F09
:100F80005F4F2417350748F04E0F5F1F5093F10154
:100F90004093F0018193919302C0E0E0F0E0CF0133
:100FA000DF91CF911F910F910895CF93DF93009719
:100FB00009F481C0FC01329713821282A091F201E0
:100FC000B091F301109781F420813181820F931F3A
:100FD0002091F0013091F1012817390751F5F09374
:100FE000F101E093F00167C0ED0120E030E0CE17A1
:100FF000DF0740F44A815B819E0141155105F1F004
:10100000EA01F5CFD383C28340815181840F951FBC
:10101000C817D90759F488819981840F951F0296C2
:10102000918380838A819B819383828321153105FB
:1010300029F4F093F301E093F2013DC0E901FB8351
:10104000EA8349915991C40FD51FEC17FD0761F44C
:1010500080819181840F951F0296E901998388838D
:10106000828193819B838A83E0E0F0E012968D91E8
:101070009C911397009719F0FD01DC01F7CF8D913A
:101080009C9111979D012E5F3F4F820F931F2091DE
:10109000F0013091F1012817390769F4309729F4EC
:1010A0001092F3011092F20102C013821282B093E7
:1010B000F101A093F001DF91CF910895A0E0B0E09D
:1010C000E4E6F8E00C94D306EC01009721F4CB01A0
:1010D0000E943D07B4C0FC01E60FF71F9C0122509F
:1010E0003109E217F30708F4A8C0D9010D911C914A
:1010F000119706171707B0F00530110508F49BC0CB
:10110000C80104978617970708F495C00250110983
:10111000061B170B019311936D937C93CF010E94D3
:10112000D50789C05B01A01AB10A4C01800E911E3F
:10113000A091F201B091F301612C712CE12CF12C02
:10114000109709F446C08D919C911197A815B90587
:10115000B1F56C0142E0C40ED11CCA14DB0478F175
:101160004C018A189B08640142E0C40ED11C1296FF
:10117000BC9012971396AC91B5E0CB16D10440F019
:10118000B282A38391828082D9016D937C9309C03E
:101190000E5F1F4F800F911FF90191838083EB2D0C
:1011A000FA2FE114F10431F0D7011396FC93EE937A
:1011B000129741C0F093F301E093F2013CC068162E
:1011C000790608F43C017D0112960D90BC91A02D8A
:1011D000B7CF8091F0019091F10188169906E1F462
:1011E00066167706C8F48091B4019091B501009716
:1011F00041F48DB79EB74091B8015091B901841B5D
:10120000950BE817F907C8F4F093F101E093F001AA
:10121000F901718360830FC0CB010E943D077C01FF
:10122000009759F0A801BE010E942409CE010E9436
:10123000D507C70104C0CE0102C080E090E0CDB761
:10124000DEB7EEE00C94EF06FB01DC0102C001907A
:101250000D9241505040D8F70895FB01DC010190F8
:0C1260000D920020E1F70895F894FFCFF4
:10126C000066FFFF7E3C1800007E40404E427E0030
:10127C00000000007E000000007E40407E027E00E8
:10128C00007E40407E407E00003E404040403E009C
:10129C00007C101010107C00003C424242423C008A
:1012AC00004262524A464200003C42427E424200A8
:1012BC00007E424242427E000008182808083C008A
:1012CC00003C020204083E00007E027E02027E0008
:1012DC00004242427E020200007E40407E027E00BE
:1012EC00007E407E42427E00007C043E04040400EA
:1012FC00007E423C42427E00007E427E02020200A0
:10130C000102030405060708090A0B0C0D0E0F1049
:0C131C00010000000000F401800030001F
:00000001FF
