:1000000002C1000030C100002EC100002CC1000060
:100010002AC1000028C1000026C1000024C1000040
:1000200022C1000020C100001EC100001CC1000050
:100030001AC1000018C1000016C1000014C1000060
:1000400012C1000010C100000EC100000CC1000070
:100050000AC1000008C1000006C1000058C7000026
:1000600002C100001EC70000F3C60000FCC0000073
:10007000FAC00000F8C00000F6C00000F4C00000A4
:10008000F2C00000F0C00000EEC00000ECC00000B4
:10009000EAC00000E8C00000E6C00000E4C00000C4
:1000A000E2C00000E0C00000DEC00000DCC00000D4
:1000B000DAC00000D8C00000D6C00000D4C00000E4
:1000C000D2C00000D0C00000CEC00000CCC00000F4
:1000D000CAC00000C8C00000C6C00000C4C0000004
:1000E000C2C0000000002200250028002B002E00C6
:1000F0003100340002010000050108010B0100007D
:1001000020002300260029002C002F0032000001CF
:10011000000003010601090100000A0B02090C0D91
:100120000E080703040100000000000000000000AA
:1001300000000000000000000000000000000000BF
:10014000000000001211100000000000000000007C
:10015000000000000000000000000000000000009F
:100160002100240027002A002D0030003300010167
:100170000000040107010A010102102020080810F4
:100180002040102040800201020108040201010207
:1001900004081020408080402010080402018004E0
:1001A000020180402010080402010804020101023B
:1001B000040810204080010204081020408005053A
:1001C0000505070508080808020202020A0A0808CD
:1001D00004040404010101010101010103030303FB
:1001E00003030303040707070C0C0C0C0C0C0C0C8A
:1001F0000202020206060606060606060B0B0B0B9B
:100200000B0B0B0BD10711241FBECFEFD1E2DEBFCA
:10021000CDBF00E00CBF12E0A0E0B2E0EAE0FEE1FA
:1002200000E00BBF02C007900D92AE3DB107D9F7B9
:1002300023E0AEEDB2E001C01D92A43CB207E1F7AD
:1002400011E0C3E0D1E000E006C021970109802F52
:10025000FE010E94EA0CC230D10780E00807A9F72E
:10026000A4D70C94030FCCCEE82F880FFF0BEC55CE
:10027000FD4FCB010896DB012D91BD0121938A171B
:100280009B07C9F708951F93CF93DF9390E0A62FA4
:10029000062E000CBB0BA41BB50B282F3327219572
:1002A0000CF43095E9019D01240F351F21313105F2
:1002B000BCF4162F190FFA012191AF0130E087FF2E
:1002C00015C00C2E01C0220F0A94EAF7E12FF0E0CE
:1002D000EC55FD4F2095308123232083913021F46C
:1002E000DF91CF911F91089591E0DDCF082E02C0DC
:1002F000359527950A94E2F7E9CFCF92DF92EF92F6
:10030000FF920F931F93DA0190E0062E000C770BFB
:100310007B01E41AF50AE0E1F0E0E81BF10987FD52
:10032000F39597012A0F3B1F37FD34C0A92FB0E08A
:100330006A0F7B1FFB01EC55FD4FA40FB51F60E159
:1003400070E0681B710987FD73959F01245A324044
:10035000213131059CF1FA01E90FF11D20E130E076
:10036000281B310987FD3395923009F44BC0419128
:1003700050E070E060E0022E04C0440F551F661F7D
:10038000771F0A94D2F7452B462B472B09F042C022
:100390009F5FEACF923051F20D9110E030E020E003
:1003A0000E2E04C0000F111F221F331F0A94D2F714
:1003B000012B022B032B71F59F5FB3CF923011F10C
:1003C000C190D12CF12CE12C7601DD24CC242D918F
:1003D000022F10E030E020E0062E04C0000F111FB5
:1003E000221F331F0A94D2F7CC24CA94DC2CFD2C94
:1003F0000C211D212E213F21012B022B032B51F417
:100400009F5FA3CF80E01F910F91FF90EF90DF904F
:10041000CF90089581E0F7CF2091A50328306CF5A7
:10042000E091A603E1314CF58091020290E0422F69
:10043000022E000C550B27FD21C0022E02C09595FF
:1004400087950A94E2F7AE2FB0E0AC55BD4F9C9172
:10045000892B8C93E03189F0EF5F8091030290E06B
:1004600027FD15C002C0959587952A95E2F7F0E023
:10047000EC55FD4F9081892B80830895662777275F
:10048000641B750B01C0880F6A95EAF7DCCF5195A4
:100490004195510901C0880F4A95EAF7E8CFCF93FB
:1004A000C82F8091A50388303CF46091A603613188
:1004B0001CF442E052E0E7DE8091A503C80FC6308D
:1004C00020F0AADF81E0CF91089542E052E06091F0
:1004D000A6038C2F12DF811103C0C093A503F1CFB7
:1004E00080E0F1CFAF92BF92CF92DF92EF92FF9276
:1004F0000F931F93CF93DF936C017B018B01040F4C
:10050000151FEB015E01AE18BF08C017D10759F0E7
:100510006991D601ED91FC910190F081E02DC60129
:100520001995892B79F7C501DF91CF911F910F9113
:10053000FF90EF90DF90CF90BF90AF900895FC01B7
:10054000538D448D252F30E0842F90E0821B930B38
:10055000541710F0CF96089501970895FC01918DDE
:10056000828D981761F0A28DAE0FBF2FB11D5D96E1
:100570008C91928D9F5F9F73928F90E008958FEF83
:100580009FEF0895FC01918D828D981731F0828D37
:10059000E80FF11D858D90E008958FEF9FEF08958E
:1005A000FC01918D228D892F90E0805C9F4F821BF2
:1005B00091098F739927089582E093E0F1DF21E09C
:1005C000892B09F420E0822F0895FC01A48DA80F47
:1005D000B92FB11DA35ABF4F2C91848D90E0019685
:1005E0008F739927848FA689B7892C93A089B189A5
:1005F0008C91837080648C93938D848D981306C046
:100600000288F389E02D80818F7D80830895EF92A9
:10061000FF920F931F93CF93DF93EC0181E0888FBC
:100620009B8D8C8D98131AC0E889F989808185FF8C
:1006300015C09FB7F894EE89FF896083E889F9892E
:1006400080818370806480839FBF81E090E0DF9130
:10065000CF911F910F91FF90EF900895F62E0B8D83
:1006600010E00F5F1F4F0F731127E02E8C8D8E113E
:100670000BC00FB607FCFACFE889F989808185FFA6
:10068000F5CFCE01A2DFF2CFEB8DEC0FFD2FF11DE8
:10069000E35AFF4FF0829FB7F8940B8FEA89FB89EA
:1006A00080818062D0CFCF93DF93EC01888D882347
:1006B000B1F0AA89BB89E889F9898C9185FD03C0CD
:1006C000808186FD0CC00FB607FCF7CF8C9185FFAB
:1006D000F2CF808185FFEDCFCE0177DFEACFDF91CA
:1006E000CF91089580E090E0892B21F065DF8111A2
:1006F0000E94000080E090E0892B49F080E090E0CB
:10070000892B29F00E94000081110E94000080E0E6
:1007100090E0892B49F080E090E0892B29F00E943D
:10072000000081110E94000080E090E0892B49F0D8
:1007300080E090E0892B29F00E94000081110C9448
:10074000000008958150823108F05AC0E82FF0E08F
:100750008827E255FC4F8F4F0C94EA0CCE03D2034E
:10076000C003C603CA030004D503DB03DF03E503AC
:10077000E903ED03F303F7030004FB03010405049D
:10078000809180008F778093800008958091800011
:100790008F7DF9CF80918000877FF5CF84B58F77EB
:1007A00084BD089584B58F7DFBCF8091B0008F7795
:1007B0008093B00008958091B0008F7DF9CF809133
:1007C00090008F77809390000895809190008F7DA6
:1007D000F9CF80919000877FF5CF8091A0008F772F
:1007E0008093A00008958091A0008F7DF9CF809123
:1007F000A000877FF5CF809120018F778093200123
:100800000895809120018F7DF9CF80912001877F0D
:10081000F5CFCF93DF93282F30E0F901E85EFE4F4C
:100820008491F901E858FE4FD491F901E254FE4F4A
:10083000C491CC2399F0811185DFEC2FF0E0EE0F0D
:10084000FF1FE250FF4FA591B491EC91ED2381E0A1
:1008500090E009F480E0DF91CF91089580E090E08E
:10086000FACF1F93CF93DF93282F30E0F901E85E92
:10087000FE4F8491F901E858FE4FD491F901E254FA
:10088000FE4FC491CC23A1F0162F81115BDFEC2F1A
:10089000F0E0EE0FFF1FEC51FF4FA591B4918FB721
:1008A000F894EC91111108C0D095DE23DC938FBF32
:1008B000DF91CF911F910895DE2BF8CF7F928F9219
:1008C0009F92AF92BF92CF92DF92EF92FF920F93DF
:1008D0001F93CF93DF938C0160E08091B803C1DF59
:1008E0008091BC039091BD036C0121E0C21AD10834
:1008F000080F191F87E0A82EB12CD7FC30C0F801D3
:10090000E2908F017090BA039090B6038090B40388
:10091000D0E0C0E0F12C711018C0B7010C2E02C05D
:10092000759567950A94E2F76170882D9ADF61E00A
:10093000892D97DF60E0892D94DF2196C830D1059D
:1009400051F721E0C21AD108D8CFC5018C1B9D0BED
:10095000B70102C0759567958A95E2F7E5CF61E02A
:100960008091B803DF91CF911F910F91FF90EF908D
:10097000DF90CF90BF90AF909F908F907F9071CF7E
:100980001F93CF93DF93C82F162F60E08091BE0393
:1009900068DFCEBD00000DB407FEFDCFCEB5D0E0C0
:1009A000DC2FCC271EBD00000DB407FEFDCF8EB599
:1009B000C82B61E08091BE0354DFCE01DF91CF915F
:1009C0001F910895CF93DF9390E0FC01E858FE4F0C
:1009D000249182549E4FFC0184918823D1F090E0B1
:1009E000880F991FFC01E25AFE4FA591B491FC01BA
:1009F000EC51FF4FC591D491623071F49FB7F894D8
:100A00003C91822F809583238C93E8812E2B288321
:100A10009FBFDF91CF9108958FB7F894EC912E2B63
:100A20002C938FBFF6CF2FB7F8946091E3027091AB
:100A3000E4028091E5029091E6022FBF0895F3DF72
:100A4000E0EAF3E0618372838383948381E08187AA
:100A500084878787828B108283E085830895CF9374
:100A6000DF93EC0188819981009711F00E948E0D2F
:100A7000198218821D821C821B821A82DF91CF91FB
:100A80000895E4EAF2E081E1DF011D928A95E9F739
:100A90000895FC0101900020E9F73197AF01481B50
:100AA000590BBC0182E093E01DCD8F929F92AF92D3
:100AB000BF92CF92DF92EF92FF920F931F93CF934B
:100AC000DF93CDB7DEB7A1970FB6F894DEBF0FBEA8
:100AD000CDBF8C0181ED92E0DCDFD8011196CC9086
:100AE0000C2C000CDD08EE08FF08F7FE6DC06DE26F
:100AF00082E093E08CDD22273327A9012C193D09E0
:100B00004E095F0919A2FE01B1967F019AE0892E74
:100B1000912CA12CB12CCA01B901A501940129D7AE
:100B2000605DD7016E937D012115310541055105A9
:100B300091F7E114F10411F0C701ABDF88ED92E009
:100B4000A8DFF8012081283064F5E181E1314CF51E
:100B50008091000290E0422F022E000C550B27FDE1
:100B60004DC0022E02C0959587950A94E2F7AE2FEC
:100B7000B0E0AC55BD4F9C91892B8C93E03189F04E
:100B8000EF5F8091010290E027FD41C002C0959582
:100B900087952A95E2F7F0E0EC55FD4F9081892B7F
:100BA0008083A1960FB6F894DEBF0FBECDBFDF9154
:100BB000CF911F910F91FF90EF90DF90CF90BF905A
:100BC000AF909F908F900895A701960119A2FE0102
:100BD000B1967F018AE0882E912CA12CB12CCA01FC
:100BE000B901A5019401C5D6605DD7016E937D0161
:100BF000211531054105510591F79BCF66277727D0
:100C0000641B750B01C0880F6A95EAF7B0CF519548
:100C10004195510901C0880F4A95EAF7BCCF0F935F
:100C20001F93CF93DF93EC0188819981009759F04E
:100C30002A813B812617370730F081E0DF91CF9181
:100C40001F910F9108958B016F5F7F4FF0D7009731
:100C500059F0998388831B830A832C813D81232B40
:100C600061F7FC011082E9CF80E0E8CFEF92FF92BC
:100C70000F931F93CF93DF93EC017B018A01BA019D
:100C8000CEDF81110AC0CE01EADECE01DF91CF9125
:100C90001F910F91FF90EF9008951D830C83B70172
:100CA000888199810E94FC0EF0CFEF92FF920F9302
:100CB0001F93CF93DF93CDB7DEB765970FB6F89448
:100CC000DEBF0FBECDBF8091B303882309F4A5C05A
:100CD000F090A003198A188A1B8A1A8A1D8A1C8A16
:100CE0004AE08E010F5F1F4FB8018F2D90E0ECD5C9
:100CF000F80101900020E9F73197AF01401B510B3B
:100D0000B801CE014096B2DF88E08F1508F44EC0DE
:100D10001A8219821C821B821E821D8241E050E0D1
:100D20006BED72E0C801A2DF1B861A861D861C8649
:100D30001F861E8669817A816115710529F04D81B2
:100D40005E81CE010A9692DFE888F988E114F10409
:100D500009F470C00C891D8901151105B1F08E854B
:100D60009F85080F191FB801CE010A9658DF882306
:100D700009F460C02A853B858E859F85B701820F67
:100D8000931F0E94FC0E1F870E876A857B85611565
:100D9000710509F453C04E855F85CE01409666DF2C
:100DA0008A859B85BBD689819A81B8D62C893D8955
:100DB000C90102978217930728F4E889F9893097C7
:100DC00009F040C010920103E1E0F3E08081865217
:100DD000A901415051094217530720F4E889F989C4
:100DE000309799F510920103E1E0F3E0108116527B
:100DF00098E0899FB00111246C5F7D4F80E034DA68
:100E000088E0189FB00111246C5F7D4F88E02CDAD8
:100E10008889998983D61092B30365960FB6F894A2
:100E2000DEBF0FBECDBFDF91CF911F910F91FF901D
:100E3000EF900895CE010A9612DEA7CFCE0140961C
:100E40000EDEAECFE80FF91FC1CFE40FF51FCECFF6
:100E50001F920F920FB60F9211240BB60F922F9381
:100E60003F934F935F936F937F938F939F93AF9332
:100E7000BF93EF93FF9382E093E0A7DBFF91EF91A5
:100E8000BF91AF919F918F917F916F915F914F91A2
:100E90003F912F910F900BBE0F900FBE0F901F90A0
:100EA00018951F920F920FB60F9211240BB60F9246
:100EB0002F938F939F93EF93FF93E0911203F09101
:100EC00013038081E0911803F091190382FD1DC086
:100ED000908180911B038F5F8F7320911C03821779
:100EE00041F0E0911B03F0E0EE5FFC4F958F8093A3
:100EF0001B03FF91EF919F918F912F910F900BBE4C
:100F00000F900FBE0F901F9018958081F2CF1F9207
:100F10000F920FB60F9211242F933F938F939F93AD
:100F2000AF93BF938091E3029091E402A091E50218
:100F3000B091E6023091E20223E0230F2D3758F5FD
:100F40000196A11DB11D2093E2028093E3029093CC
:100F5000E402A093E502B093E6028091DE02909154
:100F6000DF02A091E002B091E1020196A11DB11D46
:100F70008093DE029093DF02A093E002B093E1023F
:100F8000BF91AF919F918F913F912F910F900FBE85
:100F90000F901F90189526E8230F0296A11DB11DF2
:100FA000D2CF0F931F93CF93DF931092050310922C
:100FB000040388EE93E0A0E0B0E0809306039093F2
:100FC0000703A0930803B093090383EC92E0909386
:100FD00003038093020385EC90E090930F038093CA
:100FE0000E0384EC90E0909311038093100380EC47
:100FF00090E0909313038093120381EC90E0909320
:1010000015038093140382EC90E090931703809370
:10101000160386EC90E090931903809318031092C6
:101020001B0310921C0310921D0310921E0385E3F4
:1010300090E09093BF038093BE0361E0C3DC61E066
:1010400083E3C0DC61E084E3BDDC61E08091BE034A
:1010500008DCCFB7F89480919F03811123C0E3EFA0
:10106000F1E08491EDEAF1E09491E82FF0E0EE0FE9
:10107000FF1FE25AFE4FA591B491EC91E92319F4B8
:1010800061E085E3EEDB61E085E39CDC8CB58061AB
:101090008CBD8CB580648CBD61E084E393DC61E041
:1010A00083E390DC80919F038F5F80939F03CFBF8A
:1010B00080E58CBD81E08DBD60E08CE061DC67E0A7
:1010C0008AE05EDC67E08BE05BDC60E089E058DCB6
:1010D00060E08FE055DC61E08CE052DCC1E060E074
:1010E0008C2F4EDCCF5FC930D1F787E090E0909332
:1010F000B5038093B40386E090E09093B7038093A8
:10110000B60385E090E09093B9038093B803109202
:10111000BB031092BA0382E090E09093BD038093EA
:10112000BC0361E087E04EDC61E08091B6034ADCFD
:1011300061E08091B80346DC0091BC031091BD03CF
:10114000C80150D4EC01FC01CF018C1B9D0B801712
:10115000910714F41192F8CF0330110510F4CE0169
:10116000ADDB209711F0CE01D9D41092A0031092DC
:10117000A1031092A2031092A3031092A4038EE085
:101180008093A60383E08093A50381E08093A90365
:101190008093AC038093AF038093B2038093B30337
:1011A000DF91CF911F910F910895789484B582605B
:1011B00084BD84B5816084BD85B5826085BD85B5FB
:1011C000816085BD80916E00816080936E00109279
:1011D00081008091810082608093810080918100F4
:1011E0008160809381008091800081608093800085
:1011F0008091B10084608093B1008091B0008160E3
:101200008093B000809191008260809391008091E2
:101210009100816080939100809190008160809323
:1012200090008091A10082608093A1008091A10034
:1012300081608093A1008091A00081608093A000D4
:101240008091210182608093210180912101816040
:101250008093210180912001816080932001809101
:101260007A00846080937A0080917A008260809313
:101270007A0080917A00816080937A0080917A0070
:10128000806880937A001092C10080917B00877FF4
:1012900080937B0080E480937C0080917A0080645E
:1012A00080937A0080917A0086FDFCCF809178004F
:1012B00060917900762F682F072E000C880B990B10
:1012C000611571058105910509F0F5D262E082E0B2
:1012D00079DB62E083E076DB62E084E073DB62E08E
:1012E00088E070DBCEDBE0911203F091130382E023
:1012F0008083E0910E03F0910F031082E0911003C0
:10130000F09111038FEC808310921A03E091160381
:10131000F091170386E08083E0911403F0911503A8
:10132000808180618083E0911403F09115038081B6
:1013300088608083E0911403F091150380818068B8
:101340008083E0911403F091150380818F7D808369
:10135000FF24F39496E0E92E25E0922E35E0232E2B
:10136000312C412C512C4DE0842E1091E902C12FDB
:10137000D0E081E090E0012E01C0880F0A94EAF7E6
:1013800080958093E702FE01EC55FD4F80818093AC
:10139000E8028091BC039091BD03039718F487EE97
:1013A00092E08CDA01E0010F183048F4EFE0F0E051
:1013B000EC1BFD0BEC55FD4F6081802FE1DA0770CF
:1013C0000093E90280910003883008F452C0109223
:1013D0000003C091FE02C093FD027090EC02709277
:1013E000ED02D091F802D093EE0284E012DA8C0183
:1013F00081E00115110509F080E08093FE0282E092
:1014000008DA5C0181E0A114B10409F080E0809366
:10141000EC0283E0FED96C0181E0C114D10409F033
:1014200080E08093F802E091FF02E73010F5F0E0F1
:101430008827E35EF54F8F4FCDC2240A400A660A23
:10144000C90A850BAA0BB70B1092A402012B69F4F1
:10145000C1110BC0E8DA6093F9027093FA0280932D
:10146000FB029093FC02F092FF02CD2811F410923F
:10147000A502809100038F5F8093000333D975CF5D
:10148000F092A402D0DA2091F9023091FA02409150
:10149000FB025091FC02621B730B840B950B683BA3
:1014A0007B408105910558F01092F9021092FA02E2
:1014B0001092FB021092FC02E4DA82E056C0012B8B
:1014C000C1F2C111D6CF1092FF02D3CF8091F002AA
:1014D000811104C08092EF02F092F002A4DA009130
:1014E000F9021091FA022091FB023091FC02601B7C
:1014F000710B820B930B683E73408105910508F4D4
:1015000044C091DA6093F9027093FA028093FB026F
:101510009093FC02C091EF026C2F0C2E000C770B05
:101520006B3071052CF58092EF02ABDA8091A90344
:10153000811103C087EA93E0B8DA8091AC0381118E
:1015400003C08AEA93E0B1DA8091AF03811103C04E
:101550008DEA93E0AADA8091B203811103C080EB97
:1015600093E0A3DA0E940C0283E08093FF0281CF14
:1015700083E0660F771F8A95E1F76C5F7D4F85E00A
:101580000E943401C150C093EF0282E08093A40214
:1015900070CF012B81F4C1110EC045DA6093F902BE
:1015A0007093FA028093FB029093FC026ADAF09245
:1015B000B30384E0DACF37DA0091A1031091A203DC
:1015C0002091A3033091A403601B710B820B930B3A
:1015D000683E73408105910570F025DA6093A103A0
:1015E0007093A2038093A3039093A4038091A0031C
:1015F0008F5F8093A003AB2809F459C0CD2809F46C
:1016000063C00DD123E030E040E050E086D16C5F54
:10161000C0EAD3E0FE010FEF80E0918591115CC03C
:10162000908596170CF059C08091EA029091EB02D8
:1016300001969093EB028093EA028985811124C080
:101640008091EA029091EB0284369105E8F08F8157
:1016500088303CF46885613124F440E052E00E9417
:10166000430118851F5F10310CF08EC01D3044F00F
:1016700040E052E0612F8F810E947D0181111EC0E8
:101680001887CE01079611DA23968CEA93E08C171F
:101690009D0799F68091EA029091EB0284369105BC
:1016A00008F4E7CE1092EB021092EA02E2CE71103B
:1016B000A5CF8FEF0E944F028111A0CFE2D9F09207
:1016C000B303E092FF02D5CED1119BCF81E00E94FF
:1016D0004F02811196CFF2CF082F8F5F339684305F
:1016E00009F09BCF0F3F09F49FCF99D023E002026E
:1016F0008001112409551C4FA20191010ED1F8015E
:1017000060838FEF818312828FCF84E08093A40265
:10171000CCDA8091FE02811107C08091FD02811117
:1017200003C09092FF02A5CE7ED90091F9021091DC
:10173000FA022091FB023091FC02601B710B820BBC
:10174000930B683B7B408105910508F492CE99D9B3
:1017500076D9B9CE9092A402A8DA8091FE028823AD
:1017600009F487CE8091FD02811183CEA5CEE0924F
:10177000A4029BDA8091FE02882309F47ACE80913C
:10178000FD02811176CEE3CFF9867ECF8F929F92B4
:10179000AF92BF92CF92DF92EF92FF92CF93DF93FF
:1017A000EC01688179818A819B81611571058105D0
:1017B000910521F464E279ED8BE597E02DE133EFBB
:1017C00041E050E0AAD049015A019B01AC01A7EACF
:1017D000B1E4BFD06B017C01ACEEB4EFA501940184
:1017E000C4D0C60ED71EE81EF91EF7FE06C081E063
:1017F000C81AD108E10880E8F80AC882D982EA82CA
:10180000FB82C701B6019F77DF91CF91FF90EF90E8
:10181000DF90CF90BF90AF909F908F9008958F9260
:101820009F92AF92BF92CF92DF92EF92FF92609120
:10183000B5027091B6028091B7029091B80261151D
:1018400071058105910521F464E279ED8BE597E05E
:101850002DE133EF41E050E060D049015A019B0196
:10186000AC01A7EAB1E475D06B017C01ACEEB4EF3A
:10187000A50194017AD0C60ED71EE81EF91EF7FE08
:1018800006C081E0C81AD108E10880E8F80AC092D1
:10189000B502D092B602E092B702F092B802C70148
:1018A000B6019F77FF90EF90DF90CF90BF90AF9001
:1018B0009F908F9008956093B5027093B6028093C5
:1018C000B7029093B8020895BB27FB015527AA27BA
:1018D000880F991FAA1FA41710F0A41B83955051BD
:1018E000B9F7A05DAA3308F0A95DA193009779F735
:1018F000B111B1931192CB0100C0DC01FC01672F43
:1019000071917723E1F7329704C07C916D937083D6
:101910006291AE17BF07C8F30895052E97FB16F422
:1019200000940FD057FD05D024D007FC02D046F418
:1019300008C050954095309521953F4F4F4F5F4FD0
:10194000089590958095709561957F4F8F4F9F4F2B
:10195000089531D0A59F900DB49F900DA49F800D48
:10196000911D11240895B7FFF4CFF3DF821B930B71
:101970000895A1E21A2EAA1BBB1BFD010DC0AA1FD0
:10198000BB1FEE1FFF1FA217B307E407F50720F0E8
:10199000A21BB30BE40BF50B661F771F881F991F63
:1019A0001A9469F760957095809590959B01AC01AC
:1019B000BD01CF010895A29FB001B39FC001A39FB5
:1019C000700D811D1124911DB29F700D811D112478
:1019D000911D0895EE0FFF1F881F8BBF0790F69192
:1019E000E02D19940F931F93CF93DF9382309105CD
:1019F00010F482E090E0E091C203F091C30330E084
:101A000020E0B0E0A0E0309799F42115310509F409
:101A10004AC0281B390B24303105D8F58A819B81B7
:101A20006115710589F1FB0193838283FE0111C069
:101A3000408151810281138148175907E0F048170E
:101A4000590799F4109761F012960C931297139618
:101A50001C933296CF01DF91CF911F910F91089582
:101A60000093C2031093C303F4CF2115310551F045
:101A70004217530738F0A901DB019A01BD01DF01CC
:101A8000F801C1CFEF01F9CF9093C3038093C20354
:101A9000CDCFFE01E20FF31F8193919322503109C4
:101AA00039832883D7CF2091C0033091C103232BE2
:101AB00041F42091BB023091BC023093C1032093CA
:101AC000C0032091B9023091BA022115310541F4C9
:101AD0002DB73EB74091BD025091BE02241B350B7D
:101AE000E091C003F091C103E217F307A0F42E1BAD
:101AF0003F0B2817390778F0AC014E5F5F4F241772
:101B0000350748F04E0F5F1F5093C1034093C00349
:101B1000819391939FCFF0E0E0E09CCFCF93DF9350
:101B20000097E9F0FC01329713821282A091C20360
:101B3000B091C303ED0130E020E01097A1F42081C3
:101B40003181820F931F2091C0033091C103281768
:101B5000390709F061C0F093C103E093C003DF913E
:101B6000CF910895EA01CE17DF07E8F54A815B813E
:101B70009E0141155105B1F7E901FB83EA834991C3
:101B80005991C40FD51FEC17FD0761F48081918135
:101B90000296840F951FE90199838883828193813E
:101BA0009B838A83F0E0E0E012968D919C911397DD
:101BB0000097B9F52D913C911197CD010296820FB6
:101BC000931F2091C0033091C1032817390739F6BC
:101BD000309751F51092C3031092C203B093C10322
:101BE000A093C003BCCFD383C28340815181840FB3
:101BF000951FC817D90761F44E5F5F4F888199819F
:101C0000480F591F518340838A819B81938382832C
:101C10002115310509F0B0CFF093C303E093C2035F
:101C20009ECFFD01DC01C0CF13821282D7CF4F922D
:101C30005F926F927F928F929F92AF92BF92CF925C
:101C4000DF92EF92FF920F931F93CF93DF938C015C
:101C5000009791F4CB01DF91CF911F910F91FF90ED
:101C6000EF90DF90CF90BF90AF909F908F907F903C
:101C70006F905F904F90B6CEFC01E60FF71F9C016E
:101C800022503109E217F30708F4AAC0D901CD9117
:101C9000DC911197C617D70718F1C530D10570F040
:101CA000CE0104978617970748F0C61BD70B2297DB
:101CB000C193D1936D937C93CF0130DFC801DF9145
:101CC000CF911F910F91FF90EF90DF90CF90BF9039
:101CD000AF909F908F907F906F905F904F900895FE
:101CE0005B01AC1ABD0A4C018C0E9D1EA091C20373
:101CF000B091C303512C412CF12CE12C109731F5FC
:101D00008091C0039091C1038815990509F05CC0CA
:101D10004616570608F058C08091B9029091BA0251
:101D2000009741F48DB79EB74091BD025091BE021D
:101D3000841B950BE817F90708F052C0F093C10314
:101D4000E093C003F90171836083B8CF8D919C91BA
:101D5000119712966C90129713967C901397A81572
:101D6000B90559F56C0142E0C40ED11CCA14DB045C
:101D700020F1AC014A195B09DA011296159780F03F
:101D80006282738251834083D9016D937C93E11405
:101D9000F10471F0D7011396FC93EE9312978ECF56
:101DA00022968C0F9D1FF90191838083F301EFCF61
:101DB000F093C303E093C20381CF4816590608F499
:101DC0002C017D01D3019ACFCB010CDE7C01009761
:101DD00039F0AE01B80107D0C801A0DE87016ECF8F
:101DE00010E000E06BCFFB01DC0102C001900D921E
:101DF00041505040D8F70895FB01DC0101900D924D
:0A1E00000020E1F70895F894FFCFE9
:101E0A00E04040E00066FFFF7E3C1800007E404054
:101E1A004E427E00000000007E000000007E40402E
:101E2A007E027E00007E40407E407E00003E4040B2
:101E3A0040403E00007C101010107C00003C4242E2
:101E4A0042423C00004262524A464200003C424240
:101E5A007E424200007E424242427E00000818282A
:101E6A0008083C00003C020204083E00007E027E94
:101E7A0002027E00004242427E020200007E404090
:101E8A007E027E00007E407E42427E00007C043E4E
:101E9A0004040400007E423C42427E00007E427EF0
:101EAA0002020200FFFEFDFCFBFAF9F8F7F6F5F470
:101EBA00F3F2F1F0EF010000000000C4038000001B
:101ECA00000000070372029F025303D002AE02C24F
:0E1EDA0002706F73793A20000D0A003000008C
:020000023000CC
:10E000000D9489F10D94B2F10D94B2F10D94B2F129
:10E010000D94B2F10D94B2F10D94B2F10D94B2F1F0
:10E020000D94B2F10D94B2F10D94B2F10D94B2F1E0
:10E030000D94B2F10D94B2F10D94B2F10D94B2F1D0
:10E040000D94B2F10D94B2F10D94B2F10D94B2F1C0
:10E050000D94B2F10D94B2F10D94B2F10D94B2F1B0
:10E060000D94B2F10D94B2F10D94B2F10D94B2F1A0
:10E070000D94B2F10D94B2F10D94B2F10D94B2F190
:10E080000D94B2F10D94B2F10D94B2F10D94B2F180
:10E090000D94B2F10D94B2F10D94B2F10D94B2F170
:10E0A0000D94B2F10D94B2F10D94B2F10D94B2F160
:10E0B0000D94B2F10D94B2F10D94B2F10D94B2F150
:10E0C0000D94B2F10D94B2F10D94B2F10D94B2F140
:10E0D0000D94B2F10D94B2F10D94B2F10D94B2F130
:10E0E0000D94B2F141546D656761323536300041AF
:10E0F000726475696E6F206578706C6F72657220DE
:10E1000073746B3530305632206279204D4C530099
:10E11000426F6F746C6F616465723E004875683F52
:10E1200000436F6D70696C6564206F6E203D200048
:10E130004350552054797065202020203D20005FF9
:10E140005F4156525F415243485F5F3D2000415658
:10E1500052204C696243205665723D20004743437C
:10E160002056657273696F6E203D20004350552024
:10E1700049442020202020203D20004C6F7720663D
:10E18000757365202020203D20004869676820665F
:10E190007573652020203D200045787420667573D6
:10E1A00065202020203D20004C6F636B2066757336
:10E1B000652020203D20004D617220203720323024
:10E1C000313300312E362E3800342E332E350056A2
:10E1D00023202020414444522020206F7020636F70
:10E1E00064652020202020696E73747275637469E1
:10E1F0006F6E2061646472202020496E74657272B3
:10E20000757074006E6F20766563746F7200726A49
:10E210006D702020006A6D70200057686174207056
:10E220006F72743A00506F7274206E6F7420737541
:10E2300070706F72746564004D7573742062652030
:10E2400061206C6574746572002000577269747483
:10E25000696E672045450052656164696E672045B7
:10E26000450045452065727220636E743D00504F35
:10E27000525400303D5A65726F2061646472003FF1
:10E280003D43505520737461747300403D454550C3
:10E29000524F4D207465737400423D426C696E6B41
:10E2A000204C454400453D44756D70204545505215
:10E2B0004F4D00463D44756D7020464C415348001B
:10E2C000483D48656C70004C3D4C69737420492F83
:10E2D0004F20506F72747300513D51756974005234
:10E2E0003D44756D702052414D00563D73686F7707
:10E2F00020696E7465727275707420566563746FF0
:10E30000727300593D506F727420626C696E6B00BD
:10E310002A0011241FBECFEFD1E2DEBFCDBF01E046
:10E320000CBF12E0A0E0B2E0EEE1FDEF03E00BBFB6
:10E3300002C007900D92A030B107D9F712E0A0E01B
:10E34000B2E001C01D92AE30B107E1F70F9460F367
:10E350000D948DFE01E20EBF0FEF0DBF11241FBE05
:10E360000D9460F30D9400F020E030E040ED57E0B4
:10E3700005C0FA013197F1F72F5F3F4F2817390792
:10E38000C0F308959C01260F311DC901A0E0B0E043
:10E390002F5F3F4FABBFFC018791882361F08093D3
:10E3A000C6008091C00086FFFCCF8091C0008064D1
:10E3B0008093C000EACF08958DE08093C6008091DD
:10E3C000C00086FFFCCF8091C00080648093C000B5
:10E3D0008AE08093C6008091C00086FFFCCF8091C8
:10E3E000C00080648093C00008950F94C2F10F9420
:10E3F000DCF10895FC019081992359F09093C600B7
:10E400008091C00086FFFCCF8091C0008064809323
:10E41000C0003196992379F70895282F982F929567
:10E420009F70892F805D8A3308F0895F8093C600D2
:10E430008091C00086FFFCCF8091C00080648093F3
:10E44000C000822F8F70982F905D9A3308F0995FEB
:10E450009093C6008091C00086FFFCCF8091C000E1
:10E4600080648093C00008959C01FB01853691056E
:10E470001CF46330710594F0C90164E670E00F94F8
:10E480002EFE605D7F4F6093C6008091C00086FFC6
:10E49000FCCF8091C00080648093C0002B30310598
:10E4A00014F43297B4F0C90164E670E00F942EFEC4
:10E4B0006AE070E00F942EFE605D7F4F6093C600AF
:10E4C0008091C00086FFFCCF8091C0008064809363
:10E4D000C000C9016AE070E00F942EFEC0968093E0
:10E4E000C6008091C00086FFFCCF8091C000806490
:10E4F0008093C00008951F93182F8EE692EE60E07F
:10E500000F94C2F11093C6008091C00086FFFCCF2B
:10E510008091C00080648093C0000F94DCF11F9153
:10E5200008952F923F924F925F926F927F928F92B7
:10E530009F92AF92BF92CF92DF92EF92FF920F9392
:10E540001F93DF93CF93CDB7DEB762970FB6F894E2
:10E55000DEBF0FBECDBF382E622ECA01DB015C01CB
:10E560006D01772420E2222E2E010894411C511CBB
:10E570008BC081E0A81680E0B80681E0C80680E084
:10E58000D80628F0C601AA27BB270F940DF2BB2797
:10E59000AD2D9C2D8B2D0F940DF28A2D0F940DF225
:10E5A0002092C6008091C00086FFFCCF8091C00001
:10E5B00080648093C0009DE29093C6008091C0006B
:10E5C00086FFFCCF8091C00080648093C0002092C1
:10E5D000C6008091C00086FFFCCF8091C00080649F
:10E5E0008093C00019828601750188249924A1E0D6
:10E5F0003A1651F03A1620F0B2E03B1661F409C029
:10E600000BBFF701779007C0C7010F9477FE782EF4
:10E6100002C0F7017080872D0F940DF22092C60082
:10E620008091C00086FFFCCF8091C0008064809301
:10E63000C000872D8052F401EF70F0708F3520F408
:10E64000E40DF51D708204C0E40DF51D8EE280839B
:10E650000894E11CF11C011D111D0894811C911CE2
:10E6600090E18916910409F0C2CF80E190E0A0E02A
:10E67000B0E0A80EB91ECA1EDB1E198AC2010F9493
:10E68000FAF10F94DCF16A94662009F072CF629679
:10E690000FB6F894DEBF0FBECDBFCF91DF911F91B3
:10E6A0000F91FF90EF90DF90CF90BF90AF909F9031
:10E6B0008F907F906F905F904F903F902F90089534
:10E6C0002F923F924F925F926F927F928F929F9282
:10E6D000AF92BF92CF92DF92EF92FF920F931F9370
:10E6E000DF93CF93CDB7DEB7CD53D1400FB6F894BB
:10E6F000DEBF0FBECDBF01E20EBF0FEF0DBF94B75F
:10E70000F894A89514BE80916000886180936000A1
:10E7100010926000789493FF05C0E0910002F091A0
:10E7200001021995279A2F9A8091C00082608093E8
:10E73000C00080E18093C40088E18093C1000000A4
:10E74000EE24FF24870144E0A42EB12CCC24DD2448
:10E7500024C0C5010197F1F70894E11CF11C011DCB
:10E76000111D21E2E2162EE4F20620E0020720E06D
:10E77000120718F031E0C32ED12CC801B70127ECE5
:10E780003BE140E050E00F9441FE611571058105C9
:10E79000910519F485B1805885B98091C00087FD35
:10E7A00003C0C114D104A9F2A6014F5F5F4FC25E3E
:10E7B000DE4F59834883CE51D140C25EDE4F8881FF
:10E7C0009981CE51D140019711F00D9410FEC05D9A
:10E7D000DE4F19821882C053D14060E0C15DDE4F28
:10E7E0001882CF52D14088249924C35DDE4F19820C
:10E7F0001882CD52D140C05EDE4F188219821A8233
:10E800001B82C052D140CE5CDE4F188219821A8220
:10E810001B82C253D140EE24FF2487010BBFF701B6
:10E8200007911691C45CDE4F19830883CC53D14005
:10E830000D940BFEC25EDE4F28813981CE51D1404E
:10E840002130310509F52091C600C25EDE4F1982E4
:10E850001882CE51D14022C02F5F3F4F4F4F5F4FA4
:10E86000213082E138078AE7480780E0580780F0C6
:10E87000C45CDE4FE881F981CC53D140EF5FFF4F9C
:10E8800019F0EE27FF27099420E030E040E050E047
:10E890008091C00087FFE0CF2091C600C35DDE4FAE
:10E8A00048815981CD52D1404F5F5F4FC35DDE4FEC
:10E8B00059834883CD52D140213209F063C64A3092
:10E8C000510508F05FC60894811C911C53E0851621
:10E8D000910409F059C600E010E018C081E280936D
:10E8E000C6008091C00086FFFCCF8091C00080648C
:10E8F0008093C0002F5F3F4F2931310579F70F9486
:10E90000DCF10F5F1F4F0530110519F020E030E0FA
:10E91000E5CF10920A0210920B0210920C02109294
:10E920000D02109206021092070210920802109235
:10E930000902109202021092030210920402109235
:10E9400005028FEE90EE60E00F94F5F180E191EE1C
:10E9500060E00F94C2F18091C00087FFFCCF9091DE
:10E96000C600903608F09F759032B8F09093C600BC
:10E970008091C00086FFFCCF8091C00080648093AE
:10E98000C000A0E2A093C6008091C00086FFFCCF2B
:10E990008091C00080648093C000983409F4D7C18E
:10E9A0009934B8F4923409F459C1933458F490333B
:10E9B00019F1903308F4E3C59F33A1F1903409F0C5
:10E9C000DEC5BDC0953409F470C1963409F0D7C5D1
:10E9D00098C1923509F42BC2933538F49C3409F46C
:10E9E000F5C1913509F0CBC518C2963509F445C279
:10E9F000993509F0C4C567C483E792EE62E00F94CD
:10EA0000F5F110920602109207021092080210927D
:10EA1000090210920A0210920B0210920C0210923C
:10EA20000D0213C18FE792EE62E00F94F5F18FEEC5
:10EA300090EE60E00F94F5F181E291EE60E00F94CA
:10EA4000C2F187EB91EE60E00F94F5F180E391EE77
:10EA500060E00F94C2F184EE90EE60E00F94F5F167
:10EA60008FE391EE60E00F94C2F186E090E061E008
:10EA700070E00F9434F20F94DCF18DE591EE60E0DC
:10EA80000F94C2F189EC91EE60E00F94F5F18EE401
:10EA900091EE60E00F94C2F183EC91EE60E00F9490
:10EAA000F5F18CE691EE60E00F94C2F18EE10F94E7
:10EAB0000DF288E90F940DF281E00F940DF20F949E
:10EAC000DCF18BE791EE60E00F94C2F119E0E0E039
:10EAD000F0E010935700E4918E2F0F940DF20F94F5
:10EAE000DCF18AE891EE60E00F94C2F1E3E0F0E03F
:10EAF00010935700E4918E2F0F940DF20F94DCF1D8
:10EB000089E991EE60E00F94C2F1E2E0F0E0109349
:10EB10005700E4918E2F0F940DF20F94DCF188EAE8
:10EB200091EE60E00F94C2F1E1E0F0E01093570045
:10EB30001491812F0F940DF20F94DCF107CF8BE825
:10EB400092EE62E00F94F5F18BE492EE60E00F94A8
:10EB5000F5F10F94DCF100E010E019C0C8016F2D51
:10EB60000F947FFEFF2031F489E492EE60E00F9471
:10EB7000C2F10BC0F092C6008091C00086FFFCCFAE
:10EB80008091C00080648093C0000F5F1F4FC80158
:10EB900081519F41A0E0B0E0ABBFFC01F790BAE229
:10EBA000FB1621F0E2E000301E07C1F60F94DCF105
:10EBB0000F94DCF187E592EE60E00F94F5F10F948D
:10EBC000DCF1CC24DD2400E010E01EC0C8010F946D
:10EBD00077FEF82E882331F489E492EE60E00F94FA
:10EBE000C2F10BC08093C6008091C00086FFFCCFAD
:10EBF0008091C00080648093C000FE1419F00894D6
:10EC0000C11CD11C0F5F1F4FC80181519F41A0E063
:10EC1000B0E0ABBFFC01E790FAE2EF1621F022E092
:10EC20000030120799F60F94DCF10F94DCF182E6C4
:10EC300092EE60E00F94C2F1C60161E070E00F94C3
:10EC400034F20F94DCF10F94DCF110920202109276
:10EC50000302109204021092050278CE89E992EE26
:10EC600062E00F94F5F1279A2F9A16C02F9880E052
:10EC700090E0E0EDF7E03197F1F7019684369105E9
:10EC8000C1F72F9A80E090E0E0EDF7E03197F1F7DF
:10EC9000019684369105C1F78091C00087FFE6CFC9
:10ECA0008091C00087FFFCCF64C485EA92EE62E0E9
:10ECB0000F94F5F140910202509103026091040219
:10ECC0007091050281E020E10F9491F2809102029F
:10ECD00090910302A0910402B091050280509F4FD1
:10ECE000AF4FBF4F8093020290930302A0930402A0
:10ECF000B093050280509041A040B04008F426CE69
:10ED0000A4CF83EB92EE62E00F94F5F140910602FE
:10ED100050910702609108027091090280E020E1A1
:10ED20000F9491F28091060290910702A09108023F
:10ED3000B091090280509F4FAF4FBF4F80930602A2
:10ED400090930702A0930802B0930902FFCD80ECD4
:10ED500092EE62E00F94F5F183E792EE60E00F949B
:10ED6000F5F18FE792EE60E00F94F5F18BE892EE0B
:10ED700060E00F94F5F189E992EE60E00F94F5F10F
:10ED800085EA92EE60E00F94F5F183EB92EE60E09D
:10ED90000F94F5F180EC92EE60E00F94F5F187ECC2
:10EDA00092EE60E00F94F5F188ED92EE60E00F9442
:10EDB000F5F18FED92EE60E00F94F5F18AEE92EEB0
:10EDC00060E00F94F5F183E093EEBDCD87EC92EE19
:10EDD00062E00F94F5F181E40F947BF282E40F94EA
:10EDE0007BF283E40F947BF284E40F947BF285E45E
:10EDF0000F947BF286E40F947BF287E40F947BF20E
:10EE000088E40F947BF28AE40F947BF28BE40F94F6
:10EE10007BF28CE40F947BF299CD88ED92EE62E068
:10EE20000F94F5F1772473948824992409C48FED05
:10EE300092EE62E00F94F5F140910A0250910B02BC
:10EE400060910C0270910D0282E020E10F9491F22A
:10EE500080910A0290910B02A0910C02B0910D02D8
:10EE600080509F4FAF4FBF4F80930A0290930B0289
:10EE7000A0930C02B0930D0269CD8AEE92EE62E08F
:10EE80000F94F5F184EE90EE60E00F94F5F18FECC5
:10EE900091EE60E00F94F5F1662477244301CC5D98
:10EEA000DE4F19821882C452D140D401C301B695F5
:10EEB000A79597958795CA5DDE4F88839983AA8326
:10EEC000BB83C652D140CC5DDE4FA881B981C4520C
:10EED000D1401196CC5DDE4FB983A883C452D14096
:10EEE000CD0162E070E00F9434F2B0E2B093C6005E
:10EEF0008091C00086FFFCCF8091C0008064809329
:10EF0000C000EDE2E093C6008091C00086FFFCCF18
:10EF10008091C00080648093C000F0E2F093C6004E
:10EF20008091C00086FFFCCF8091C00080648093F8
:10EF3000C000CA5DDE4FE880F9800A811B81C6529D
:10EF4000D140BB27A12F902F8F2D0F940DF2CA5DBA
:10EF5000DE4F8881C652D1400F940DF2B0E2FB2EF5
:10EF6000F092C6008091C00086FFFCCF8091C00067
:10EF700080648093C0000DE30093C6008091C000C0
:10EF800086FFFCCF8091C00080648093C00010E2B7
:10EF90001093C6008091C00086FFFCCF8091C00016
:10EFA00080648093C0008BBEF3012791C65DDE4F65
:10EFB0002883CA52D140A22EBB24CC24DD2408943D
:10EFC000611C711C811C911C8BBEF3018791282E42
:10EFD0003324442455240894611C711C811C911C09
:10EFE0008BBEF3013791C55DDE4F3883CB52D140E4
:10EFF0000894611C711C811C911C8BBEF30147910C
:10F00000C45DDE4F4883CC52D140ADEFEA2EAFEF66
:10F01000FA2EAFEF0A2FAFEF1A2F6E0C7F1C801E57
:10F02000911E142D032DF22CEE24EA0CFB1C0C1D5A
:10F030001D1D0F940DF220E22093C6008091C000A8
:10F0400086FFFCCF8091C00080648093C000C65DC5
:10F05000DE4F8881CA52D1400F940DF230E23093D6
:10F06000C6008091C00086FFFCCF8091C000806404
:10F070008093C000C45DDE4F8881CC52D1400F9494
:10F080000DF240E24093C6008091C00086FFFCCFA5
:10F090008091C00080648093C000C55DDE4F888190
:10F0A000CB52D1400F940DF250E25093C6008091A4
:10F0B000C00086FFFCCF8091C00080648093C000B8
:10F0C0008FEFE8168FEFF80680E0080780E018075A
:10F0D00031F484E092EE60E00F94C2F1DFC0D80119
:10F0E000C7018070907CA070B0708050904CA040A0
:10F0F000B040D1F52FEF3FE340E050E0E222F322B1
:10F1000004231523CA5DDE4FA880B980CA80DB8046
:10F11000C652D140AE0CBF1CC01ED11EAA0CBB1CD7
:10F12000CC1CDD1C8EE092EE60E00F94C2F1BB2798
:10F13000A12F902F8F2D0F940DF28E2D0F940DF285
:10F1400030E23093C6008091C00086FFFCCF8091F2
:10F15000C00080648093C0004EE34093C60080915D
:10F16000C00086FFFCCF87C08EE09EEFA0E0B0E03D
:10F17000E822F9220A231B239CE0E91694E9F90608
:10F1800090E0090790E0190709F088C0C45DDE4FE0
:10F19000A881CC52D140EA2EFF2400E010E0102FCD
:10F1A0000F2DFE2CEE24C55DDE4FB881CB52D14031
:10F1B000EB0EF11C011D111DD601C501817090706F
:10F1C000A070B070DC0199278827E80EF91E0A1F8D
:10F1D0001B1F20EF30E040E050E0A222B322C42207
:10F1E000D52241E1AA0CBB1CCC1CDD1C4A95D1F7F1
:10F1F000EA0CFB1C0C1D1D1D81E090E0A0E0B0E0BE
:10F20000282239224A225B2235E1220C331C441C7D
:10F21000551C3A95D1F7E20CF31C041D151D57013E
:10F220006801AA0CBB1CCC1CDD1C85E192EE60E0E1
:10F230000F94C2F1C801AA27BB270F940DF2BB2778
:10F24000A12F902F8F2D0F940DF28E2D0F940DF274
:10F2500090E29093C6008091C00086FFFCCF809121
:10F26000C00080648093C000AEE3A093C60080918C
:10F27000C00086FFFCCF8091C00080648093C000F6
:10F28000C601AA27BB270F940DF2BB27AD2D9C2DDD
:10F290008B2D0F940DF28A2D0F940DF20F94DCF14B
:10F2A000CC5DDE4FE881F981C452D140F99709F471
:10F2B0004DCBF4E0EF2EF12C012D112D6E0C7F1CA7
:10F2C000801E911EF2CD83E093EE62E00F94F5F183
:10F2D0008AE192EE60E00F94C2F18091C00087FF56
:10F2E000FCCF1091C6001F751093C6008091C0001E
:10F2F00086FFFCCF8091C00080648093C0000F9493
:10F30000DCF1812F81548A3108F036C1163409F4BA
:10F3100095C0173490F4133409F44EC0143430F40B
:10F320001134F1F0123409F01DC130C0143409F465
:10F3300059C0153409F016C16BC01A3409F4C4C0A1
:10F340001B3438F4173409F48FC0183409F00AC19B
:10F35000A1C01B3409F4D2C01C3409F003C1E8C0B9
:10F360008FEF81B90DC082B1809582B980E090E0C5
:10F37000E0EDF7E03197F1F70196883C9105C1F790
:10F380008091C00087FFEFCF12B8EFC08FEF84B934
:10F390000DC085B1809585B980E090E0E0EDF7E0A3
:10F3A0003197F1F70196883C9105C1F78091C00033
:10F3B00087FFEFCF15B8D9C08FEF87B90DC088B1DF
:10F3C000809588B980E090E0E0EDF7E03197F1F7C3
:10F3D0000196883C9105C1F78091C00087FFEFCF6F
:10F3E00018B8C3C08FEF8AB90DC08BB180958BB9A7
:10F3F00080E090E0E0EDF7E03197F1F70196883C8E
:10F400009105C1F78091C00087FFEFCF1BB8ADC059
:10F410008FEF8DB90DC08EB180958EB980E090E0F0
:10F42000E0EDF7E03197F1F70196883C9105C1F7DF
:10F430008091C00087FFEFCF1EB897C08FEF80BBD1
:10F440000DC081B3809581BB80E090E0E0EDF7E0F6
:10F450003197F1F70196883C9105C1F78091C00082
:10F4600087FFEFCF11BA81C08FEF83BB0DC084B38C
:10F47000809584BB80E090E0E0EDF7E03197F1F714
:10F480000196883C9105C1F78091C00087FFEFCFBE
:10F4900014BA6BC08FEF809301010FC080910201FD
:10F4A00080958093020180E090E0E0EDF7E03197F5
:10F4B000F1F70196883C9105C1F78091C00087FF64
:10F4C000EDCF1092020151C08FEF809304010FC065
:10F4D0008091050180958093050180E090E0E0ED4A
:10F4E000F7E03197F1F70196883C9105C1F78091DB
:10F4F000C00087FFEDCF1092050137C08FEF8093DA
:10F5000007010FC08091080180958093080180E079
:10F5100090E0E0EDF7E03197F1F70196883C910536
:10F52000C1F78091C00087FFEDCF109208011DC088
:10F530008FEF80930A010FC080910B01809580931B
:10F540000B0180E090E0E0EDF7E03197F1F70196F4
:10F55000883C9105C1F78091C00087FFEDCF1092E4
:10F560000B0103C085E292EEEEC98091C00087FFD7
:10F57000FCCF8091C600EAC988E392EEE4C98CE131
:10F5800091EEE1C988249924933011F1943028F444
:10F59000913089F09230B8F408C0953061F195301F
:10F5A000F0F0963009F048C043C02B3109F042C951
:10F5B00091E06BE13FC96227C15DDE4F2883CF52E6
:10F5C000D14092E037C9B22FA0E0622793E032C960
:10F5D000822F90E0A82BB92B622794E02BC92E3004
:10F5E00009F039C3622795E0C05DDE4F19821882A9
:10F5F000C053D1401FC9E1E0F0E0EC0FFD1FC05D3A
:10F60000DE4F08811981C053D140E00FF11F2083E4
:10F610000F5F1F4FC05DDE4F19830883C053D14079
:10F6200062270A171B0709F005C9D80196E002C92D
:10F63000261709F010C303C0973009F0FBC87724E0
:10F640009981933109F412C19431C8F4963009F4C8
:10F65000D8C0973050F4923009F406C1933009F4C1
:10F660006DC0913009F059C253C0913109F477C08F
:10F67000923108F0BBC0903109F04FC2F5C098310B
:10F6800009F487C0993150F4953109F4EFC09531F0
:10F6900008F4C6C1963109F040C2C2C19A3109F4DA
:10F6A0006CC09A3108F491C09B3109F45BC09D3164
:10F6B00009F033C29D81903359F48F81882311F46E
:10F6C0009EE11CC0813011F091E018C098E916C08D
:10F6D000892F807591F0903539F4E0E0F0E089E011
:10F6E0008093570094910AC0983539F4E3E0F0E034
:10F6F00089E080935700949101C090E01A821B82A8
:10F700008D818C831D829E831F8227E030E009C299
:10F710001A8288E08B8381E48C8386E58D8382E581
:10F720008E8389E48F8383E5888780E589878FE5E9
:10F730008A8782E38B872BE030E0F3C18A818139AD
:10F7400041F0823941F0803911F48FE005C080E04A
:10F7500003C082E001C08AE01A828B8344C0772410
:10F76000739482C08D81882311F48EE12CC0813086
:10F7700011F081E028C088E926C01A82E1E0F0E0BB
:10F7800089E08093570084918B831C8224E030E0D1
:10F79000C8C18B81803589F48C81883039F4E2E0EE
:10F7A000F0E089E08093570084910DC0E0E0F0E044
:10F7B00089E080935700849106C0E3E0F0E089E09F
:10F7C0008093570084911A82DFCF8D81836C99E0FA
:10F7D000E1E0F0E0082E90935700E89507B600FCB2
:10F7E000FDCF1A821B8223E030E09BC180EC8A832C
:10F7F000CE5CDE4F188219821A821B82C253D1401E
:10F800008EC18A8190E0A0E0B0E0582F44273327D2
:10F8100022278B8190E0A0E0B0E0DC0199278827C7
:10F82000282B392B4A2B5B2B8D8190E0A0E0B0E098
:10F83000282B392B4A2B5B2B8C8190E0A0E0B0E089
:10F84000BA2FA92F982F8827282B392B4A2B5B2BCF
:10F85000220F331F441F551FC05EDE4F288339839C
:10F860004A835B83C052D1401A8259C13A81C95C34
:10F87000DE4F3883C753D140CA5CDE4F1882C6536F
:10F88000D1408B81C82EDD24CA5CDE4F488159816E
:10F89000C653D140C42AD52A933109F082C0CE5C28
:10F8A000DE4F88819981AA81BB81C253D1408050AB
:10F8B000904CA340B04030F583E0CE5CDE4FE88052
:10F8C000F9800A811B81C253D140F70100935B008C
:10F8D00080935700E89507B600FCFDCFCE5CDE4F65
:10F8E000088119812A813B81C253D14000501F4FAA
:10F8F0002F4F3F4FCE5CDE4F088319832A833B8313
:10F90000C253D140C05EDE4F488159816A817B81FC
:10F91000C052D140DE011B9631E08C9111962C91A2
:10F9200011971296C75CDE4F2883C953D140C85C3B
:10F93000DE4F1882C853D14090E0C85CDE4FE881AA
:10F94000F981C853D1408E2B9F2B0C01FA01609393
:10F950005B0030935700E89511244E5F5F4F6F4F67
:10F960007F4F0EEFE02E0FEFF02ECE0CDF1CC114F8
:10F97000D10499F685E0C05EDE4F088119812A81A5
:10F980003B81C052D140F80120935B008093570027
:10F99000E89507B600FCFDCF81E180935700E8951C
:10F9A00035C0C05EDE4F88819981AA81BB81C0527B
:10F9B000D140B695A795979587957C018601ABE0D8
:10F9C000AA2EB12CAC0EBD1E0BC0D5016D915D01F0
:10F9D000C7010F947FFE0894E11CF11C01501040F8
:10F9E0000115110591F7A60160E070E0440F551F65
:10F9F000661F771FC05EDE4FE880F9800A811B8199
:10FA0000C052D1404E0D5F1D601F711F1A82C05E33
:10FA1000DE4F488359836A837B83C052D1407FC0C5
:10FA2000FA80C55CDE4FF882CB53D140C65CDE4F16
:10FA30001882CA53D1408B81C82EDD24C65CDE4FAC
:10FA400008811981CA53D140C02AD12A1A828981DA
:10FA5000BE016D5F7F4F843121F59601C05EDE4FA0
:10FA6000E880F9800A811B81C052D1400BBFF701A9
:10FA700087919691DB018C9311969C936E5F7F4FDB
:10FA8000D801C7010296A11DB11DC05EDE4F88835B
:10FA90009983AA83BB83C052D14022503040F1F6F3
:10FAA00036C0C05EDE4F288139814A815B81C052F9
:10FAB000D1400894C108D108760100E010E0089414
:10FAC000C11CD11C0894E11CF11C011D111DE20E8A
:10FAD000F31E041F151F21BDBB27A52F942F832FB5
:10FAE00082BD2F5F3F4F4F4F5F4FF89A80B5DB01CC
:10FAF0008D93BD012E153F054007510761F7C05E8C
:10FB0000DE4F288339834A835B83C052D1409601FC
:10FB10002D5F3F4FFB01108204C080EC8A8322E0FE
:10FB200030E08BE18093C6008091C00086FFFCCF5F
:10FB30008091C00080648093C000C15DDE4FF88179
:10FB4000CF52D140F093C6008091C00086FFFCCF19
:10FB50008091C00080648093C000432F3093C60022
:10FB60008091C00086FFFCCF8091C00080648093AC
:10FB7000C000922F2093C6008091C00086FFFCCF6A
:10FB80008091C00080648093C0008EE08093C600A6
:10FB90008091C00086FFFCCF8091C000806480937C
:10FBA000C00065E1C15DDE4FE880CF52D1406E25D7
:10FBB00069276427FE01319610C090819093C6009A
:10FBC0008091C00086FFFCCF31968091C000806498
:10FBD0008093C0006927215030402115310569F715
:10FBE0006093C6008091C00086FFFCCF8091C0006A
:10FBF00080648093C00085B1805885B9772081F4F6
:10FC0000C15DDE4F0881CF52D1400F5FC15DDE4F35
:10FC10000883CF52D14090E0A0E0B0E00D941AF4F8
:10FC200027982F9880E090E020ED37E0F901319798
:10FC3000F1F7019684369105C9F700008091C00064
:10FC40008D7F8093C00081E180935700E895EE2777
:10FC5000FF270994FFCF90E00D941AF497FB092E2B
:10FC600007260AD077FD04D02ED006D000201AF443
:10FC7000709561957F4F0895F6F7909581959F4F08
:10FC80000895A1E21A2EAA1BBB1BFD010DC0AA1FDD
:10FC9000BB1FEE1FFF1FA217B307E407F50720F0F5
:10FCA000A21BB30BE40BF50B661F771F881F991F70
:10FCB0001A9469F760957095809590959B01AC01B9
:10FCC000BD01CF010895AA1BBB1B51E107C0AA1FAC
:10FCD000BB1FA617B70710F0A61BB70B881F991FED
:10FCE0005A95A9F780959095BC01CD010895F99991
:10FCF000FECF92BD81BDF89A992780B50895262F31
:10FD0000F999FECF1FBA92BD81BD20BD0FB6F89400
:0EFD1000FA9AF99A0FBE01960895F894FFCF63
:040000033000E000E9
:00000001FF