:100000000C9462000C948A000C948A000C948A0070
:100010000C948A000C948A000C948A000C948A0038
:100020000C948A000C948A000C948A000C948A0028
:100030000C948A000C948A000C948A000C948A0018
:100040000C946F060C948A000C943D060C941706D1
:100050000C948A000C948A000C948A000C948A00F8
:100060000C948A000C948A000000000025002800EF
:100070002B000000000023002600290000000008DB
:10008000000201000003040700000000000000005F
:1000900000000000240027002A00010204081020AC
:1000A000408001020408102001020408102004040A
:1000B0000404040404040202020202020303030310
:1000C0000303B90611241FBECFEFD8E0DEBFCDBFBA
:1000D00011E0A0E0B1E0E2EEFBE102C005900D927C
:1000E000AE3DB107D9F722E0AEEDB1E001C01D92FF
:1000F000AB3BB207E1F710E0C2E6D0E004C02197C5
:10010000FE010E94F70BC136D107C9F70E94C9074B
:100110000C94EF0D0C940000E82F880FFF0BEC55AA
:10012000FE4FCB010896DB012D91BD0121938A176B
:100130009B07C9F708951F93CF93DF9390E0A62FF5
:10014000062E000CBB0BA41BB50B282F33272195C3
:100150000CF43095E9019D01240F351F2131310543
:10016000BCF4162F190FFA012191AF0130E087FF7F
:1001700015C00C2E01C0220F0A94EAF7E12FF0E01F
:10018000EC55FE4F2095308123232083913021F4BC
:10019000DF91CF911F91089591E0DDCF082E02C02D
:1001A000359527950A94E2F7E9CFCF92DF92EF9247
:1001B000FF920F931F93DA0190E0062E000C770B4D
:1001C0007B01E41AF50AE0E1F0E0E81BF10987FDA4
:1001D000F39597012A0F3B1F37FD34C0A92FB0E0DC
:1001E0006A0F7B1FFB01EC55FE4FA40FB51F60E1AA
:1001F00070E0681B710987FD73959F01245A314097
:10020000213131059CF1FA01E90FF11D20E130E0C7
:10021000281B310987FD3395923009F44BC0419179
:1002200050E070E060E0022E04C0440F551F661FCE
:10023000771F0A94D2F7452B462B472B09F042C073
:100240009F5FEACF923051F20D9110E030E020E054
:100250000E2E04C0000F111F221F331F0A94D2F765
:10026000012B022B032B71F59F5FB3CF923011F15D
:10027000C190D12CF12CE12C7601DD24CC242D91E0
:10028000022F10E030E020E0062E04C0000F111F06
:10029000221F331F0A94D2F7CC24CA94DC2CFD2CE5
:1002A0000C211D212E213F21012B022B032B51F468
:1002B0009F5FA3CF80E01F910F91FF90EF90DF90A1
:1002C000CF90089581E0F7CF2091A50228306CF5FA
:1002D000E091A602E1314CF58091000190E0422FBF
:1002E000022E000C550B27FD21C0022E02C0959551
:1002F00087950A94E2F7AE2FB0E0AC55BE4F9C91C3
:10030000892B8C93E03189F0EF5F8091010190E0BF
:1003100027FD15C002C0959587952A95E2F7F0E074
:10032000EC55FE4F9081892B8083089566277727AF
:10033000641B750B01C0880F6A95EAF7DCCF5195F5
:100340004195510901C0880F4A95EAF7E8CFCF934C
:10035000C82F8091A502883044F46091A6026131D3
:1003600024F440E051E00E949B008091A502C80F58
:10037000C63028F00E94640181E0CF91089540E0EA
:1003800051E06091A6028C2F0E94D500811103C01C
:10039000C093A502EFCF80E0F0CFAF92BF92CF9293
:1003A000DF92EF92FF920F931F93CF93DF936C0135
:1003B0007B018B01040F151FEB015E01AE18BF0816
:1003C000C017D10759F06991D601ED91FC910190C8
:1003D000F081E02DC6010995892B79F7C501DF91E0
:1003E000CF911F910F91FF90EF90DF90CF90BF9032
:1003F000AF900895FC01538D448D252F30E0842F5C
:1004000090E0821B930B541710F0CF96089501973C
:100410000895FC01918D828D981761F0A28DAE0F29
:10042000BF2FB11D5D968C91928D9F5F9F73928FB0
:1004300090E008958FEF9FEF0895FC01918D828DDC
:10044000981731F0828DE80FF11D858D90E00895A9
:100450008FEF9FEF0895FC01918D228D892F90E001
:10046000805C9F4F821B91098F739927089582E0CA
:1004700092E00E942B0221E0892B09F420E0822FD8
:10048000089580E090E0892B29F00E9437028111C5
:100490000C9400000895FC01A48DA80FB92FB11D84
:1004A000A35ABF4F2C91848D90E001968F739927AA
:1004B000848FA689B7892C93A089B1898C91837088
:1004C00080648C93938D848D981306C00288F38981
:1004D000E02D80818F7D80830895EF92FF920F93AE
:1004E0001F93CF93DF93EC0181E0888F9B8D8C8DE0
:1004F00098131AC0E889F989808185FF15C09FB7D4
:10050000F894EE89FF896083E889F9898081837096
:10051000806480839FBF81E090E0DF91CF911F9145
:100520000F91FF90EF900895F62E0B8D10E00F5F66
:100530001F4F0F731127E02E8C8D8E110CC00FB63C
:1005400007FCFACFE889F989808185FFF5CFCE01D4
:100550000E944B02F1CFEB8DEC0FFD2FF11DE35A02
:10056000FF4FF0829FB7F8940B8FEA89FB89808157
:100570008062CFCFCF93DF93EC01888D8823B9F0D1
:10058000AA89BB89E889F9898C9185FD03C080819E
:1005900086FD0DC00FB607FCF7CF8C9185FFF2CF1B
:1005A000808185FFEDCFCE010E944B02E9CFDF9124
:1005B000CF910895833081F028F4813099F0823012
:1005C000A9F008958730A9F08830C9F08430B1F4DB
:1005D000809180008F7D03C0809180008F77809311
:1005E0008000089584B58F7784BD089584B58F7D8C
:1005F000FBCF8091B0008F778093B00008958091F9
:10060000B0008F7DF9CFCF93DF93282F30E0F90131
:10061000E458FF4F8491F901E656FF4FD491F90158
:10062000E255FF4FC491CC23A1F081110E94DA0260
:10063000EC2FF0E0EE0FFF1FEE58FF4FA591B491A5
:10064000EC91ED2381E090E009F480E0DF91CF911F
:10065000089580E090E0FACF1F93CF93DF93282F87
:1006600030E0F901E458FF4F8491F901E656FF4F5D
:10067000D491F901E255FF4FC491CC23A9F0162F74
:1006800081110E94DA02EC2FF0E0EE0FFF1FE85913
:10069000FF4FA591B4918FB7F894EC91111108C058
:1006A000D095DE23DC938FBFDF91CF911F9108950A
:1006B000DE2BF8CFBF92CF92DF92EF92FF920F9393
:1006C0001F93CF93DF938C0160E08091AF020E9473
:1006D0002C038091B3029091B4027C0121E0E21AD4
:1006E000F108080F191FF7FC28C0F801C2918F010B
:1006F000B090B102D090AD02C090AB02D8E06C2FA8
:10070000B11013C061708C2D0E942C03C69561E05E
:100710008D2D0E942C0360E08D2D0E942C03D15062
:1007200071F7F1E0EF1AF108DECF661F6627661F4A
:100730008C2D0E942C03CC0FEACF61E08091AF0298
:10074000DF91CF911F910F91FF90EF90DF90CF90AD
:10075000BF900C942C031F93CF93DF93C82F162FB9
:1007600060E08091B5020E942C03CEBD00000DB464
:1007700007FEFDCFCEB5D0E0DC2FCC271EBD00009C
:100780000DB407FEFDCF8EB5C82B61E08091B50298
:100790000E942C03CE01DF91CF911F910895CF933A
:1007A000DF9390E0FC01E656FF4F249182559F4F66
:1007B000FC0184918823D1F090E0880F991FFC01FF
:1007C000E057FF4FA591B491FC01E859FF4FC59147
:1007D000D491623071F49FB7F8943C91822F809548
:1007E00083238C93E8812E2B28839FBFDF91CF91A9
:1007F00008958FB7F894EC912E2B2C938FBFF6CFE2
:100800002FB7F8946091E3017091E4018091E501C4
:100810009091E6012FBF0895CF93DF93EC0188817B
:100820009981009711F00E94990C198218821D82FB
:100830001C821B821A82DF91CF910895FC01808176
:100840009181009711F00C94990C0895E4EAF1E07D
:1008500081E1DF011D928A95E9F70895FC0101907D
:100860000020E9F73197AF01481B590BBC0182E02A
:1008700092E00C94CD018F929F92AF92BF92CF9253
:10088000DF92EF92FF92CF93DF93CDB7DEB7A197C0
:100890000FB6F894DEBF0FBECDBF81ED91E00E9490
:1008A0002E04C090A8020C2C000CDD08EE08FF08F6
:1008B000F7FE70C06DE282E092E00E946D02222796
:1008C0003327A9012C193D094E095F0919A2CE0150
:1008D00081967C019AE0892E912CA12CB12CCA0121
:1008E000B901A50194010E94C60B605DF7016293F6
:1008F0007F01211531054105510589F7E114F10406
:1009000019F0C7010E942E0488ED91E00E942E0488
:100910002091A70228306CF5E091A802E1314CF556
:100920008091020190E0422F022E000C550B27FD12
:100930004CC0022E02C0959587950A94E2F7AE2F1F
:10094000B0E0AC55BE4F9C91892B8C93E03189F07F
:10095000EF5F8091030190E027FD40C002C09595B4
:1009600087952A95E2F7F0E0EC55FE4F9081892BB0
:100970008083A1960FB6F894DEBF0FBECDBFDF9186
:10098000CF91FF90EF90DF90CF90BF90AF909F906E
:100990008F900895A701960119A2CE0181967C013E
:1009A0008AE0882E912CA12CB12CCA01B901A50195
:1009B00094010E94C60B605DF70162937F012115CF
:1009C00031054105510589F799CF66277727641BC3
:1009D000750B01C0880F6A95EAF7B1CF5195419523
:1009E000510901C0880F4A95EAF7BDCF0F931F93B5
:1009F000CF93DF93EC0188819981009759F02A8188
:100A00003B812617370730F081E0DF91CF911F91AE
:100A10000F9108958B016F5F7F4F0E94220D009709
:100A200059F0998388831B830A832C813D81232B72
:100A300059F7FC011082E8CF80E0E7CFEF92FF92F8
:100A40000F931F93CF93DF93EC017B018A01BA01CF
:100A50000E94F60481110BC0CE010E940C04CE014D
:100A6000DF91CF911F910F91FF90EF9008951D831B
:100A70000C83B701888199810E94E80DF0CFCF9255
:100A8000DF92EF92FF920F931F93CF93DF93CDB737
:100A9000DEB765970FB6F894DEBF0FBECDBFF82E58
:100AA000198A188A1B8A1A8A1D8A1C8A4AE08E01B2
:100AB0000F5F1F4FB80190E00E94330BF8010190C7
:100AC0000020E9F73197AF01401B510BB801CE016F
:100AD00040960E941E0588E08F1508F452C01B86C0
:100AE0001A861D861C861F861E8641E050E06BED2F
:100AF00071E0CE010A960E941E051A8219821C829C
:100B00001B821E821D826A857B856115710529F015
:100B10004E855F85C8010E941E05C888D988C1140A
:100B2000D10409F475C0EC88FD88E114F104B1F03A
:100B30008D819E81E80EF91EB701C8010E94F6045E
:100B4000882309F465C029813A818D819E81B6018F
:100B5000820F931F0E94E80DFE82ED8269817A81E7
:100B60006115710509F458C04D815E81CE01409632
:100B70000E941E05C8010E941E04CE010A960E9412
:100B80001E042C893D89C90102978217930728F416
:100B9000E889F989309709F044C010920102E1E038
:100BA000F2E080818652A901415051094217530752
:100BB00020F4E889F9893097B9F510920102E1E053
:100BC000F2E01081165298E0899FB00111246C5F09
:100BD0007E4F80E00E948C0088E0189FB0011124B5
:100BE0006C5F7E4F88E00E948C00CE0140960E9490
:100BF0001E0465960FB6F894DEBF0FBECDBFDF9121
:100C0000CF911F910F91FF90EF90DF90CF900895BB
:100C1000C8010E940C04A2CFCE0140960E940C0491
:100C2000A9CFE80FF91FBDCFE40FF51FCACF1F9260
:100C30000F920FB60F9211242F933F934F935F9310
:100C40006F937F938F939F93AF93BF93EF93FF9394
:100C500082E092E00E944B02FF91EF91BF91AF9131
:100C60009F918F917F916F915F914F913F912F91C4
:100C70000F900FBE0F901F9018951F920F920FB6F6
:100C80000F9211242F938F939F93EF93FF93E091F3
:100C90001202F09113028081E0911802F091190282
:100CA00082FD1BC0908180911B028F5F8F7320910A
:100CB0001C02821741F0E0911B02F0E0EE5FFD4F55
:100CC000958F80931B02FF91EF919F918F912F91B0
:100CD0000F900FBE0F901F9018958081F4CF1F9238
:100CE0000F920FB60F9211242F933F938F939F93E0
:100CF000AF93BF938091E3019091E401A091E5014E
:100D0000B091E6013091E20123E0230F2D3758F531
:100D10000196A11DB11D2093E2018093E301909300
:100D2000E401A093E501B093E6018091DE0190918A
:100D3000DF01A091E001B091E1010196A11DB11D7B
:100D40008093DE019093DF01A093E001B093E10175
:100D5000BF91AF919F918F913F912F910F900FBEB7
:100D60000F901F90189526E8230F0296A11DB11D24
:100D7000D2CF0F931F93CF93DF931092050210925F
:100D8000040288EE93E0A0E0B0E080930602909326
:100D90000702A0930802B093090283EC91E09093BC
:100DA00003028093020285EC90E090930F028093FF
:100DB0000E0284EC90E0909311028093100280EC7C
:100DC00090E0909313028093120281EC90E0909354
:100DD00015028093140282EC90E0909317028093A6
:100DE000160286EC90E090931902809318021092FC
:100DF0001B0210921C0210921D0210921E028AE029
:100E000090E09093B6028093B50261E00E94CF0318
:100E100061E08091B5020E942C03CFB7F8948091D5
:100E20009F02811127C0E8EBF0E08491E4EAF0E052
:100E30009491E82FF0E0EE0FFF1FE057FF4FA591D0
:100E4000B491EC91E92321F461E08AE00E942C0343
:100E500061E08AE00E94CF038CB580618CBD8CB5C7
:100E600080648CBD61E08DE00E94CF0361E08BE087
:100E70000E94CF0380919F028F5F80939F02CFBF1C
:100E800080E58CBD81E08DBD60E08CE00E94AB030D
:100E900067E08AE00E94AB0367E08BE00E94AB034F
:100EA00060E089E00E94AB0360E08FE00E94AB034A
:100EB00061E08CE00E94AB03C1E060E08C2F0E94F7
:100EC000AB03CF5FC930C9F787E090E09093AC02E5
:100ED0008093AB0286E090E09093AE028093AD02E7
:100EE00085E090E09093B0028093AF021092B2023E
:100EF0001092B10282E090E09093B4028093B3022A
:100F000061E087E00E94CF0361E08091AD020E9422
:100F1000CF0361E08091AF020E94CF030091B30242
:100F20001091B402C8010E94FD0BEC01FC01CF013D
:100F30008C1B9D0B8017910714F41192F8CF03308E
:100F4000110518F4CE010E945A03209719F0CE0122
:100F50000E94990C1092A0021092A1021092A2027B
:100F60001092A3021092A4028EE08093A60283E066
:100F70008093A5021092A9028093A7028FEF80931D
:100F8000A80281E08093AA02DF91CF911F910F9177
:100F90000895CF93DF9300D000D0CDB7DEB778941B
:100FA00084B5826084BD84B5816084BD85B582606E
:100FB00085BD85B5816085BD80916E00816080931F
:100FC0006E00109281008091810082608093810088
:100FD0008091810081608093810080918000816098
:100FE000809380008091B10084608093B1008091F3
:100FF000B00081608093B00080917A00846080931B
:101000007A0080917A00826080937A0080917A00E1
:10101000816080937A0080917A00806880937A0062
:101020001092C10080E480937C0080917A008064FB
:1010300080937A0080917A0086FDFCCF80917800C1
:1010400060917900762F682F072E000C880B990B82
:10105000611571058105910511F00E942A0B62E06E
:1010600082E00E94CF0362E083E00E94CF0362E04F
:1010700084E00E94CF0362E088E00E94CF030E94D8
:101080002604E0911202F091130282E08083E09145
:101090000E02F0910F021082E0911002F091110205
:1010A0008FEC808310921A02E0911602F0911702E1
:1010B00086E08083E0911402F091150280818061C6
:1010C0008083E0911402F091150280818860808312
:1010D000E0911402F0911502808180688083E09194
:1010E0001402F091150280818F7D80832224239445
:1010F000312C2FE0A22EB12C36E0432E512C612C46
:10110000712C40E0C42E40E0D42E99249394109189
:10111000E901212F30E03C832B83C101012E01C066
:10112000880F0A94EAF780958093E701F901EC555E
:10113000FE4F80818093E8018091B3029091B402C8
:10114000039720F487EE91E00E945A0301E0010F1B
:10115000183058F4F5018B819C81E81BF90BEC5594
:10116000FE4F6081802F0E94AB0307700093E9015E
:1011700080910002883008F45BC0109200028090D9
:10118000FE018092FD019091EC0199839093ED0115
:101190002091F8012A832093EE0184E00E9403034A
:1011A0009C838B8381E02B813C81232B09F080E0A1
:1011B0008093FE0182E00E9403037C0181E0E11440
:1011C000F10409F080E08093EC0183E00E940303C6
:1011D0008C0181E00115110509F080E08093F80190
:1011E000E091FF01E73020F5F0E0E750F74F0C9475
:1011F000F70B000929095309A5093C0A6C0A830A5F
:101200001092A4018B819C81892B71F481100CC0F8
:101210000E9400046093F9017093FA018093FB012E
:101220009093FC019092FF01012B11F41092A50103
:10123000809100028F5F80930002C114D10409F4F1
:1012400066CF0E943702882309F461CF0E94000014
:101250005ECF9092A4010E9400040091F9011091C8
:10126000FA012091FB013091FC01601B710B820B94
:10127000930B683B7B408105910560F01092F9016A
:101280001092FA011092FB011092FC010E942604B8
:1012900082E046C08B819C81892B51F28110C8CF9E
:1012A0001092FF01C5CF8091F001811105C09DE032
:1012B0009093EF019092F0010E9400040091F901D7
:1012C0001091FA012091FB013091FC01601B710B20
:1012D000820B930B683E73408105910590F10E944B
:1012E00000046093F9017093FA018093FB019093DD
:1012F000FC013091EF013983632F330F770B6B3093
:1013000071058CF48DE08093EF010E94260480919A
:10131000A902811102C00E943B040E94640183E083
:101320008093FF0185CF83E0660F771F8A95E1F7F1
:101330006C5F7E4F85E00E948C0099819150909364
:10134000EF0182E08093A40173CF2B813C81232B9A
:1013500091F4811010C00E9400046093F901709311
:10136000FA018093FB019093FC010E942604909265
:10137000AA0284E0D5CF0E9400042091A1023091FE
:10138000A2024091A3025091A402621B730B840B32
:10139000950B683E73408105910578F00E9400042A
:1013A0006093A1027093A2028093A3029093A4027F
:1013B0008091A0028F5F8093A002EF2801F1012BA2
:1013C00051F18091A902882369F00E94DB0AA301F0
:1013D00092010E945D0B6093A7028FEF8093A80299
:1013E0001092A9028091EA019091EB010196843656
:1013F0009105D0F49093EB018093EA0119CF898194
:101400008111DDCF8FEF0E94A7018111D8CF0E94FB
:10141000260486E085CF9A819111D3CF81E00E9486
:10142000A7018111CECFF3CF1092EB011092EA0108
:101430008091A702883044F46091A802613124F4BD
:1014400042E051E00E949B002091A8022F5F298377
:1014500020310CF061C02D304CF042E051E0622FA1
:101460008091A7020E94D5008111D1CF398130939C
:10147000A8020E943B04DCCE84E08093A40180910A
:10148000AA02882331F08091A0020E943F051092A9
:10149000AA028091FE01811108C08091FD01811195
:1014A00004C095E09093FF01C3CE0E940004009118
:1014B000F9011091FA012091FB013091FC01601BB0
:1014C000710B820B930B683B7B408105910508F4FF
:1014D000AFCE0E942604E4CE35E03093A401809183
:1014E000AA02882331F08091A0020E943F05109249
:1014F000AA028091FE01882309F49ACE8091FD0111
:10150000811196CEC3CE86E08093A4012B813C81CD
:10151000232B09F4C3CE8CCE9092A90289CE8F9250
:101520009F92AF92BF92CF92DF92EF92FF92CF93B2
:10153000DF93EC01688179818A819B816115710556
:101540008105910521F464E279ED8BE597E02DE1C9
:1015500033EF41E050E00E945D0B49015A019B01CD
:10156000AC01A7EAB1E40E947C0B6B017C01ACEEFC
:10157000B4EFA50194010E948A0BC60ED71EE81E87
:10158000F91EF7FE06C081E0C81AD108E10880E81C
:10159000F80AC882D982EA82FB82C701B6019F7726
:1015A000DF91CF91FF90EF90DF90CF90BF90AF9001
:1015B0009F908F9008958F929F92AF92BF92CF92FB
:1015C000DF92EF92FF926091B5017091B601809128
:1015D000B7019091B801611571058105910521F45C
:1015E00064E279ED8BE597E02DE133EF41E050E0E7
:1015F0000E945D0B49015A019B01AC01A7EAB1E4CD
:101600000E947C0B6B017C01ACEEB4EFA501940150
:101610000E948A0BC60ED71EE81EF91EF7FE06C0F2
:1016200081E0C81AD108E10880E8F80AC092B50143
:10163000D092B601E092B701F092B801C701B601AD
:101640009F77FF90EF90DF90CF90BF90AF909F90EB
:101650008F9008956093B5017093B6018093B701A0
:101660009093B8010895BB27FB015527AA27880F3F
:10167000991FAA1FA41710F0A41B83955051B9F706
:10168000A05DAA3308F0A95DA193009779F7B11185
:10169000B1931192CB010C944D0BDC01FC01672F2F
:1016A00071917723E1F7329704C07C916D93708339
:1016B0006291AE17BF07C8F30895052E97FB1EF47D
:1016C00000940E94740B57FD07D00E94C60B07FCC4
:1016D00003D04EF40C94740B5095409530952195A1
:1016E0003F4F4F4F5F4F089590958095709561954E
:1016F0007F4F8F4F9F4F08950E94E80BA59F900D3D
:10170000B49F900DA49F800D911D11240895B7FFE3
:101710000C947C0B0E947C0B821B930B08952F92E0
:101720003F924F925F926F927F928F929F92AF9271
:10173000BF92CF92DF92EF92FF920F931F93CF93BE
:10174000DF93CDB7DEB7CA1BDB0B0FB6F894DEBF55
:101750000FBECDBF09942A88398848885F846E847B
:101760007D848C849B84AA84B984C884DF80EE80C5
:10177000FD800C811B81AA81B981CE0FD11D0FB6CE
:10178000F894DEBF0FBECDBFED010895A1E21A2E81
:10179000AA1BBB1BFD010DC0AA1FBB1FEE1FFF1F15
:1017A000A217B307E407F50720F0A21BB30BE40B65
:1017B000F50B661F771F881F991F1A9469F76095AC
:1017C0007095809590959B01AC01BD01CF01089566
:1017D000A29FB001B39FC001A39F700D811D112472
:1017E000911DB29F700D811D1124911D0895EE0F62
:1017F000FF1F0590F491E02D09940F931F93CF9351
:10180000DF938230910510F482E090E0E091B9021C
:10181000F091BA0230E020E0B0E0A0E0309799F417
:101820002115310509F44AC0281B390B2430310534
:10183000D8F58A819B816115710589F1FB0193833C
:101840008283FE0111C040815181028113814817BA
:101850005907E0F04817590799F4109761F012966C
:101860000C93129713961C933296CF01DF91CF9170
:101870001F910F9108950093B9021093BA02F4CF0B
:101880002115310551F04217530738F0A901DB014A
:101890009A01BD01DF01F801C1CFEF01F9CF9093AB
:1018A000BA028093B902CDCFFE01E20FF31F8193FC
:1018B00091932250310939832883D7CF2091B702E1
:1018C0003091B802232B41F42091BB013091BC012F
:1018D0003093B8022093B7022091B9013091BA0138
:1018E0002115310541F42DB73EB74091BD0150910E
:1018F000BE01241B350BE091B702F091B802E2174C
:10190000F307A0F42E1B3F0B2817390778F0AC0122
:101910004E5F5F4F2417350748F04E0F5F1F5093FF
:10192000B8024093B702819391939FCFF0E0E0E03B
:101930009CCFCF93DF930097E9F0FC01329713829D
:101940001282A091B902B091BA02ED0130E020E01C
:101950001097A1F420813181820F931F2091B7024B
:101960003091B8022817390709F061C0F093B80226
:10197000E093B702DF91CF910895EA01CE17DF0718
:10198000E8F54A815B819E0141155105B1F7E901F6
:10199000FB83EA8349915991C40FD51FEC17FD07CA
:1019A00061F4808191810296840F951FE9019983EA
:1019B0008883828193819B838A83F0E0E0E01296A2
:1019C0008D919C9113970097B9F52D913C911197AA
:1019D000CD010296820F931F2091B7023091B80279
:1019E0002817390739F6309751F51092BA0210923C
:1019F000B902B093B802A093B702BCCFD383C2831D
:101A000040815181840F951FC817D90761F44E5F3B
:101A10005F4F88819981480F591F518340838A8184
:101A20009B81938382832115310509F0B0CFF09318
:101A3000BA02E093B9029ECFFD01DC01C0CF138250
:101A40001282D7CFB0E0A0E0E8E2FDE00C94910B69
:101A50008C01009751F4CB010E94FD0B8C01C80151
:101A6000CDB7DEB7E0E10C94AD0BFC01E60FF71F3C
:101A70009C0122503109E217F30708F49DC0D901F7
:101A8000CD91DC911197C617D70798F0C530D105D5
:101A900030F3CE0104978617970708F3C61BD70BC0
:101AA0002297C193D1936D937C93CF010E94990C9F
:101AB000D6CF5B01AC1ABD0A4C018C0E9D1EA091C5
:101AC000B902B091BA02512C412CF12CE12C1097A3
:101AD00031F58091B7029091B8028815990509F007
:101AE0005CC04616570608F058C08091B901909125
:101AF000BA01009741F48DB79EB74091BD01509156
:101B0000BE01841B950BE817F90708F055C0F09348
:101B1000B802E093B702F90171836083A0CF8D9181
:101B20009C91119712966C90129713967C90139734
:101B3000A815B90559F56C0142E0C40ED11CCA14B0
:101B4000DB0420F1AC014A195B09DA011296159702
:101B500080F06282738251834083D9016D937C93BC
:101B6000E114F10471F0D7011396FC93EE931297F0
:101B700076CF22968C0F9D1FF90191838083F3010C
:101B8000EFCFF093BA02E093B90269CF4816590635
:101B900008F42C017D01D3019ACFCB010E94FD0BEB
:101BA0007C01009749F0AE01B8010E94DF0DC80129
:101BB0000E94990C870153CF10E000E050CFFB0149
:101BC000DC0102C001900D9241505040D8F70895B9
:101BD000FB01DC0101900D920020E1F70895F894DB
:021BE000FFCF35
:101BE20040E0E0400066FFFF7E3C1800007E40407F
:101BF2004E427E00000000007E000000007E404059
:101C02007E027E00007E40407E407E00003E4040DC
:101C120040403E00007C101010107C00003C42420C
:101C220042423C00004262524A464200003C42426A
:101C32007E424200007E424242427E000008182854
:101C420008083C00003C020204083E00007E027EBE
:101C520002027E00004242427E020200007E4040BA
:101C62007E027E00007E407E42427E00007C043E78
:101C720004040400007E423C42427E00007E427E1A
:101C820002020200FFFEFDFCFBFAF9F8F7F6F5F49A
:101C9200F3F2F1F0EF010000000000BB028000004F
:101CA2000000006D02CD01FA01BA022B0209021DE9
:0E1CB20002706F73793A20000D0A00300000B6
:107E0000112484B714BE81FFF0D085E080938100F7
:107E100082E08093C00088E18093C10086E0809377
:107E2000C20080E18093C4008EE0C9D0259A86E02C
:107E300020E33CEF91E0309385002093840096BBD3
:107E4000B09BFECF1D9AA8958150A9F7CC24DD24C4
:107E500088248394B5E0AB2EA1E19A2EF3E0BF2EE7
:107E6000A2D0813461F49FD0082FAFD0023811F036
:107E7000013811F484E001C083E08DD089C08234E0
:107E800011F484E103C0853419F485E0A6D080C0E4
:107E9000853579F488D0E82EFF2485D0082F10E0AE
:107EA000102F00270E291F29000F111F8ED06801E7
:107EB0006FC0863521F484E090D080E0DECF843638
:107EC00009F040C070D06FD0082F6DD080E0C81688
:107ED00080E7D80618F4F601B7BEE895C0E0D1E017
:107EE00062D089930C17E1F7F0E0CF16F0E7DF06D8
:107EF00018F0F601B7BEE89568D007B600FCFDCFD4
:107F0000A601A0E0B1E02C9130E011968C91119780
:107F100090E0982F8827822B932B1296FA010C0160
:107F200087BEE89511244E5F5F4FF1E0A038BF0790
:107F300051F7F601A7BEE89507B600FCFDCF97BE46
:107F4000E89526C08437B1F42ED02DD0F82E2BD052
:107F50003CD0F601EF2C8F010F5F1F4F84911BD097
:107F6000EA94F801C1F70894C11CD11CFA94CF0C13
:107F7000D11C0EC0853739F428D08EE10CD085E9AC
:107F80000AD08FE07ACF813511F488E018D01DD067
:107F900080E101D065CF982F8091C00085FFFCCF94
:107FA0009093C60008958091C00087FFFCCF809118
:107FB000C00084FD01C0A8958091C6000895E0E648
:107FC000F0E098E1908380830895EDDF803219F02E
:107FD00088E0F5DFFFCF84E1DECF1F93182FE3DFCA
:107FE0001150E9F7F2DF1F91089580E0E8DFEE27F6
:047FF000FF270994CA
:027FFE00040479
:0400000300007E007B
:00000001FF