:1000000002C1000031C100002FC100002DC100005D
:100010002BC1000029C1000027C1000025C100003C
:1000200023C1000021C100001FC100001DC100004C
:100030001BC1000019C1000017C1000015C100005C
:1000400013C1000011C100000FC100000DC100006C
:100050000BC1000009C1000007C10000FCC6000080
:1000600003C10000C2C6000097C60000FDC000002A
:10007000FBC00000F9C00000F7C00000F5C00000A0
:10008000F3C00000F1C00000EFC00000EDC00000B0
:10009000EBC00000E9C00000E7C00000E5C00000C0
:1000A000E3C00000E1C00000DFC00000DDC00000D0
:1000B000DBC00000D9C00000D7C00000D5C00000E0
:1000C000D3C00000D1C00000CFC00000CDC00000F0
:1000D000CBC00000C9C00000C7C00000C5C0000000
:1000E000C3C0000000002200250028002B002E00C5
:1000F0003100340002010000050108010B0100007D
:1001000020002300260029002C002F0032000001CF
:10011000000003010601090100000A0B02090C0D91
:100120000E080703040100000000000000000000AA
:1001300000000000000000000000000000000000BF
:10014000000000001211100000000000000000007C
:10015000000000000000000000000000000000009F
:100160002100240027002A002D0030003300010167
:100170000000040107010A010102102020080810F4
:100180002040102040800201020108040201010207
:1001900004081020408080402010080402018004E0
:1001A000020180402010080402010804020101023B
:1001B000040810204080010204081020408005053A
:1001C0000505070508080808020202020A0A0808CD
:1001D00004040404010101010101010103030303FB
:1001E00003030303040707070C0C0C0C0C0C0C0C8A
:1001F0000202020206060606060606060B0B0B0B9B
:100200000B0B0B0B750711241FBECFEFD1E2DEBF26
:10021000CDBF00E00CBF12E0A0E0B2E0E0ECFFE1F7
:1002200000E00BBF02C007900D92A63FB107D9F7BF
:1002300024E0A6EFB2E001C01D92AB33B207E1F7B4
:1002400011E0C3E0D1E000E006C021970109802F52
:10025000FE010E94C50DC230D10780E00807A9F752
:100260000E945A090C94DE0FCBCECF93DF9392E01D
:10027000960FFA01462F062E000C550B4E1B5F0BF6
:10028000282F332721950CF43095E9019A012E0F80
:100290003F1F21313105CCF467FD13C0208130E0D0
:1002A00087FF16C00C2E01C0220F0A94EAF7A62F72
:1002B000062E000CBB0BA953BD4F20953C91232368
:1002C0002C936F5F31966913E1CFDF91CF91089541
:1002D000082E02C0359527950A94E2F7E8CF90E002
:1002E000FB012191BF01E82FE90FF0E0E953FD4F39
:1002F00020839F5F9830A1F708950F931F93CF93AA
:10030000DF93FA01962FC62F062E000CDD0BC41BBF
:10031000D50B482F552741950CF450958A01AE0115
:100320004E0F5F1F41315105D4F497FD12C040813B
:1003300050E087FF19C0002E01C0440F0A94EAF76D
:10034000A92F092E000CBB0BA953BD4F3C91432B89
:100350004C939F5F3196392F361B321700F3DF9194
:10036000CF911F910F910895082E02C05595479582
:100370000A94E2F7E5CF80911C04883044F4609140
:100380001D04613124F422E043E052E0B6CF089529
:10039000CF92DF92EF92FF920F931F93DA0190E0DA
:1003A000062E000C770B7B01E41AF50AE0E1F0E081
:1003B000E81BF10987FDF39597012A0F3B1F37FDD5
:1003C00034C0A92FB0E06A0F7B1FFB01E953FD4F3A
:1003D000A40FB51F60E170E0681B710987FD73957C
:1003E0009F01275C3240213131059CF1FA01E90F70
:1003F000F11D20E130E0281B310987FD3395923053
:1004000009F44BC0419150E070E060E0022E04C05E
:10041000440F551F661F771F0A94D2F7452B462BB2
:10042000472B09F042C09F5FEACF923051F20D9105
:1004300010E030E020E00E2E04C0000F111F221F3C
:10044000331F0A94D2F7012B022B032B71F59F5F08
:10045000B3CF923011F1C190D12CF12CE12C760167
:10046000DD24CC242D91022F10E030E020E0062E78
:1004700004C0000F111F221F331F0A94D2F7CC248F
:10048000CA94DC2CFD2C0C211D212E213F21012B97
:10049000022B032B51F49F5FA3CF80E01F910F919C
:1004A000FF90EF90DF90CF90089581E0F7CFCF934A
:1004B000C82F80911C0488303CF460911D04613188
:1004C0001CF443E052E0D1DE80911C04C80FC6301A
:1004D00020F051DF81E0CF91089543E052E0609138
:1004E0001D048C2F55DF811103C0C0931C04F1CF74
:1004F00080E0F1CFAF92BF92CF92DF92EF92FF9266
:100500000F931F93CF93DF936C017B018B01040F3B
:10051000151FEB015E01AE18BF08C017D10759F0D7
:100520006991D601ED91FC910190F081E02DC60119
:100530001995892B79F7C501DF91CF911F910F9103
:10054000FF90EF90DF90CF90BF90AF900895FC01A7
:10055000538D448D252F30E0842F90E0821B930B28
:10056000541710F0CF96089501970895FC01918DCE
:10057000828D981761F0A28DAE0FBF2FB11D5D96D1
:100580008C91928D9F5F9F73928F90E008958FEF73
:100590009FEF0895FC01918D828D981731F0828D27
:1005A000E80FF11D858D90E008958FEF9FEF08957E
:1005B000FC01918D228D892F90E0805C9F4F821BE2
:1005C00091098F739927089587E493E0F1DF21E083
:1005D000892B09F420E0822F0895FC01A48DA80F37
:1005E000B92FB11DA35ABF4F2C91848D90E0019675
:1005F0008F739927848FA689B7892C93A089B18995
:100600008C91837080648C93938D848D981306C035
:100610000288F389E02D80818F7D80830895EF9299
:10062000FF920F931F93CF93DF93EC0181E0888FAC
:100630009B8D8C8D98131AC0E889F989808185FF7C
:1006400015C09FB7F894EE89FF896083E889F9891E
:1006500080818370806480839FBF81E090E0DF9120
:10066000CF911F910F91FF90EF900895F62E0B8D73
:1006700010E00F5F1F4F0F731127E02E8C8D8E112E
:100680000BC00FB607FCFACFE889F989808185FF96
:10069000F5CFCE01A2DFF2CFEB8DEC0FFD2FF11DD8
:1006A000E35AFF4FF0829FB7F8940B8FEA89FB89DA
:1006B00080818062D0CFCF93DF93EC01888D882337
:1006C000B1F0AA89BB89E889F9898C9185FD03C0BD
:1006D000808186FD0CC00FB607FCF7CF8C9185FF9B
:1006E000F2CF808185FFEDCFCE0177DFEACFDF91BA
:1006F000CF91089580E090E0892B21F065DF811192
:100700000E94000080E090E0892B49F080E090E0BA
:10071000892B29F00E94000081110E94000080E0D6
:1007200090E0892B49F080E090E0892B29F00E942D
:10073000000081110E94000080E090E0892B49F0C8
:1007400080E090E0892B29F00E94000081110C9438
:10075000000008958150823108F05AC0E82FF0E07F
:100760008827EA54FC4F8F4F0C94C50DD603DA034B
:10077000C803CE03D2030804DD03E303E703ED035C
:10078000F103F503FB03FF030804030409040D044C
:10079000809180008F778093800008958091800001
:1007A0008F7DF9CF80918000877FF5CF84B58F77DB
:1007B00084BD089584B58F7DFBCF8091B0008F7785
:1007C0008093B00008958091B0008F7DF9CF809123
:1007D00090008F77809390000895809190008F7D96
:1007E000F9CF80919000877FF5CF8091A0008F771F
:1007F0008093A00008958091A0008F7DF9CF809113
:10080000A000877FF5CF809120018F778093200112
:100810000895809120018F7DF9CF80912001877FFD
:10082000F5CFCF93DF93282F30E0F901E85EFE4F3C
:100830008491F901E858FE4FD491F901E254FE4F3A
:10084000C491CC2399F0811185DFEC2FF0E0EE0FFD
:10085000FF1FE250FF4FA591B491EC91ED2381E091
:1008600090E009F480E0DF91CF91089580E090E07E
:10087000FACF1F93CF93DF93282F30E0F901E85E82
:10088000FE4F8491F901E858FE4FD491F901E254EA
:10089000FE4FC491CC23A1F0162F81115BDFEC2F0A
:1008A000F0E0EE0FFF1FEC51FF4FA591B4918FB711
:1008B000F894EC91111108C0D095DE23DC938FBF22
:1008C000DF91CF911F910895DE2BF8CF1F93CF9327
:1008D000DF93C82F162F60E080913504CADFCEBDAC
:1008E00000000DB407FEFDCFCEB5D0E0DC2FCC2745
:1008F0001EBD00000DB407FEFDCF8EB5C82B61E014
:1009000080913504B6DFCE01DF91CF911F9108951C
:10091000CF93DF9390E0FC01E858FE4F249182547E
:100920009E4FFC0184918823D1F090E0880F991F9D
:10093000FC01E25AFE4FA591B491FC01EC51FF4F2E
:10094000C591D491623071F49FB7F8943C91822F95
:10095000809583238C93E8812E2B28839FBFDF9182
:10096000CF9108958FB7F894EC912E2B2C938FBFD5
:10097000F6CF90917B00977F90937B0086538064A5
:1009800080937C0080917A00806480937A008091CB
:100990007A0086FDFCCF80917800909179000895CF
:1009A0002FB7F8946091FB027091FC028091FD02D8
:1009B0009091FE022FBF0895FC018081883034F4AD
:1009C000618161311CF440E052E04FCC08951F93E7
:1009D000CF93DF93E5DFC7E1D4E069837A838B832C
:1009E0009C83109246031092450388EC90E090930C
:1009F000C6028093C5028EE194E0DEDF11E0198724
:100A000081E294E0D9DF1C8784E294E0D5DF1F8780
:100A100087E294E0D1DF1A8B188283E08D83DF9127
:100A2000CF911F910895FC01808188303CF4618151
:100A3000613124F422E040E052E05FCC0895CF938E
:100A4000DF93EC0188819981009711F00E94690E73
:100A5000198218821D821C821B821A82DF91CF911B
:100A60000895E7ECF2E081E1DF011D928A95E9F754
:100A70000895EF92FF920F931F93CF93DF932091EE
:100A800002022817190641F01092430321E0009753
:100A900009F420E0209302020097B9F1019749F58B
:100AA000E0DFC5E1D3E005EE13E030E4E32EFF2400
:100AB000FA94FE018881998101968031910511F1A6
:100AC000998388832296608161316CF4F8014081BA
:100AD000518123E0440F551F2A95E1F74B5F5D4F8D
:100AE00028E080E00ADC0E5F1F4FF3E0C334DF072D
:100AF00001F710924303DF91CF911F910F91FF9067
:100B0000EF900895F982E882DDCFABDFC5E1D3E055
:100B100005EE13E090E1E92EF12CFE018881998128
:100B2000019780342FEF9207D1F099838883229622
:100B3000608161316CF4F8014081518183E0440FA0
:100B4000551F8A95E1F74B5F5D4F28E080E0D5DBCC
:100B50000E5F1F4FF3E0C334DF07F9F6CACFF98207
:100B6000E882E5CF0F931F93CF93DF93EC01888149
:100B70009981009759F02A813B812617370730F079
:100B800081E0DF91CF911F910F9108958B016F5FED
:100B90007F4F0E94F20E009759F0998388831B8340
:100BA0000A832C813D81232B59F7FC011082E8CF69
:100BB00080E0E7CFEF92FF920F931F93CF93DF93E5
:100BC000EC017B018A01BA01CDDF81110AC0CE019F
:100BD00036DFCE01DF91CF911F910F91FF90EF9003
:100BE00008951D830C83B701888199810E94D70FD6
:100BF000F0CFEF92FF920F931F93CF93DF93CDB778
:100C0000DEB765970FB6F894DEBF0FBECDBF8091FB
:100C10002A04882309F4A5C0F0901704198A188AB9
:100C20001B8A1A8A1D8A1C8A4AE08E010F5F1F4F99
:100C3000B8018F2D90E017D7F80101900020E9F757
:100C40003197AF01401B510BB801CE014096B2DF86
:100C500088E08F1508F44EC01A8219821C821B820C
:100C60001E821D8241E050E064EF72E0C801A2DF05
:100C70001B861A861D861C861F861E8669817A81C0
:100C80006115710529F04D815E81CE010A9692DFD2
:100C9000E888F988E114F10409F470C00C891D8911
:100CA00001151105B1F08E859F85080F191FB80138
:100CB000CE010A9657DF882309F460C02A853B8558
:100CC0008E859F85B701820F931F0E94D70F1F87C4
:100CD0000E876A857B856115710509F453C04E85C1
:100CE0005F85CE01409666DF8A859B85F2D7898134
:100CF0009A81EFD72C893D89C90102978217930702
:100D000028F4E889F989309709F040C0109244032B
:100D1000E4E4F3E080818252A90141505109421775
:100D2000530720F4E889F989309799F51092440324
:100D3000E4E4F3E01081125298E0899FB00111249D
:100D40006B5F7D4F80E0CBDA88E0189FB001112403
:100D50006B5F7D4F88E0C3DA88899989BAD7109292
:100D60002A0465960FB6F894DEBF0FBECDBFDF91A3
:100D7000CF911F910F91FF90EF900895CE010A96A9
:100D80005EDEA7CFCE0140965ADEAECFE80FF91F48
:100D9000C1CFE40FF51FCECF1F920F920FB60F9267
:100DA00011240BB60F922F933F934F935F936F9342
:100DB0007F938F939F93AF93BF93EF93FF9387E4BA
:100DC00093E00BDCFF91EF91BF91AF919F918F91D9
:100DD0007F916F915F914F913F912F910F900BBE3B
:100DE0000F900FBE0F901F9018951F920F920FB685
:100DF0000F9211240BB60F922F938F939F93EF9323
:100E0000FF93E0915703F09158038081E0915D03D7
:100E1000F0915E0382FD1DC09081809160038F5F21
:100E20008F7320916103821741F0E0916003F0E03D
:100E3000E95BFC4F958F80936003FF91EF919F9149
:100E40008F912F910F900BBE0F900FBE0F901F90A0
:100E500018958081F2CF1F920F920FB60F92112436
:100E60002F933F938F939F93AF93BF938091FB02F8
:100E70009091FC02A091FD02B091FE023091FA0225
:100E800023E0230F2D3758F50196A11DB11D2093A6
:100E9000FA028093FB029093FC02A093FD02B093B0
:100EA000FE028091F6029091F702A091F802B091B3
:100EB000F9020196A11DB11D8093F6029093F702ED
:100EC000A093F802B093F902BF91AF919F918F91D7
:100ED0003F912F910F900FBE0F901F90189526E80D
:100EE000230F0296A11DB11DD2CF5F926F927F9208
:100EF0008F929F92AF92BF92CF92DF92EF92FF922A
:100F00000F931F93CF93DF9310924A0310924903DC
:100F100088EE93E0A0E0B0E080934B0390934C0305
:100F2000A0934D03B0934E0386EE92E09093480356
:100F30008093470385EC90E0909354038093530390
:100F400084EC90E0909356038093550380EC90E0FE
:100F5000909358038093570381EC90E090935A0349
:100F60008093590382EC90E090935C0380935B0341
:100F700086EC90E090935E0380935D031092600393
:100F800010926103109262031092630385E390E074
:100F9000909336048093350461E0BADC61E083E32A
:100FA000B7DC61E084E3B4DC61E08091350461DCAE
:100FB000CFB7F8948091E403811123C0E3EFF1E00F
:100FC0008491EDEAF1E09491E82FF0E0EE0FFF1F3D
:100FD000E25AFE4FA591B491EC91E92319F461E036
:100FE00085E347DC61E085E393DC8CB580618CBDF3
:100FF0008CB580648CBD61E084E38ADC61E083E3CE
:1010000087DC8091E4038F5F8093E403CFBF80E5AA
:101010008CBD81E08DBD60E08CE058DC67E08AE04B
:1010200055DC67E08BE052DC60E089E04FDC60E09B
:101030008FE04CDC61E08CE049DCC1E060E08C2FAB
:1010400045DCCF5FC930D1F787E090E090932C0466
:1010500080932B0486E090E090932E0480932D04DF
:1010600085E090E09093300480932F041092320436
:101070001092310482E090E0909334048093330422
:1010800061E087E045DC61E080912D0441DC61E0B6
:1010900080912F043DDC0091330410913404C80189
:1010A0007CD5EC01FC01CF018C1B9D0B80179107B7
:1010B00014F41192F8CF0330110508F04AC060E033
:1010C00080912F04D6DB0091330410913404580131
:1010D00081E0A81AB1080C0F1D1F87E0882E912C03
:1010E000B7FC33C0F801C2908F015090310470906A
:1010F0002D0460902B04F12CE12CD12C51101BC03D
:10110000B6010E2C02C0759567950A94E2F76170DE
:10111000862DAFDB61E0872DACDB60E0872DA9DB9E
:10112000FFEFEF1AFF0A88E0E816F10439F7E1E073
:10113000AE1AB108D5CFC4018E199F09B60102C0FD
:10114000759567958A95E2F7E2CF61E080912F046B
:1011500090DB209711F0CE01BCD5109217041092AD
:1011600018041092190410921A0410921B048EE0B5
:1011700080931D0483E080931C0481E080932A0403
:101180008093200480932304809326048093290471
:101190001092130410921404109215041092160465
:1011A00081E090E09093E6038093E5034FE050E008
:1011B0005093E8034093E7038EE090E09093EA03B6
:1011C0008093E903E2E0F0E0F093EC03E093EB03BB
:1011D00083E090E09093EE038093ED0384E090E051
:1011E0009093F0038093EF0385E090E09093F203F7
:1011F0008093F1039093F4038093F30366E070E02F
:101200007093F6036093F50327E030E03093F80322
:101210002093F70328E030E03093FA032093F9039A
:101220002DE030E03093FC032093FB0329E030E015
:101230003093FE032093FD03F0930004E093FF033B
:10124000EAE0F0E0F0930204E0930104EBE0F0E068
:10125000F0930404E0930304309306042093050400
:101260009093080480930704ECE0F0E0F0930A0404
:10127000E093090470930C0460930B0490930E04A4
:1012800080930D043093100420930F0450931204A4
:1012900040931104DF91CF911F910F91FF90EF9038
:1012A000DF90CF90BF90AF909F908F907F906F9086
:1012B0005F900895789484B5826084BD84B5816020
:1012C00084BD85B5826085BD85B5816085BD809111
:1012D0006E00816080936E00109281008091810089
:1012E0008260809381008091810081608093810081
:1012F000809180008160809380008091B100846043
:101300008093B1008091B00081608093B0008091A3
:101310009100826080939100809191008160809320
:101320009100809190008160809390008091A10055
:1013300082608093A1008091A10081608093A100D0
:101340008091A00081608093A00080912101826043
:1013500080932101809121018160809321018091FE
:10136000200181608093200180917A0084608093C5
:101370007A0080917A00826080937A0080917A006E
:10138000816080937A0080917A00806880937A00EF
:101390001092C10086E3EDDABC01990F880B990B1E
:1013A000611571058105910509F054D362E082E071
:1013B000AFDA62E083E0ACDA62E084E0A9DA62E00E
:1013C00088E0A6DA8FEF87B981B94BDBE09157034C
:1013D000F091580382E08083E0915303F09154032D
:1013E0001082E0915503F09156038FEC80831092A8
:1013F0005F03E0915B03F0915C0386E08083E09102
:101400005903F0915A03808180618083E0915903F0
:10141000F0915A03808188608083E0915903F091B4
:101420005A03808180688083E0915903F0915A03C8
:1014300080818F7D808388E0F4D9E5E1F3E0019736
:1014400009F079C088E090E0089681939193803C00
:101450009105D1F7FF24F39496E0692E25E0222E22
:101460008091FF02E1E0F0E002C0EE0FFF1F8A95DD
:10147000E2F7CF01809582B9E091FF02F0E0E953F5
:10148000FD4F808188B98091FF02C1E0C80F88308C
:1014900048F4EFE0F0E0E81BF109E953FD4F60810B
:1014A0008C2F14DAC770C093FF0283EB9BE0019787
:1014B000F1F780911403883008F488C01092140367
:1014C0001091120310931103E0900003E0920103C6
:1014D00070900C037092020384E0A3D9EC0181E0C8
:1014E000209709F080E08093120382E09AD92C01C2
:1014F00081E04114510409F080E08093000383E00F
:1015000090D95C0181E0A114B10409F080E08093DE
:101510000C03E0911303E73008F058C0F0E088278F
:10152000EC56F54F8F4F31C3A50AFB0A210B860BF2
:10153000510C760C830C90E080E008978193919396
:1015400088342FEF9207C9F785CF1092C70288E041
:1015500068D901E0892B09F000E08BE30ADA092E53
:10156000000CAA0BBB0B209143038F3F9105A105F3
:10157000B10509F030F423328CF0802F90E079DA55
:101580000DC0AC01BD015150610971094F3F5105BA
:101590006105710509F008F524317CF7CD2B69F45C
:1015A00011110BC0FDD960930D0370930E0380934E
:1015B0000F0390931003F0921303AB2811F41092D1
:1015C000C802809143038F5F80934303809114038B
:1015D0008F5F809314038ED843CF9250A109B10935
:1015E00081309140A105B10518F42A30BCF2C5CF75
:1015F0002530A4F2C2CFF092C702D2D980900D0359
:1016000090900E03A0900F03B09010036819790911
:101610008A099B09683B7B408105910558F010922F
:101620000D0310920E0310920F031092100319DA9B
:1016300082E058C0CD2B51F21111C8CF1092130384
:10164000C5CF80910403811105C031E130930303BC
:10165000F0920403A5D900910D0310910E0320917F
:101660000F0330911003601B710B820B930B683ECC
:1016700073408105910508F445C092D960930D032C
:1016800070930E0380930F0390931003C091030394
:101690006C2F0C2E000C770B6F30710534F5F1E1D7
:1016A000F0930303DED980912004811103C08EE101
:1016B00094E0B9D980912304811103C081E294E0C0
:1016C000B2D980912604811103C084E294E0ABD9A1
:1016D00080912904811103C087E294E0A4D90E947B
:1016E000BB0183E08093130371CF83E0660F771F04
:1016F0008A95E1F76B5F7D4F85E00E946F01C150D5
:10170000C093030382E08093C70260CFCD2B81F4A6
:1017100011110EC045D960930D0370930E03809391
:101720000F03909310039DD9F0922A0484E0DACF3E
:1017300037D9009118041091190420911A0430919E
:101740001B04601B710B820B930B683E7340810579
:101750009105F0F025D960931804709319048093D3
:101760001A0490931B04809117048F5F80931704D1
:101770006AE0FFD191110CC08091C5029091C60220
:101780008A3191052CF049979093C6028093C50247
:1017900015D122E030E040E050E08ED16C5F07E1EF
:1017A00014E0F801CFEF80E09185911137C090856A
:1017B0009617ACF5C0914503D09146032196D0937E
:1017C0004603C09345038090C5029090C602F8017D
:1017D0008185811142C0C815D9050CF43EC068014D
:1017E000F7E0CF0ED11CC601E7D8F801308433945E
:1017F000FFE0F3150CF494C02CE0231554F540E001
:1018000052E0632DF80187810E94C801882309F105
:1018100028D9F0922A0460921303D8CEC82F3396A9
:101820008F5F843009F0C0CFCF3F21F2C7D033E0C3
:10183000C302E0011124C25EDB4F25E030E040E04E
:1018400050E03AD168838FEF89831A82CE01EBD8BA
:10185000B1CFF8013086C601E6D80D5F1F4F23E2F5
:1018600034E02017310709F0AECFC815D90524F0B0
:101870001092460310924503452859F0AB2809F011
:10188000A5CE7110A3CE81E00E94570281119ECE99
:10189000BFCFE110F3CF8FEF0E9457028111EECF3F
:1018A000B7CF84E08093C702A4D98091120381113D
:1018B00007C080911103811103C02092130386CECB
:1018C0006FD800910D0310910E0320910F033091FA
:1018D0001003601B710B820B930B683B7B408105EF
:1018E000910508F473CEBDD872D8A8CE2092C70255
:1018F00080D980911203882309F468CE8091110366
:10190000811164CE94CE6092C70273D98091120384
:10191000882309F45BCE80911103811157CEE3CF68
:10192000C6014AD8F801F18698CF8F929F92AF9264
:10193000BF92CF92DF92EF92FF92CF93DF93EC01B1
:10194000688179818A819B81611571058105910585
:1019500021F464E279ED8BE597E02DE133EF41E08E
:1019600050E0AAD049015A019B01AC01A7EAB1E4B9
:10197000BFD06B017C01ACEEB4EFA5019401C4D0E3
:10198000C60ED71EE81EF91EF7FE06C081E0C81A73
:10199000D108E10880E8F80AC882D982EA82FB828D
:1019A000C701B6019F77DF91CF91FF90EF90DF9055
:1019B000CF90BF90AF909F908F9008958F929F92FD
:1019C000AF92BF92CF92DF92EF92FF926091D802D6
:1019D0007091D9028091DA029091DB026115710554
:1019E0008105910521F464E279ED8BE597E02DE125
:1019F00033EF41E050E060D049015A019B01AC0156
:101A0000A7EAB1E475D06B017C01ACEEB4EFA5019F
:101A100094017AD0C60ED71EE81EF91EF7FE06C046
:101A200081E0C81AD108E10880E8F80AC092D8021B
:101A3000D092D902E092DA02F092DB02C701B6013D
:101A40009F77FF90EF90DF90CF90BF90AF909F90E7
:101A50008F9008956093D8027093D9028093DA0230
:101A60009093DB020895BB27FB015527AA27880F17
:101A7000991FAA1FA41710F0A41B83955051B9F702
:101A8000A05DAA3308F0A95DA193009779F7B11181
:101A9000B1931192CB0100C0DC01FC01672F719161
:101AA0007723E1F7329704C07C916D937083629144
:101AB000AE17BF07C8F30895052E97FB16F40094E0
:101AC0000FD057FD05D024D007FC02D046F408C043
:101AD00050954095309521953F4F4F4F5F4F08955A
:101AE00090958095709561957F4F8F4F9F4F08958A
:101AF00031D0A59F900DB49F900DA49F800D911D96
:101B000011240895B7FFF4CFF3DF821B930B0895E0
:101B1000A1E21A2EAA1BBB1BFD010DC0AA1FBB1FF1
:101B2000EE1FFF1FA217B307E407F50720F0A21B63
:101B3000B30BE40BF50B661F771F881F991F1A94D0
:101B400069F760957095809590959B01AC01BD01FA
:101B5000CF010895A29FB001B39FC001A39F700D54
:101B6000811D1124911DB29F700D811D1124911DA5
:101B70000895991B79E004C0991F961708F0961BE9
:101B8000881F7A95C9F780950895EE0FFF1F881F6B
:101B90008BBF0790F691E02D19940F931F93CF936D
:101BA000DF938230910510F482E090E0E0913904F7
:101BB000F0913A0430E020E0B0E0A0E0309799F4F2
:101BC0002115310509F44AC0281B390B2430310591
:101BD000D8F58A819B816115710589F1FB01938399
:101BE0008283FE0111C04081518102811381481717
:101BF0005907E0F04817590799F4109761F01296C9
:101C00000C93129713961C933296CF01DF91CF91CC
:101C10001F910F9108950093390410933A04F4CF63
:101C20002115310551F04217530738F0A901DB01A6
:101C30009A01BD01DF01F801C1CFEF01F9CF909307
:101C40003A0480933904CDCFFE01E20FF31F819354
:101C500091932250310939832883D7CF20913704BB
:101C600030913804232B41F42091DE023091DF02C1
:101C700030933804209337042091DC023091DD0248
:101C80002115310541F42DB73EB74091E002509146
:101C9000E102241B350BE0913704F0913804E21780
:101CA000F307A0F42E1B3F0B2817390778F0AC017F
:101CB0004E5F5F4F2417350748F04E0F5F1F50935C
:101CC000380440933704819391939FCFF0E0E0E094
:101CD0009CCFCF93DF930097E9F0FC0132971382FA
:101CE0001282A0913904B0913A04ED0130E020E075
:101CF0001097A1F420813181820F931F2091370426
:101D0000309138042817390709F061C0F09338047E
:101D1000E0933704DF91CF910895EA01CE17DF07F2
:101D2000E8F54A815B819E0141155105B1F7E90152
:101D3000FB83EA8349915991C40FD51FEC17FD0726
:101D400061F4808191810296840F951FE901998346
:101D50008883828193819B838A83F0E0E0E01296FE
:101D60008D919C9113970097B9F52D913C91119706
:101D7000CD010296820F931F2091370430913804D1
:101D80002817390739F6309751F510923A04109216
:101D90003904B0933804A0933704BCCFD383C283F3
:101DA00040815181840F951FC817D90761F44E5F98
:101DB0005F4F88819981480F591F518340838A81E1
:101DC0009B81938382832115310509F0B0CFF09375
:101DD0003A04E09339049ECFFD01DC01C0CF1382A9
:101DE0001282D7CF4F925F926F927F928F929F9283
:101DF000AF92BF92CF92DF92EF92FF920F931F9319
:101E0000CF93DF938C01009791F4CB01DF91CF91B9
:101E10001F910F91FF90EF90DF90CF90BF90AF9008
:101E20009F908F907F906F905F904F90B6CEFC0107
:101E3000E60FF71F9C0122503109E217F30708F45F
:101E4000AAC0D901CD91DC911197C617D70718F117
:101E5000C530D10570F0CE0104978617970748F07A
:101E6000C61BD70B2297C193D1936D937C93CF015F
:101E700030DFC801DF91CF911F910F91FF90EF905C
:101E8000DF90CF90BF90AF909F908F907F906F909A
:101E90005F904F9008955B01AC1ABD0A4C018C0E07
:101EA0009D1EA0913904B0913A04512C412CF12C83
:101EB000E12C109731F58091370490913804881502
:101EC000990509F05CC04616570608F058C0809185
:101ED000DC029091DD02009741F48DB79EB74091EE
:101EE000E0025091E102841B950BE817F90708F016
:101EF00052C0F0933804E0933704F9017183608392
:101F0000B8CF8D919C91119712966C901297139661
:101F10007C901397A815B90559F56C0142E0C40EE1
:101F2000D11CCA14DB0420F1AC014A195B09DA01A7
:101F30001296159780F06282738251834083D90193
:101F40006D937C93E114F10471F0D7011396FC9327
:101F5000EE9312978ECF22968C0F9D1FF9019183DD
:101F60008083F301EFCFF0933A04E093390481CFFB
:101F70004816590608F42C017D01D3019ACFCB01F4
:101F80000CDE7C01009739F0AE01B80107D0C80122
:101F9000A0DE87016ECF10E000E06BCFFB01DC011B
:101FA00002C001900D9241505040D8F70895FB01B6
:101FB000DC0101900D920020E1F70895F894FFCF25
:101FC000E0400140E00066FFFF7E3C1800007E40DC
:101FD000404E427E00000000007E000000007E4077
:101FE000407E027E00007E40407E407E00003E40FB
:101FF0004040403E00007C101010107C00003C422D
:102000004242423C00004262524A464200003C4288
:10201000427E424200007E427E40404000007E42BE
:102020007E48444400007E10101010100000000094
:102030000000000000007E424242427E000008187C
:102040002808083C00003C020204083E00007E0212
:102050007E02027E00004242427E020200007E407A
:10206000407E027E00007E407E42427E00007C0474
:102070003E04040400007E423C42427E00007E4258
:102080007E02020200C800FFFEFDFCFBFAF9F8F731
:10209000F6F5F4F3F2F1F0EF0100000000003B046C
:1020A0008000000000000F037A02A7025B03D80241
:0620B000B602CA02300076
:00000001FF
