:100000000C9462000C948A000C948A000C948A0070
:100010000C948A000C948A000C948A000C948A0038
:100020000C948A000C948A000C948A000C948A0028
:100030000C948A000C948A000C948A000C948A0018
:100040000C94A3030C948A000C9471030C944B033E
:100050000C948A000C948A000C948A000C948A00F8
:100060000C948A000C948A000000000025002800EF
:100070002B000000000023002600290000000008DB
:10008000000201000003040700000000000000005F
:1000900000000000240027002A00010204081020AC
:1000A000408001020408102001020408102004040A
:1000B0000404040404040202020202020303030310
:1000C0000303ED0311241FBECFEFD8E0DEBFCDBF89
:1000D00011E0A0E0B1E0E6EAF6E102C005900D9281
:1000E000AE3CB107D9F722E0AEECB1E001C01D9201
:1000F000A43AB207E1F710E0C2E6D0E004C02197CD
:10010000FE010E945909C136D107C9F70E94F004C7
:100110000C94510B0C940000E82F880FFF0BE05655
:10012000FE4FCB010896DB012D91BD0121938A176B
:100130009B07C9F70895AF92BF92CF92DF92EF92DB
:10014000FF920F931F93CF93DF936C017B018B0181
:10015000040F151FEB015E01AE18BF08C017D107D1
:1001600059F06991D601ED91FC910190F081E02D5B
:10017000C6010995892B79F7C501DF91CF911F91B0
:100180000F91FF90EF90DF90CF90BF90AF900895C8
:10019000FC01538D448D252F30E0842F90E0821B8D
:1001A000930B541710F0CF96089501970895FC0112
:1001B000918D828D981761F0A28DAE0FBF2FB11D6A
:1001C0005D968C91928D9F5F9F73928F90E00895C2
:1001D0008FEF9FEF0895FC01918D828D981731F07C
:1001E000828DE80FF11D858D90E008958FEF9FEFD0
:1001F0000895FC01918D228D892F90E0805C9F4FA6
:10020000821B91098F739927089580EF91E00E94D6
:10021000F90021E0892B09F420E0822F089580E085
:1002200090E0892B29F00E94050181110C940000B7
:100230000895FC01A48DA80FB92FB11DA35ABF4F7B
:100240002C91848D90E001968F739927848FA689D5
:10025000B7892C93A089B1898C91837080648C9329
:10026000938D848D981306C00288F389E02D8081D8
:100270008F7D80830895EF92FF920F931F93CF930A
:10028000DF93EC0181E0888F9B8D8C8D98131AC0D1
:10029000E889F989808185FF15C09FB7F894EE89B8
:1002A000FF896083E889F989808183708064808315
:1002B0009FBF81E090E0DF91CF911F910F91FF9060
:1002C000EF900895F62E0B8D10E00F5F1F4F0F7308
:1002D0001127E02E8C8D8E110CC00FB607FCFACFC3
:1002E000E889F989808185FFF5CFCE010E94190147
:1002F000F1CFEB8DEC0FFD2FF11DE35AFF4FF08294
:100300009FB7F8940B8FEA89FB8980818062CFCFF9
:10031000CF93DF93EC01888D8823B9F0AA89BB893C
:10032000E889F9898C9185FD03C0808186FD0DC027
:100330000FB607FCF7CF8C9185FFF2CF808185FF48
:10034000EDCFCE010E941901E9CFDF91CF91089541
:10035000833081F028F4813099F08230A9F008953B
:100360008730A9F08830C9F08430B1F480918000E2
:100370008F7D03C0809180008F77809380000895E7
:1003800084B58F7784BD089584B58F7DFBCF809130
:10039000B0008F778093B00008958091B0008F7D7A
:1003A000F9CFCF93DF93282F30E0F901E458FF4FC6
:1003B0008491F901E656FF4FD491F901E255FF4FC0
:1003C000C491CC23A1F081110E94A801EC2FF0E090
:1003D000EE0FFF1FEE58FF4FA591B491EC91ED2366
:1003E00081E090E009F480E0DF91CF91089580E012
:1003F00090E0FACF1F93CF93DF93282F30E0F901DD
:10040000E458FF4F8491F901E656FF4FD491F9016A
:10041000E255FF4FC491CC23A9F0162F81110E9401
:10042000A801EC2FF0E0EE0FFF1FE859FF4FA59158
:10043000B4918FB7F894EC91111108C0D095DE23D8
:10044000DC938FBFDF91CF911F910895DE2BF8CF02
:100450007F928F929F92AF92BF92CF92DF92EF9254
:10046000FF920F931F93CF93DF938C0160E08091F5
:1004700098020E94FA0180919C0290919D026C0169
:1004800021E0C21AD108080F191F87E0A82EB12C4D
:10049000D7FC33C0F801E2908F0170909A029090DF
:1004A000960280909402D0E0C0E0F12C71101BC045
:1004B000B7010C2E02C0759567950A94E2F761703A
:1004C000882D0E94FA0161E0892D0E94FA0160E006
:1004D000892D0E94FA012196C830D10539F721E013
:1004E000C21AD108D5CFC5018C1B9D0BB70102C024
:1004F000759567958A95E2F7E2CF61E08091980261
:10050000DF91CF911F910F91FF90EF90DF90CF90EF
:10051000BF90AF909F908F907F900C94FA011F93A3
:10052000CF93DF93C82F162F60E080919E020E9428
:10053000FA01CEBD00000DB407FEFDCFCEB5D0E070
:10054000DC2FCC271EBD00000DB407FEFDCF8EB5FD
:10055000C82B61E080919E020E94FA01CE01DF91DA
:10056000CF911F910895CF93DF9390E0FC01E65661
:10057000FF4F249182559F4FFC0184918823D1F035
:1005800090E0880F991FFC01E057FF4FA591B491AF
:10059000FC01E859FF4FC591D491623071F49FB7C7
:1005A000F8943C91822F809583238C93E8812E2BA5
:1005B00028839FBFDF91CF9108958FB7F894EC9176
:1005C0002E2B2C938FBFF6CF2FB7F8946091D301C9
:1005D0007091D4018091D5019091D6012FBF0895DB
:1005E000CF93DF93EC0188819981009711F00E94ED
:1005F000FB09198218821D821C821B821A82DF91DC
:10060000CF9108950F931F93CF93DF93EC018881CF
:100610009981009759F02A813B812617370730F0DE
:1006200081E0DF91CF911F910F9108958B016F5F52
:100630007F4F0E94840A009759F0998388831B8317
:100640000A832C813D81232B59F7FC011082E8CFCE
:1006500080E0E7CFEF92FF920F931F93CF93DF934A
:10066000EC017B018A01BA010E94020381110BC0D7
:10067000CE010E94F002CE01DF91CF911F910F9128
:10068000FF90EF9008951D830C83B70188819981B5
:100690000E944A0BF0CF1F920F920FB60F921124B7
:1006A0002F933F934F935F936F937F938F939F937A
:1006B000AF93BF93EF93FF9380EF91E00E941901F6
:1006C000FF91EF91BF91AF919F918F917F916F912A
:1006D0005F914F913F912F910F900FBE0F901F9000
:1006E00018951F920F920FB60F9211242F938F938C
:1006F0009F93EF93FF93E0910002F09101028081BC
:10070000E0910602F091070282FD1BC0908180916A
:1007100009028F5F8F7320910A02821741F0E091E6
:100720000902F0E0E051FE4F958F80930902FF919E
:10073000EF919F918F912F910F900FBE0F901F906F
:1007400018958081F4CF1F920F920FB60F9211244B
:100750002F933F938F939F93AF93BF938091D30138
:100760009091D401A091D501B091D6013091D201E0
:1007700023E0230F2D3758F50196A11DB11D2093BD
:10078000D2018093D3019093D401A093D501B0936B
:10079000D6018091CE019091CF01A091D001B0916E
:1007A000D1010196A11DB11D8093CE019093CF017F
:1007B000A093D001B093D101BF91AF919F918F9140
:1007C0003F912F910F900FBE0F901F90189526E824
:1007D000230F0296A11DB11DD2CF0F931F93CF936C
:1007E000DF931092F3011092F20188EE93E0A0E003
:1007F000B0E08093F4019093F501A093F601B093DB
:10080000F7018EEB91E09093F1018093F00185EC7C
:1008100090E09093FD018093FC0184EC90E0909334
:10082000FF018093FE0180EC90E0909301028093A1
:10083000000281EC90E0909303028093020282EC2C
:1008400090E0909305028093040286EC90E09093F0
:100850000702809306021092090210920A02109277
:100860000B0210920C028AE090E090939F0280931A
:100870009E0261E00E94B30261E080919E020E94AC
:10088000FA01CFB7F89480918D02811127C0E8EB6F
:10089000F0E08491E4EAF0E09491E82FF0E0EE0FCC
:1008A000FF1FE057FF4FA591B491EC91E92321F48C
:1008B00061E08AE00E94FA0161E08AE00E94B302EE
:1008C0008CB580618CBD8CB580648CBD61E08DE0A1
:1008D0000E94B30261E08BE00E94B30280918D021E
:1008E0008F5F80938D02CFBF80E58CBD81E08DBD91
:1008F00060E08CE00E948F0267E08AE00E948F0235
:1009000067E08BE00E948F0260E089E00E948F0226
:1009100060E08FE00E948F0261E08CE00E948F0215
:10092000C1E060E08C2F0E948F02CF5FC930C9F711
:1009300087E090E0909395028093940286E090E0A7
:10094000909397028093960285E090E090939902AD
:100950008093980210929B0210929A0282E090E09B
:1009600090939D0280939C0261E087E00E94B30215
:1009700061E0809196020E94B30261E0809198024A
:100980000E94B30200919C0210919D02C8010E9436
:100990005F09EC01FC01CF018C1B9D0B80179107B7
:1009A00014F41192F8CF0330110518F4CE010E940F
:1009B0002802209719F0CE010E94FB0910928E02A6
:1009C00010928F0210929002109291021092920255
:1009D00081E080939302DF91CF911F910F91089551
:1009E000CF93DF93CDB7DEB765970FB6F894DEBF30
:1009F0000FBECDBF789484B5826084BD84B581601C
:100A000084BD85B5826085BD85B5816085BD8091D9
:100A10006E00816080936E00109281008091810051
:100A20008260809381008091810081608093810049
:100A3000809180008160809380008091B10084600B
:100A40008093B1008091B00081608093B00080916C
:100A50007A00846080937A0080917A00826080932B
:100A60007A0080917A00816080937A0080917A0088
:100A7000806880937A001092C10080E480937C00AB
:100A800080917A00806480937A0080917A0086FD5C
:100A9000FCCF8091780060917900762F682F072E27
:100AA000000C880B990B611571058105910511F0FA
:100AB0000E948C0862E082E00E94B30262E083E060
:100AC0000E94B30262E084E00E94B30262E088E028
:100AD0000E94B302E0EAF1E080E1DF011D928A9515
:100AE000E9F7E0910002F091010282E08083E09159
:100AF000FC01F091FD011082E091FE01F091FF01F7
:100B00008FEC808310920802E0910402F0910502BC
:100B100086E08083E0910202F0910302808180618F
:100B20008083E0910202F0910302808188608083DB
:100B3000E0910202F0910302808180688083E0915D
:100B40000202F091030280818F7D808344244394CC
:100B5000512C3FE0A32EB12CCE0101967C0140E048
:100B6000C42E40E0D42E772473949DE0692E8090AB
:100B7000D901082D10E0C201082C01C0880F0A9489
:100B8000EAF780958093D701F801E056FE4F808107
:100B90008093D80180919C0290919D02039720F44C
:100BA00087ED91E00E94280299249394980C97E095
:100BB000981548F0F501E01BF10BE056FE4F6081FF
:100BC000892D0E948F02892D87708093D901809191
:100BD000EF01883008F453C01092EF013090ED011E
:100BE0003092EC018091DB018093DC012090E701E1
:100BF0002092DD0184E00E94D1018C0181E0011589
:100C0000110509F080E08093ED0182E00E94D1019E
:100C100021E0892B09F020E02093DB0183E00E9492
:100C2000D1014C0181E08114910409F080E08093AE
:100C3000E701E091EE01E73010F5F0E0EE5DF94FED
:100C40000C945909290650067606BB06FB061B07BD
:100C5000EA071092A001012B71F431100CC00E9420
:100C6000E4026093E8017093E9018093EA019093B4
:100C7000EB017092EE01892811F41092A10180918C
:100C8000EF018F5F8093EF01C114D10409F46FCF9E
:100C90000E940501882309F468CF0E94000063CFF9
:100CA0007092A0010E94E4022091E8013091E901D4
:100CB0004091EA015091EB01621B730B840B950B81
:100CC000683B7B408105910550F01092E80110923D
:100CD000E9011092EA011092EB0182E038C0012B89
:100CE00071F23110CCCF1092EE01C9CF8091DF01AB
:100CF000811104C06092DE017092DF010E94E40263
:100D00000091E8011091E9012091EA013091EB0195
:100D1000601B710B820B930B683E7340810591053C
:100D200030F10E94E4026093E8017093E90180933E
:100D3000EA019093EB011091DE01612F012E000C6E
:100D4000770B6B30710534F46092DE0183E08093A1
:100D5000EE0195CF83E0660F771F8A95E1F760502B
:100D60007F4F85E00E948C0011501093DE0182E0DD
:100D70008093A00184CF83E08093A0010E94E402CD
:100D800020918F02309190024091910250919202F5
:100D9000621B730B840B950B683E734081059105B4
:100DA00078F00E94E40260938F0270939002809327
:100DB00091029093920280918E028F5F80938E02B7
:100DC000012B91F4311010C00E94E4026093E801FD
:100DD0007093E9018093EA019093EB0184E08093A2
:100DE000EE01709293024BCF892809F048CF211071
:100DF00046CF86E0ACCF84E08093A001012B31F098
:100E0000311004C095E09093EE0139CF0E94E402C6
:100E10000091E8011091E9012091EA013091EB0184
:100E2000601B710B820B930B683B7B408105910526
:100E300008F059CF24CFB5E0B093A0018091930280
:100E4000882309F4ADC010918E02198A188A1B8A72
:100E50001A8A1D8A1C8A4AE0B701812F90E00E94FD
:100E60009508F70101900020E9F73197AF014E197D
:100E70005F09B701CE0140960E942A03193008F09D
:100E800054C01A8219821C821B821E821D8241E07C
:100E900050E06CEC71E0C7010E942A031B861A86A1
:100EA0001D861C861F861E8669817A8161157105E3
:100EB00031F04D815E81CE010A960E942A03888816
:100EC00099888114910409F475C00C891D89011554
:100ED0001105B9F08E859F85080F191FB801CE0145
:100EE0000A960E940203882309F464C02A853B8580
:100EF0008E859F85B401820F931F0E944A0B1F8726
:100F00000E876A857B856115710509F458C04E8589
:100F10005F85CE0140960E942A038A859B850E94A8
:100F2000FB0989819A810E94FB098C899D899C011A
:100F3000225031092817390728F4E889F9893097B0
:100F400009F042C01092DA01EAEDF1E060816652E8
:100F50009C01215031092817390720F4E889F989C3
:100F60003097A9F51092DA01EAEDF1E010811652FE
:100F700028E0629FB001112460507F4F80E00E9402
:100F80008C0088E0189FB001112460507F4F88E0EA
:100F90000E948C00888999890E94FB091092930213
:100FA0008091ED01882309F46ACE8091EC018111D2
:100FB00066CE93CECE010A960E94F002A2CFCE0159
:100FC00040960E94F002A9CFE20FF31FBFCFE20FBD
:100FD000F31FCCCF96E09093A001012B09F481CEB2
:100FE0004ECE8F929F92AF92BF92CF92DF92EF92AE
:100FF000FF92CF93DF93EC01688179818A819B8195
:10100000611571058105910521F464E279ED8BE5A7
:1010100097E02DE133EF41E050E00E94BF08490125
:101020005A019B01AC01A7EAB1E40E94DE086B0102
:101030007C01ACEEB4EFA50194010E94EC08C60E51
:10104000D71EE81EF91EF7FE06C081E0C81AD108B7
:10105000E10880E8F80AC882D982EA82FB82C701E7
:10106000B6019F77DF91CF91FF90EF90DF90CF9007
:10107000BF90AF909F908F9008958F929F92AF9264
:10108000BF92CF92DF92EF92FF926091B001709188
:10109000B1018091B2019091B30161157105810593
:1010A000910521F464E279ED8BE597E02DE133EFD2
:1010B00041E050E00E94BF0849015A019B01AC0188
:1010C000A7EAB1E40E94DE086B017C01ACEEB4EF4C
:1010D000A50194010E94EC08C60ED71EE81EF91E59
:1010E000F7FE06C081E0C81AD108E10880E8F80AD6
:1010F000C092B001D092B101E092B201F092B3017E
:10110000C701B6019F77FF90EF90DF90CF90BF901F
:10111000AF909F908F9008956093B0017093B1014C
:101120008093B2019093B3010895BB27FB0155272B
:10113000AA27880F991FAA1FA41710F0A41B839534
:101140005051B9F7A05DAA3308F0A95DA1930097AB
:1011500079F7B111B1931192CB010C94AF08DC0176
:10116000FC01672F71917723E1F7329704C07C91DE
:101170006D9370836291AE17BF07C8F30895052E73
:1011800097FB1EF400940E94D60857FD07D00E94DA
:10119000280907FC03D04EF40C94D60850954095CE
:1011A000309521953F4F4F4F5F4F08959095809513
:1011B000709561957F4F8F4F9F4F08950E944A0908
:1011C000A59F900DB49F900DA49F800D911D11249B
:1011D0000895B7FF0C94DE080E94DE08821B930B73
:1011E00008952F923F924F925F926F927F928F92CB
:1011F0009F92AF92BF92CF92DF92EF92FF920F93A6
:101200001F93CF93DF93CDB7DEB7CA1BDB0B0FB6AF
:10121000F894DEBF0FBECDBF09942A88398848886C
:101220005F846E847D848C849B84AA84B984C88402
:10123000DF80EE80FD800C811B81AA81B981CE0FF9
:10124000D11D0FB6F894DEBF0FBECDBFED010895DE
:10125000A1E21A2EAA1BBB1BFD010DC0AA1FBB1FBA
:10126000EE1FFF1FA217B307E407F50720F0A21B2C
:10127000B30BE40BF50B661F771F881F991F1A9499
:1012800069F760957095809590959B01AC01BD01C3
:10129000CF010895A29FB001B39FC001A39F700D1D
:1012A000811D1124911DB29F700D811D1124911D6E
:1012B0000895EE0FFF1F0590F491E02D09940F9310
:1012C0001F93CF93DF938230910510F482E090E07A
:1012D000E091A202F091A30230E020E0B0E0A0E0B3
:1012E000309799F42115310509F44AC0281B390BB0
:1012F00024303105D8F58A819B816115710589F10A
:10130000FB0193838283FE0111C0408151810281E0
:10131000138148175907E0F04817590799F41097B7
:1013200061F012960C93129713961C933296CF018C
:10133000DF91CF911F910F9108950093A202109316
:10134000A302F4CF2115310551F04217530738F0AD
:10135000A901DB019A01BD01DF01F801C1CFEF0155
:10136000F9CF9093A3028093A202CDCFFE01E20FAA
:10137000F31F819391932250310939832883D7CF6A
:101380002091A0023091A102232B41F42091B601BB
:101390003091B7013093A1022093A0022091B401B3
:1013A0003091B5012115310541F42DB73EB740917B
:1013B000B8015091B901241B350BE091A002F091C6
:1013C000A102E217F307A0F42E1B3F0B28173907E1
:1013D00078F0AC014E5F5F4F2417350748F04E0F91
:1013E0005F1F5093A1024093A002819391939FCFDE
:1013F000F0E0E0E09CCFCF93DF930097E9F0FC01B1
:10140000329713821282A091A202B091A302ED0141
:1014100030E020E01097A1F420813181820F931FEA
:101420002091A0023091A1022817390709F061C06C
:10143000F093A102E093A002DF91CF910895EA0119
:10144000CE17DF07E8F54A815B819E014115510502
:10145000B1F7E901FB83EA8349915991C40FD51F84
:10146000EC17FD0761F4808191810296840F951F2E
:10147000E90199838883828193819B838A83F0E049
:10148000E0E012968D919C9113970097B9F52D91FC
:101490003C911197CD010296820F931F2091A002DB
:1014A0003091A1022817390739F6309751F510927B
:1014B000A3021092A202B093A102A093A002BCCFFB
:1014C000D383C28340815181840F951FC817D907E8
:1014D00061F44E5F5F4F88819981480F591F518396
:1014E00040838A819B81938382832115310509F092
:1014F000B0CFF093A302E093A2029ECFFD01DC01E6
:10150000C0CF13821282D7CFB0E0A0E0EAE8FAE0C1
:101510000C94F3088C01009751F4CB010E945F09F1
:101520008C01C801CDB7DEB7E0E10C940F09FC01D6
:10153000E60FF71F9C0122503109E217F30708F468
:101540009DC0D901CD91DC911197C617D70798F0AE
:10155000C530D10530F3CE0104978617970708F3FD
:10156000C61BD70B2297C193D1936D937C93CF0168
:101570000E94FB09D6CF5B01AC1ABD0A4C018C0E50
:101580009D1EA091A202B091A302512C412CF12CDE
:10159000E12C109731F58091A0029091A10288155D
:1015A000990509F05CC04616570608F058C08091AE
:1015B000B4019091B501009741F48DB79EB7409169
:1015C000B8015091B901841B950BE817F90708F091
:1015D00055C0F093A102E093A002F90171836083EA
:1015E000A0CF8D919C91119712966C9012971396A3
:1015F0007C901397A815B90559F56C0142E0C40E0B
:10160000D11CCA14DB0420F1AC014A195B09DA01D0
:101610001296159780F06282738251834083D901BC
:101620006D937C93E114F10471F0D7011396FC9350
:10163000EE93129776CF22968C0F9D1FF90191831E
:101640008083F301EFCFF093A302E093A20269CF6E
:101650004816590608F42C017D01D3019ACFCB011D
:101660000E945F097C01009749F0AE01B8010E9419
:10167000410BC8010E94FB09870153CF10E000E035
:1016800050CFFB01DC0102C001900D92415050404F
:10169000D8F70895FB01DC0101900D920020E1F7DD
:0616A0000895F894FFCF4D
:1016A6000066FFFF7E3C1800007E40404E427E00F2
:1016B600000000007E000000007E40407E027E00AA
:1016C600007E40407E407E00003E404040403E005E
:1016D600007C101010107C00003C424242423C004C
:1016E600004262524A464200003C42427E4242006A
:1016F600007E424242427E000008182808083C004C
:10170600003C020204083E00007E027E02027E00C9
:10171600004242427E020200007E40407E027E007F
:10172600007E407E42427E00007C043E04040400AB
:10173600007E423C42427E00007E427E0202020061
:101746000102030405060708090A0B0C0D0E0F100B
:10175600010000000000A4028000000000003B0120
:0E1766009B00C8008801F900D700EB0030009E
:107E0000112484B714BE81FFF0D085E080938100F7
:107E100082E08093C00088E18093C10086E0809377
:107E2000C20080E18093C4008EE0C9D0259A86E02C
:107E300020E33CEF91E0309385002093840096BBD3
:107E4000B09BFECF1D9AA8958150A9F7CC24DD24C4
:107E500088248394B5E0AB2EA1E19A2EF3E0BF2EE7
:107E6000A2D0813461F49FD0082FAFD0023811F036
:107E7000013811F484E001C083E08DD089C08234E0
:107E800011F484E103C0853419F485E0A6D080C0E4
:107E9000853579F488D0E82EFF2485D0082F10E0AE
:107EA000102F00270E291F29000F111F8ED06801E7
:107EB0006FC0863521F484E090D080E0DECF843638
:107EC00009F040C070D06FD0082F6DD080E0C81688
:107ED00080E7D80618F4F601B7BEE895C0E0D1E017
:107EE00062D089930C17E1F7F0E0CF16F0E7DF06D8
:107EF00018F0F601B7BEE89568D007B600FCFDCFD4
:107F0000A601A0E0B1E02C9130E011968C91119780
:107F100090E0982F8827822B932B1296FA010C0160
:107F200087BEE89511244E5F5F4FF1E0A038BF0790
:107F300051F7F601A7BEE89507B600FCFDCF97BE46
:107F4000E89526C08437B1F42ED02DD0F82E2BD052
:107F50003CD0F601EF2C8F010F5F1F4F84911BD097
:107F6000EA94F801C1F70894C11CD11CFA94CF0C13
:107F7000D11C0EC0853739F428D08EE10CD085E9AC
:107F80000AD08FE07ACF813511F488E018D01DD067
:107F900080E101D065CF982F8091C00085FFFCCF94
:107FA0009093C60008958091C00087FFFCCF809118
:107FB000C00084FD01C0A8958091C6000895E0E648
:107FC000F0E098E1908380830895EDDF803219F02E
:107FD00088E0F5DFFFCF84E1DECF1F93182FE3DFCA
:107FE0001150E9F7F2DF1F91089580E0E8DFEE27F6
:047FF000FF270994CA
:027FFE00040479
:0400000300007E007B
:00000001FF